{
	"data": {
		"bytecode": {
			"linkReferences": {},
			"object": "608060405234801561001057600080fd5b50610335806100206000396000f3fe608060405234801561001057600080fd5b50600436106100415760003560e01c8063083b2732146100465780638a6d51b914610075578063f75c05b01461008a575b600080fd5b600054610059906001600160a01b031681565b6040516001600160a01b03909116815260200160405180910390f35b61008861008336600461018b565b61009d565b005b610088610098366004610260565b61010a565b604051638a6d51b960e01b815284906001600160a01b03821690638a6d51b9906100d1903390889088908890600401610293565b600060405180830381600087803b1580156100eb57600080fd5b505af11580156100ff573d6000803e3d6000fd5b505050505050505050565b604080516001600160a01b0385168152602081018490529081018290527f5849de7f4990bdc2aedf1bd015800def9474e98cee51b7ed1ba37ed46f9497a19060600160405180910390a1505050565b80356001600160a01b038116811461017057600080fd5b919050565b634e487b7160e01b600052604160045260246000fd5b600080600080608085870312156101a157600080fd5b6101aa85610159565b93506020850135925060408501359150606085013567ffffffffffffffff808211156101d557600080fd5b818701915087601f8301126101e957600080fd5b8135818111156101fb576101fb610175565b604051601f8201601f19908116603f0116810190838211818310171561022357610223610175565b816040528281528a602084870101111561023c57600080fd5b82602086016020830137600060208483010152809550505050505092959194509250565b60008060006060848603121561027557600080fd5b61027e84610159565b95602085013595506040909401359392505050565b60018060a01b038516815260006020858184015284604084015260806060840152835180608085015260005b818110156102db5785810183015185820160a0015282016102bf565b50600060a0828601015260a0601f19601f830116850101925050509594505050505056fea2646970667358221220ba54ad9e69d2340a30af7d616124ad5b1182267cbc02c711b9bff8756964bbae64736f6c63430008120033",
			"opcodes": "PUSH1 0x80 PUSH1 0x40 MSTORE CALLVALUE DUP1 ISZERO PUSH2 0x10 JUMPI PUSH1 0x0 DUP1 REVERT JUMPDEST POP PUSH2 0x335 DUP1 PUSH2 0x20 PUSH1 0x0 CODECOPY PUSH1 0x0 RETURN INVALID PUSH1 0x80 PUSH1 0x40 MSTORE CALLVALUE DUP1 ISZERO PUSH2 0x10 JUMPI PUSH1 0x0 DUP1 REVERT JUMPDEST POP PUSH1 0x4 CALLDATASIZE LT PUSH2 0x41 JUMPI PUSH1 0x0 CALLDATALOAD PUSH1 0xE0 SHR DUP1 PUSH4 0x83B2732 EQ PUSH2 0x46 JUMPI DUP1 PUSH4 0x8A6D51B9 EQ PUSH2 0x75 JUMPI DUP1 PUSH4 0xF75C05B0 EQ PUSH2 0x8A JUMPI JUMPDEST PUSH1 0x0 DUP1 REVERT JUMPDEST PUSH1 0x0 SLOAD PUSH2 0x59 SWAP1 PUSH1 0x1 PUSH1 0x1 PUSH1 0xA0 SHL SUB AND DUP2 JUMP JUMPDEST PUSH1 0x40 MLOAD PUSH1 0x1 PUSH1 0x1 PUSH1 0xA0 SHL SUB SWAP1 SWAP2 AND DUP2 MSTORE PUSH1 0x20 ADD PUSH1 0x40 MLOAD DUP1 SWAP2 SUB SWAP1 RETURN JUMPDEST PUSH2 0x88 PUSH2 0x83 CALLDATASIZE PUSH1 0x4 PUSH2 0x18B JUMP JUMPDEST PUSH2 0x9D JUMP JUMPDEST STOP JUMPDEST PUSH2 0x88 PUSH2 0x98 CALLDATASIZE PUSH1 0x4 PUSH2 0x260 JUMP JUMPDEST PUSH2 0x10A JUMP JUMPDEST PUSH1 0x40 MLOAD PUSH4 0x8A6D51B9 PUSH1 0xE0 SHL DUP2 MSTORE DUP5 SWAP1 PUSH1 0x1 PUSH1 0x1 PUSH1 0xA0 SHL SUB DUP3 AND SWAP1 PUSH4 0x8A6D51B9 SWAP1 PUSH2 0xD1 SWAP1 CALLER SWAP1 DUP9 SWAP1 DUP9 SWAP1 DUP9 SWAP1 PUSH1 0x4 ADD PUSH2 0x293 JUMP JUMPDEST PUSH1 0x0 PUSH1 0x40 MLOAD DUP1 DUP4 SUB DUP2 PUSH1 0x0 DUP8 DUP1 EXTCODESIZE ISZERO DUP1 ISZERO PUSH2 0xEB JUMPI PUSH1 0x0 DUP1 REVERT JUMPDEST POP GAS CALL ISZERO DUP1 ISZERO PUSH2 0xFF JUMPI RETURNDATASIZE PUSH1 0x0 DUP1 RETURNDATACOPY RETURNDATASIZE PUSH1 0x0 REVERT JUMPDEST POP POP POP POP POP POP POP POP POP JUMP JUMPDEST PUSH1 0x40 DUP1 MLOAD PUSH1 0x1 PUSH1 0x1 PUSH1 0xA0 SHL SUB DUP6 AND DUP2 MSTORE PUSH1 0x20 DUP2 ADD DUP5 SWAP1 MSTORE SWAP1 DUP2 ADD DUP3 SWAP1 MSTORE PUSH32 0x5849DE7F4990BDC2AEDF1BD015800DEF9474E98CEE51B7ED1BA37ED46F9497A1 SWAP1 PUSH1 0x60 ADD PUSH1 0x40 MLOAD DUP1 SWAP2 SUB SWAP1 LOG1 POP POP POP JUMP JUMPDEST DUP1 CALLDATALOAD PUSH1 0x1 PUSH1 0x1 PUSH1 0xA0 SHL SUB DUP2 AND DUP2 EQ PUSH2 0x170 JUMPI PUSH1 0x0 DUP1 REVERT JUMPDEST SWAP2 SWAP1 POP JUMP JUMPDEST PUSH4 0x4E487B71 PUSH1 0xE0 SHL PUSH1 0x0 MSTORE PUSH1 0x41 PUSH1 0x4 MSTORE PUSH1 0x24 PUSH1 0x0 REVERT JUMPDEST PUSH1 0x0 DUP1 PUSH1 0x0 DUP1 PUSH1 0x80 DUP6 DUP8 SUB SLT ISZERO PUSH2 0x1A1 JUMPI PUSH1 0x0 DUP1 REVERT JUMPDEST PUSH2 0x1AA DUP6 PUSH2 0x159 JUMP JUMPDEST SWAP4 POP PUSH1 0x20 DUP6 ADD CALLDATALOAD SWAP3 POP PUSH1 0x40 DUP6 ADD CALLDATALOAD SWAP2 POP PUSH1 0x60 DUP6 ADD CALLDATALOAD PUSH8 0xFFFFFFFFFFFFFFFF DUP1 DUP3 GT ISZERO PUSH2 0x1D5 JUMPI PUSH1 0x0 DUP1 REVERT JUMPDEST DUP2 DUP8 ADD SWAP2 POP DUP8 PUSH1 0x1F DUP4 ADD SLT PUSH2 0x1E9 JUMPI PUSH1 0x0 DUP1 REVERT JUMPDEST DUP2 CALLDATALOAD DUP2 DUP2 GT ISZERO PUSH2 0x1FB JUMPI PUSH2 0x1FB PUSH2 0x175 JUMP JUMPDEST PUSH1 0x40 MLOAD PUSH1 0x1F DUP3 ADD PUSH1 0x1F NOT SWAP1 DUP2 AND PUSH1 0x3F ADD AND DUP2 ADD SWAP1 DUP4 DUP3 GT DUP2 DUP4 LT OR ISZERO PUSH2 0x223 JUMPI PUSH2 0x223 PUSH2 0x175 JUMP JUMPDEST DUP2 PUSH1 0x40 MSTORE DUP3 DUP2 MSTORE DUP11 PUSH1 0x20 DUP5 DUP8 ADD ADD GT ISZERO PUSH2 0x23C JUMPI PUSH1 0x0 DUP1 REVERT JUMPDEST DUP3 PUSH1 0x20 DUP7 ADD PUSH1 0x20 DUP4 ADD CALLDATACOPY PUSH1 0x0 PUSH1 0x20 DUP5 DUP4 ADD ADD MSTORE DUP1 SWAP6 POP POP POP POP POP POP SWAP3 SWAP6 SWAP2 SWAP5 POP SWAP3 POP JUMP JUMPDEST PUSH1 0x0 DUP1 PUSH1 0x0 PUSH1 0x60 DUP5 DUP7 SUB SLT ISZERO PUSH2 0x275 JUMPI PUSH1 0x0 DUP1 REVERT JUMPDEST PUSH2 0x27E DUP5 PUSH2 0x159 JUMP JUMPDEST SWAP6 PUSH1 0x20 DUP6 ADD CALLDATALOAD SWAP6 POP PUSH1 0x40 SWAP1 SWAP5 ADD CALLDATALOAD SWAP4 SWAP3 POP POP POP JUMP JUMPDEST PUSH1 0x1 DUP1 PUSH1 0xA0 SHL SUB DUP6 AND DUP2 MSTORE PUSH1 0x0 PUSH1 0x20 DUP6 DUP2 DUP5 ADD MSTORE DUP5 PUSH1 0x40 DUP5 ADD MSTORE PUSH1 0x80 PUSH1 0x60 DUP5 ADD MSTORE DUP4 MLOAD DUP1 PUSH1 0x80 DUP6 ADD MSTORE PUSH1 0x0 JUMPDEST DUP2 DUP2 LT ISZERO PUSH2 0x2DB JUMPI DUP6 DUP2 ADD DUP4 ADD MLOAD DUP6 DUP3 ADD PUSH1 0xA0 ADD MSTORE DUP3 ADD PUSH2 0x2BF JUMP JUMPDEST POP PUSH1 0x0 PUSH1 0xA0 DUP3 DUP7 ADD ADD MSTORE PUSH1 0xA0 PUSH1 0x1F NOT PUSH1 0x1F DUP4 ADD AND DUP6 ADD ADD SWAP3 POP POP POP SWAP6 SWAP5 POP POP POP POP POP JUMP INVALID LOG2 PUSH5 0x6970667358 0x22 SLT KECCAK256 0xBA SLOAD 0xAD SWAP15 PUSH10 0xD2340A30AF7D616124AD JUMPDEST GT DUP3 0x26 PUSH29 0xBC02C711B9BFF8756964BBAE64736F6C63430008120033000000000000 "
		},
		"gasEstimates": {
			"creation": {
				"codeDepositCost": "164200",
				"executionCost": "208",
				"totalCost": "164408"
			},
			"external": {
				"_callback(address,int256,int256,bytes)": "infinite",
				"callback()": "2303",
				"initializeMonitoring(address,int256,int256)": "2003"
			}
		},
		"methodIdentifiers": {
			"_callback(address,int256,int256,bytes)": "8a6d51b9",
			"callback()": "083b2732",
			"initializeMonitoring(address,int256,int256)": "f75c05b0"
		}
	},
	"abi": [
		{
			"anonymous": false,
			"inputs": [
				{
					"indexed": false,
					"internalType": "address",
					"name": "obligationsContract",
					"type": "address"
				},
				{
					"indexed": false,
					"internalType": "int256",
					"name": "idMonitoring",
					"type": "int256"
				},
				{
					"indexed": false,
					"internalType": "int256",
					"name": "idResource",
					"type": "int256"
				}
			],
			"name": "NewMonitoring",
			"type": "event"
		},
		{
			"inputs": [
				{
					"internalType": "address",
					"name": "obligationsContract",
					"type": "address"
				},
				{
					"internalType": "int256",
					"name": "idMonitoring",
					"type": "int256"
				},
				{
					"internalType": "int256",
					"name": "idResource",
					"type": "int256"
				},
				{
					"internalType": "bytes",
					"name": "response",
					"type": "bytes"
				}
			],
			"name": "_callback",
			"outputs": [],
			"stateMutability": "nonpayable",
			"type": "function"
		},
		{
			"inputs": [],
			"name": "callback",
			"outputs": [
				{
					"internalType": "contract isUsingDTmonitoringOracle",
					"name": "",
					"type": "address"
				}
			],
			"stateMutability": "view",
			"type": "function"
		},
		{
			"inputs": [
				{
					"internalType": "address",
					"name": "obligationsContract",
					"type": "address"
				},
				{
					"internalType": "int256",
					"name": "idMonitoring",
					"type": "int256"
				},
				{
					"internalType": "int256",
					"name": "idResource",
					"type": "int256"
				}
			],
			"name": "initializeMonitoring",
			"outputs": [],
			"stateMutability": "nonpayable",
			"type": "function"
		}
	]
}