{
	"data": {
		"bytecode": {
			"linkReferences": {},
			"object": "608060405234801561001057600080fd5b5060405161072e38038061072e833981810160405281019061003291906100e9565b806000806101000a81548173ffffffffffffffffffffffffffffffffffffffff021916908373ffffffffffffffffffffffffffffffffffffffff1602179055506601c6bf5263400060018190555050610116565b600080fd5b600073ffffffffffffffffffffffffffffffffffffffff82169050919050565b60006100b68261008b565b9050919050565b6100c6816100ab565b81146100d157600080fd5b50565b6000815190506100e3816100bd565b92915050565b6000602082840312156100ff576100fe610086565b5b600061010d848285016100d4565b91505092915050565b610609806101256000396000f3fe6080604052600436106100295760003560e01c80632289b1551461002e5780633610724e14610059575b600080fd5b34801561003a57600080fd5b50610043610089565b6040516100509190610284565b60405180910390f35b610073600480360381019061006e91906102d0565b61008f565b6040516100809190610318565b60405180910390f35b60015481565b6000818060008054906101000a900473ffffffffffffffffffffffffffffffffffffffff1673ffffffffffffffffffffffffffffffffffffffff166370a08231306040518263ffffffff1660e01b81526004016100ec9190610374565b602060405180830381865afa158015610109573d6000803e3d6000fd5b505050506040513d601f19601f8201168201806040525081019061012d91906103a4565b101561016e576040517f08c379a000000000000000000000000000000000000000000000000000000000815260040161016590610454565b60405180910390fd5b348360015461017d91906104a3565b808210156101c0576040517f08c379a00000000000000000000000000000000000000000000000000000000081526004016101b790610531565b60405180910390fd5b60008054906101000a900473ffffffffffffffffffffffffffffffffffffffff1673ffffffffffffffffffffffffffffffffffffffff1663a9059cbb33876040518363ffffffff1660e01b815260040161021b929190610551565b6020604051808303816000875af115801561023a573d6000803e3d6000fd5b505050506040513d601f19601f8201168201806040525081019061025e91906105a6565b5060019350505050919050565b6000819050919050565b61027e8161026b565b82525050565b60006020820190506102996000830184610275565b92915050565b600080fd5b6102ad8161026b565b81146102b857600080fd5b50565b6000813590506102ca816102a4565b92915050565b6000602082840312156102e6576102e561029f565b5b60006102f4848285016102bb565b91505092915050565b60008115159050919050565b610312816102fd565b82525050565b600060208201905061032d6000830184610309565b92915050565b600073ffffffffffffffffffffffffffffffffffffffff82169050919050565b600061035e82610333565b9050919050565b61036e81610353565b82525050565b60006020820190506103896000830184610365565b92915050565b60008151905061039e816102a4565b92915050565b6000602082840312156103ba576103b961029f565b5b60006103c88482850161038f565b91505092915050565b600082825260208201905092915050565b7f5468652072657175657374656420616d6f756e74206973206e6f74206176616960008201527f6c61626c65000000000000000000000000000000000000000000000000000000602082015250565b600061043e6025836103d1565b9150610449826103e2565b604082019050919050565b6000602082019050818103600083015261046d81610431565b9050919050565b7f4e487b7100000000000000000000000000000000000000000000000000000000600052601160045260246000fd5b60006104ae8261026b565b91506104b98361026b565b92508282026104c78161026b565b915082820484148315176104de576104dd610474565b5b5092915050565b7f496e73756666696369656e7420616d6f756e74206f6620657468657200000000600082015250565b600061051b601c836103d1565b9150610526826104e5565b602082019050919050565b6000602082019050818103600083015261054a8161050e565b9050919050565b60006040820190506105666000830185610365565b6105736020830184610275565b9392505050565b610583816102fd565b811461058e57600080fd5b50565b6000815190506105a08161057a565b92915050565b6000602082840312156105bc576105bb61029f565b5b60006105ca84828501610591565b9150509291505056fea26469706673582212202feb13d68edfda9aedd4ade595fa3b5c72abe6c4fd5cc1d0a7e3166a54f24b1264736f6c63430008120033",
			"opcodes": "PUSH1 0x80 PUSH1 0x40 MSTORE CALLVALUE DUP1 ISZERO PUSH2 0x10 JUMPI PUSH1 0x0 DUP1 REVERT JUMPDEST POP PUSH1 0x40 MLOAD PUSH2 0x72E CODESIZE SUB DUP1 PUSH2 0x72E DUP4 CODECOPY DUP2 DUP2 ADD PUSH1 0x40 MSTORE DUP2 ADD SWAP1 PUSH2 0x32 SWAP2 SWAP1 PUSH2 0xE9 JUMP JUMPDEST DUP1 PUSH1 0x0 DUP1 PUSH2 0x100 EXP DUP2 SLOAD DUP2 PUSH20 0xFFFFFFFFFFFFFFFFFFFFFFFFFFFFFFFFFFFFFFFF MUL NOT AND SWAP1 DUP4 PUSH20 0xFFFFFFFFFFFFFFFFFFFFFFFFFFFFFFFFFFFFFFFF AND MUL OR SWAP1 SSTORE POP PUSH7 0x1C6BF52634000 PUSH1 0x1 DUP2 SWAP1 SSTORE POP POP PUSH2 0x116 JUMP JUMPDEST PUSH1 0x0 DUP1 REVERT JUMPDEST PUSH1 0x0 PUSH20 0xFFFFFFFFFFFFFFFFFFFFFFFFFFFFFFFFFFFFFFFF DUP3 AND SWAP1 POP SWAP2 SWAP1 POP JUMP JUMPDEST PUSH1 0x0 PUSH2 0xB6 DUP3 PUSH2 0x8B JUMP JUMPDEST SWAP1 POP SWAP2 SWAP1 POP JUMP JUMPDEST PUSH2 0xC6 DUP2 PUSH2 0xAB JUMP JUMPDEST DUP2 EQ PUSH2 0xD1 JUMPI PUSH1 0x0 DUP1 REVERT JUMPDEST POP JUMP JUMPDEST PUSH1 0x0 DUP2 MLOAD SWAP1 POP PUSH2 0xE3 DUP2 PUSH2 0xBD JUMP JUMPDEST SWAP3 SWAP2 POP POP JUMP JUMPDEST PUSH1 0x0 PUSH1 0x20 DUP3 DUP5 SUB SLT ISZERO PUSH2 0xFF JUMPI PUSH2 0xFE PUSH2 0x86 JUMP JUMPDEST JUMPDEST PUSH1 0x0 PUSH2 0x10D DUP5 DUP3 DUP6 ADD PUSH2 0xD4 JUMP JUMPDEST SWAP2 POP POP SWAP3 SWAP2 POP POP JUMP JUMPDEST PUSH2 0x609 DUP1 PUSH2 0x125 PUSH1 0x0 CODECOPY PUSH1 0x0 RETURN INVALID PUSH1 0x80 PUSH1 0x40 MSTORE PUSH1 0x4 CALLDATASIZE LT PUSH2 0x29 JUMPI PUSH1 0x0 CALLDATALOAD PUSH1 0xE0 SHR DUP1 PUSH4 0x2289B155 EQ PUSH2 0x2E JUMPI DUP1 PUSH4 0x3610724E EQ PUSH2 0x59 JUMPI JUMPDEST PUSH1 0x0 DUP1 REVERT JUMPDEST CALLVALUE DUP1 ISZERO PUSH2 0x3A JUMPI PUSH1 0x0 DUP1 REVERT JUMPDEST POP PUSH2 0x43 PUSH2 0x89 JUMP JUMPDEST PUSH1 0x40 MLOAD PUSH2 0x50 SWAP2 SWAP1 PUSH2 0x284 JUMP JUMPDEST PUSH1 0x40 MLOAD DUP1 SWAP2 SUB SWAP1 RETURN JUMPDEST PUSH2 0x73 PUSH1 0x4 DUP1 CALLDATASIZE SUB DUP2 ADD SWAP1 PUSH2 0x6E SWAP2 SWAP1 PUSH2 0x2D0 JUMP JUMPDEST PUSH2 0x8F JUMP JUMPDEST PUSH1 0x40 MLOAD PUSH2 0x80 SWAP2 SWAP1 PUSH2 0x318 JUMP JUMPDEST PUSH1 0x40 MLOAD DUP1 SWAP2 SUB SWAP1 RETURN JUMPDEST PUSH1 0x1 SLOAD DUP2 JUMP JUMPDEST PUSH1 0x0 DUP2 DUP1 PUSH1 0x0 DUP1 SLOAD SWAP1 PUSH2 0x100 EXP SWAP1 DIV PUSH20 0xFFFFFFFFFFFFFFFFFFFFFFFFFFFFFFFFFFFFFFFF AND PUSH20 0xFFFFFFFFFFFFFFFFFFFFFFFFFFFFFFFFFFFFFFFF AND PUSH4 0x70A08231 ADDRESS PUSH1 0x40 MLOAD DUP3 PUSH4 0xFFFFFFFF AND PUSH1 0xE0 SHL DUP2 MSTORE PUSH1 0x4 ADD PUSH2 0xEC SWAP2 SWAP1 PUSH2 0x374 JUMP JUMPDEST PUSH1 0x20 PUSH1 0x40 MLOAD DUP1 DUP4 SUB DUP2 DUP7 GAS STATICCALL ISZERO DUP1 ISZERO PUSH2 0x109 JUMPI RETURNDATASIZE PUSH1 0x0 DUP1 RETURNDATACOPY RETURNDATASIZE PUSH1 0x0 REVERT JUMPDEST POP POP POP POP PUSH1 0x40 MLOAD RETURNDATASIZE PUSH1 0x1F NOT PUSH1 0x1F DUP3 ADD AND DUP3 ADD DUP1 PUSH1 0x40 MSTORE POP DUP2 ADD SWAP1 PUSH2 0x12D SWAP2 SWAP1 PUSH2 0x3A4 JUMP JUMPDEST LT ISZERO PUSH2 0x16E JUMPI PUSH1 0x40 MLOAD PUSH32 0x8C379A000000000000000000000000000000000000000000000000000000000 DUP2 MSTORE PUSH1 0x4 ADD PUSH2 0x165 SWAP1 PUSH2 0x454 JUMP JUMPDEST PUSH1 0x40 MLOAD DUP1 SWAP2 SUB SWAP1 REVERT JUMPDEST CALLVALUE DUP4 PUSH1 0x1 SLOAD PUSH2 0x17D SWAP2 SWAP1 PUSH2 0x4A3 JUMP JUMPDEST DUP1 DUP3 LT ISZERO PUSH2 0x1C0 JUMPI PUSH1 0x40 MLOAD PUSH32 0x8C379A000000000000000000000000000000000000000000000000000000000 DUP2 MSTORE PUSH1 0x4 ADD PUSH2 0x1B7 SWAP1 PUSH2 0x531 JUMP JUMPDEST PUSH1 0x40 MLOAD DUP1 SWAP2 SUB SWAP1 REVERT JUMPDEST PUSH1 0x0 DUP1 SLOAD SWAP1 PUSH2 0x100 EXP SWAP1 DIV PUSH20 0xFFFFFFFFFFFFFFFFFFFFFFFFFFFFFFFFFFFFFFFF AND PUSH20 0xFFFFFFFFFFFFFFFFFFFFFFFFFFFFFFFFFFFFFFFF AND PUSH4 0xA9059CBB CALLER DUP8 PUSH1 0x40 MLOAD DUP4 PUSH4 0xFFFFFFFF AND PUSH1 0xE0 SHL DUP2 MSTORE PUSH1 0x4 ADD PUSH2 0x21B SWAP3 SWAP2 SWAP1 PUSH2 0x551 JUMP JUMPDEST PUSH1 0x20 PUSH1 0x40 MLOAD DUP1 DUP4 SUB DUP2 PUSH1 0x0 DUP8 GAS CALL ISZERO DUP1 ISZERO PUSH2 0x23A JUMPI RETURNDATASIZE PUSH1 0x0 DUP1 RETURNDATACOPY RETURNDATASIZE PUSH1 0x0 REVERT JUMPDEST POP POP POP POP PUSH1 0x40 MLOAD RETURNDATASIZE PUSH1 0x1F NOT PUSH1 0x1F DUP3 ADD AND DUP3 ADD DUP1 PUSH1 0x40 MSTORE POP DUP2 ADD SWAP1 PUSH2 0x25E SWAP2 SWAP1 PUSH2 0x5A6 JUMP JUMPDEST POP PUSH1 0x1 SWAP4 POP POP POP POP SWAP2 SWAP1 POP JUMP JUMPDEST PUSH1 0x0 DUP2 SWAP1 POP SWAP2 SWAP1 POP JUMP JUMPDEST PUSH2 0x27E DUP2 PUSH2 0x26B JUMP JUMPDEST DUP3 MSTORE POP POP JUMP JUMPDEST PUSH1 0x0 PUSH1 0x20 DUP3 ADD SWAP1 POP PUSH2 0x299 PUSH1 0x0 DUP4 ADD DUP5 PUSH2 0x275 JUMP JUMPDEST SWAP3 SWAP2 POP POP JUMP JUMPDEST PUSH1 0x0 DUP1 REVERT JUMPDEST PUSH2 0x2AD DUP2 PUSH2 0x26B JUMP JUMPDEST DUP2 EQ PUSH2 0x2B8 JUMPI PUSH1 0x0 DUP1 REVERT JUMPDEST POP JUMP JUMPDEST PUSH1 0x0 DUP2 CALLDATALOAD SWAP1 POP PUSH2 0x2CA DUP2 PUSH2 0x2A4 JUMP JUMPDEST SWAP3 SWAP2 POP POP JUMP JUMPDEST PUSH1 0x0 PUSH1 0x20 DUP3 DUP5 SUB SLT ISZERO PUSH2 0x2E6 JUMPI PUSH2 0x2E5 PUSH2 0x29F JUMP JUMPDEST JUMPDEST PUSH1 0x0 PUSH2 0x2F4 DUP5 DUP3 DUP6 ADD PUSH2 0x2BB JUMP JUMPDEST SWAP2 POP POP SWAP3 SWAP2 POP POP JUMP JUMPDEST PUSH1 0x0 DUP2 ISZERO ISZERO SWAP1 POP SWAP2 SWAP1 POP JUMP JUMPDEST PUSH2 0x312 DUP2 PUSH2 0x2FD JUMP JUMPDEST DUP3 MSTORE POP POP JUMP JUMPDEST PUSH1 0x0 PUSH1 0x20 DUP3 ADD SWAP1 POP PUSH2 0x32D PUSH1 0x0 DUP4 ADD DUP5 PUSH2 0x309 JUMP JUMPDEST SWAP3 SWAP2 POP POP JUMP JUMPDEST PUSH1 0x0 PUSH20 0xFFFFFFFFFFFFFFFFFFFFFFFFFFFFFFFFFFFFFFFF DUP3 AND SWAP1 POP SWAP2 SWAP1 POP JUMP JUMPDEST PUSH1 0x0 PUSH2 0x35E DUP3 PUSH2 0x333 JUMP JUMPDEST SWAP1 POP SWAP2 SWAP1 POP JUMP JUMPDEST PUSH2 0x36E DUP2 PUSH2 0x353 JUMP JUMPDEST DUP3 MSTORE POP POP JUMP JUMPDEST PUSH1 0x0 PUSH1 0x20 DUP3 ADD SWAP1 POP PUSH2 0x389 PUSH1 0x0 DUP4 ADD DUP5 PUSH2 0x365 JUMP JUMPDEST SWAP3 SWAP2 POP POP JUMP JUMPDEST PUSH1 0x0 DUP2 MLOAD SWAP1 POP PUSH2 0x39E DUP2 PUSH2 0x2A4 JUMP JUMPDEST SWAP3 SWAP2 POP POP JUMP JUMPDEST PUSH1 0x0 PUSH1 0x20 DUP3 DUP5 SUB SLT ISZERO PUSH2 0x3BA JUMPI PUSH2 0x3B9 PUSH2 0x29F JUMP JUMPDEST JUMPDEST PUSH1 0x0 PUSH2 0x3C8 DUP5 DUP3 DUP6 ADD PUSH2 0x38F JUMP JUMPDEST SWAP2 POP POP SWAP3 SWAP2 POP POP JUMP JUMPDEST PUSH1 0x0 DUP3 DUP3 MSTORE PUSH1 0x20 DUP3 ADD SWAP1 POP SWAP3 SWAP2 POP POP JUMP JUMPDEST PUSH32 0x5468652072657175657374656420616D6F756E74206973206E6F742061766169 PUSH1 0x0 DUP3 ADD MSTORE PUSH32 0x6C61626C65000000000000000000000000000000000000000000000000000000 PUSH1 0x20 DUP3 ADD MSTORE POP JUMP JUMPDEST PUSH1 0x0 PUSH2 0x43E PUSH1 0x25 DUP4 PUSH2 0x3D1 JUMP JUMPDEST SWAP2 POP PUSH2 0x449 DUP3 PUSH2 0x3E2 JUMP JUMPDEST PUSH1 0x40 DUP3 ADD SWAP1 POP SWAP2 SWAP1 POP JUMP JUMPDEST PUSH1 0x0 PUSH1 0x20 DUP3 ADD SWAP1 POP DUP2 DUP2 SUB PUSH1 0x0 DUP4 ADD MSTORE PUSH2 0x46D DUP2 PUSH2 0x431 JUMP JUMPDEST SWAP1 POP SWAP2 SWAP1 POP JUMP JUMPDEST PUSH32 0x4E487B7100000000000000000000000000000000000000000000000000000000 PUSH1 0x0 MSTORE PUSH1 0x11 PUSH1 0x4 MSTORE PUSH1 0x24 PUSH1 0x0 REVERT JUMPDEST PUSH1 0x0 PUSH2 0x4AE DUP3 PUSH2 0x26B JUMP JUMPDEST SWAP2 POP PUSH2 0x4B9 DUP4 PUSH2 0x26B JUMP JUMPDEST SWAP3 POP DUP3 DUP3 MUL PUSH2 0x4C7 DUP2 PUSH2 0x26B JUMP JUMPDEST SWAP2 POP DUP3 DUP3 DIV DUP5 EQ DUP4 ISZERO OR PUSH2 0x4DE JUMPI PUSH2 0x4DD PUSH2 0x474 JUMP JUMPDEST JUMPDEST POP SWAP3 SWAP2 POP POP JUMP JUMPDEST PUSH32 0x496E73756666696369656E7420616D6F756E74206F6620657468657200000000 PUSH1 0x0 DUP3 ADD MSTORE POP JUMP JUMPDEST PUSH1 0x0 PUSH2 0x51B PUSH1 0x1C DUP4 PUSH2 0x3D1 JUMP JUMPDEST SWAP2 POP PUSH2 0x526 DUP3 PUSH2 0x4E5 JUMP JUMPDEST PUSH1 0x20 DUP3 ADD SWAP1 POP SWAP2 SWAP1 POP JUMP JUMPDEST PUSH1 0x0 PUSH1 0x20 DUP3 ADD SWAP1 POP DUP2 DUP2 SUB PUSH1 0x0 DUP4 ADD MSTORE PUSH2 0x54A DUP2 PUSH2 0x50E JUMP JUMPDEST SWAP1 POP SWAP2 SWAP1 POP JUMP JUMPDEST PUSH1 0x0 PUSH1 0x40 DUP3 ADD SWAP1 POP PUSH2 0x566 PUSH1 0x0 DUP4 ADD DUP6 PUSH2 0x365 JUMP JUMPDEST PUSH2 0x573 PUSH1 0x20 DUP4 ADD DUP5 PUSH2 0x275 JUMP JUMPDEST SWAP4 SWAP3 POP POP POP JUMP JUMPDEST PUSH2 0x583 DUP2 PUSH2 0x2FD JUMP JUMPDEST DUP2 EQ PUSH2 0x58E JUMPI PUSH1 0x0 DUP1 REVERT JUMPDEST POP JUMP JUMPDEST PUSH1 0x0 DUP2 MLOAD SWAP1 POP PUSH2 0x5A0 DUP2 PUSH2 0x57A JUMP JUMPDEST SWAP3 SWAP2 POP POP JUMP JUMPDEST PUSH1 0x0 PUSH1 0x20 DUP3 DUP5 SUB SLT ISZERO PUSH2 0x5BC JUMPI PUSH2 0x5BB PUSH2 0x29F JUMP JUMPDEST JUMPDEST PUSH1 0x0 PUSH2 0x5CA DUP5 DUP3 DUP6 ADD PUSH2 0x591 JUMP JUMPDEST SWAP2 POP POP SWAP3 SWAP2 POP POP JUMP INVALID LOG2 PUSH5 0x6970667358 0x22 SLT KECCAK256 0x2F 0xEB SGT 0xD6 DUP15 0xDF 0xDA SWAP11 0xED 0xD4 0xAD 0xE5 SWAP6 STATICCALL EXTCODESIZE 0x5C PUSH19 0xABE6C4FD5CC1D0A7E3166A54F24B1264736F6C PUSH4 0x43000812 STOP CALLER "
		},
		"gasEstimates": {
			"creation": {
				"codeDepositCost": "309000",
				"executionCost": "infinite",
				"totalCost": "infinite"
			},
			"external": {
				"buyTokens(uint256)": "infinite",
				"weiValue()": "2407"
			}
		},
		"methodIdentifiers": {
			"buyTokens(uint256)": "3610724e",
			"weiValue()": "2289b155"
		}
	},
	"abi": [
		{
			"inputs": [
				{
					"internalType": "address",
					"name": "tokenAddress",
					"type": "address"
				}
			],
			"stateMutability": "nonpayable",
			"type": "constructor"
		},
		{
			"inputs": [
				{
					"internalType": "uint256",
					"name": "amount",
					"type": "uint256"
				}
			],
			"name": "buyTokens",
			"outputs": [
				{
					"internalType": "bool",
					"name": "success",
					"type": "bool"
				}
			],
			"stateMutability": "payable",
			"type": "function"
		},
		{
			"inputs": [],
			"name": "weiValue",
			"outputs": [
				{
					"internalType": "uint256",
					"name": "",
					"type": "uint256"
				}
			],
			"stateMutability": "view",
			"type": "function"
		}
	]
}