{
	"data": {
		"bytecode": {
			"linkReferences": {},
			"object": "608060405260008055600060015534801561001957600080fd5b506040516139aa3803806139aa83398101604081905261003891610097565b600480546001600160a01b0319166001600160a01b03831690811790915560008080556001556040519081527febfb412ded3f9cdb15b75308503b279416e74d382f6ce86eedee0ef3130fa9e39060200160405180910390a1506100c7565b6000602082840312156100a957600080fd5b81516001600160a01b03811681146100c057600080fd5b9392505050565b6138d4806100d66000396000f3fe60806040523480156200001157600080fd5b50600436106200006a5760003560e01c80631406ddd8146200006f578063418d91ee146200009e57806347cd639b14620000c45780638ec8036914620000ea578063baf5e78b1462000103578063c28e99eb1462000130575b600080fd5b620000866200008036600462000e92565b62000147565b60405162000095919062000f42565b60405180910390f35b620000b5620000af36600462001053565b62000425565b60405190815260200162000095565b620000db620000d5366004620010cd565b62000605565b604051620000959190620010e7565b62000101620000fb366004620010cd565b620008db565b005b60045462000117906001600160a01b031681565b6040516001600160a01b03909116815260200162000095565b620000b56200014136600462001103565b62000ab9565b60606000805b600354811015620001e35784600382815481106200016f576200016f62001157565b906000526020600020906005020160030154148015620001b8575060038181548110620001a057620001a062001157565b600091825260209091206004600590920201015460ff165b15620001ce5781620001ca8162001183565b9250505b80620001da8162001183565b9150506200014d565b506000808267ffffffffffffffff81111562000203576200020362000fa8565b6040519080825280602002602001820160405280156200024057816020015b6200022c62000e4a565b815260200190600190039081620002225790505b50905060005b6003548110156200041b57866003828154811062000268576200026862001157565b906000526020600020906005020160030154148015620002b157506003818154811062000299576200029962001157565b600091825260209091206004600590920201015460ff165b15620004065760038181548110620002cd57620002cd62001157565b90600052602060002090600502016040518060a0016040529081600082015481526020016001820160009054906101000a90046001600160a01b03166001600160a01b03166001600160a01b0316815260200160028201805462000331906200119f565b80601f01602080910402602001604051908101604052809291908181526020018280546200035f906200119f565b8015620003b05780601f106200038457610100808354040283529160200191620003b0565b820191906000526020600020905b8154815290600101906020018083116200039257829003601f168201915b50505091835250506003820154602082015260049091015460ff1615156040909101528251839085908110620003ea57620003ea62001157565b60200260200101819052508280620004029062001183565b9350505b80620004128162001183565b91505062000246565b5095945050505050565b600080546040805160c08101909152818152600290602081018683811115620004525762000452620011db565b8152336020808301919091526001600160a01b0387166040830152606082018990526001608090920182905283548083018555600094855293819020835160059095020193845582015183820180549394939192909160ff191690836002811115620004c257620004c2620011db565b02179055506040820151600182018054610100600160a81b0319166101006001600160a01b039384160217905560608301516002830180546001600160a01b031916919092161790556080820151600382019062000521908262001244565b5060a091909101516004918201805460ff191691151591909117905554604051600091309186916001600160a01b0316906200055d9062000e84565b6001600160a01b03938416815291831660208301529091166040820152606001604051809103906000f0801580156200059a573d6000803e3d6000fd5b50600054604080519182526001600160a01b03831660208301529192507ff64ed8c0e4c69923a4c505b41f76ac3f79cba844dc300239843f8f690a116bfd910160405180910390a16001600080828254620005f6919062001311565b90915550919695505050505050565b6200060f62000e4a565b600354829081106200063e5760405162461bcd60e51b815260040162000635906200133c565b60405180910390fd5b60006003828154811062000656576200065662001157565b90600052602060002090600502016040518060a0016040529081600082015481526020016001820160009054906101000a90046001600160a01b03166001600160a01b03166001600160a01b03168152602001600282018054620006ba906200119f565b80601f0160208091040260200160405190810160405280929190818152602001828054620006e8906200119f565b8015620007395780601f106200070d5761010080835404028352916020019162000739565b820191906000526020600020905b8154815290600101906020018083116200071b57829003601f168201915b50505091835250506003820154602082015260049091015460ff16151560409091015260808101519091501515600114620007b75760405162461bcd60e51b815260206004820152601a60248201527f546865207265736f75726365206973206e6f7420616374697665000000000000604482015260640162000635565b60038481548110620007cd57620007cd62001157565b90600052602060002090600502016040518060a0016040529081600082015481526020016001820160009054906101000a90046001600160a01b03166001600160a01b03166001600160a01b0316815260200160028201805462000831906200119f565b80601f01602080910402602001604051908101604052809291908181526020018280546200085f906200119f565b8015620008b05780601f106200088457610100808354040283529160200191620008b0565b820191906000526020600020905b8154815290600101906020018083116200089257829003601f168201915b50505091835250506003820154602082015260049091015460ff161515604090910152949350505050565b60035481908110620009015760405162461bcd60e51b815260040162000635906200133c565b60006003828154811062000919576200091962001157565b90600052602060002090600502016040518060a0016040529081600082015481526020016001820160009054906101000a90046001600160a01b03166001600160a01b03166001600160a01b031681526020016002820180546200097d906200119f565b80601f0160208091040260200160405190810160405280929190818152602001828054620009ab906200119f565b8015620009fc5780601f10620009d057610100808354040283529160200191620009fc565b820191906000526020600020905b815481529060010190602001808311620009de57829003601f168201915b50505091835250506003820154602082015260049091015460ff1615156040909101526080810151909150151560011462000a7a5760405162461bcd60e51b815260206004820152601a60248201527f546865207265736f75726365206973206e6f7420616374697665000000000000604482015260640162000635565b60006003848154811062000a925762000a9262001157565b60009182526020909120600590910201600401805460ff1916911515919091179055505050565b60008333600280549050821062000ae45760405162461bcd60e51b815260040162000635906200133c565b60006002838154811062000afc5762000afc62001157565b90600052602060002090600502016040518060c0016040529081600082015481526020016001820160009054906101000a900460ff16600281111562000b465762000b46620011db565b600281111562000b5a5762000b5a620011db565b815260018201546001600160a01b0361010090910481166020830152600283015416604082015260038201805460609092019162000b98906200119f565b80601f016020809104026020016040519081016040528092919081815260200182805462000bc6906200119f565b801562000c175780601f1062000beb5761010080835404028352916020019162000c17565b820191906000526020600020905b81548152906001019060200180831162000bf957829003601f168201915b50505091835250506004919091015460ff16151560209091015260a0810151909150151560011462000c845760405162461bcd60e51b815260206004820152601560248201527454686520706f64206973206e6f742061637469766560581b604482015260640162000635565b816001600160a01b031681606001516001600160a01b03161462000ceb5760405162461bcd60e51b815260206004820152601960248201527f5468652073656e646572206973206e6f742074686520706f6400000000000000604482015260640162000635565b600180546040805160a08101825282815233602082019081529181018a8152606082018c90526080820185905260038054958601815560005281517fc2575a0e9e593c00f959f8c92f12db2869c3395a3b0502d05e2516446f71f85b600590960295860190815592517fc2575a0e9e593c00f959f8c92f12db2869c3395a3b0502d05e2516446f71f85c860180546001600160a01b0319166001600160a01b0390921691909117905551929390927fc2575a0e9e593c00f959f8c92f12db2869c3395a3b0502d05e2516446f71f85d9091019062000dca908262001244565b50606082015160038201556080909101516004909101805460ff19169115159190911790556001546040519081527f2a681115d6fef2f6907f98c99cfe2fe0c5937ca43dc0cf7263bfc96b5a7102509060200160405180910390a1600180600082825462000e39919062001311565b909155509098975050505050505050565b6040518060a001604052806000815260200160006001600160a01b0316815260200160608152602001600081526020016000151581525090565b61252b806200137483390190565b6000806040838503121562000ea657600080fd5b50508035926020909101359150565b805182526000602060018060a01b03818401511681850152604083015160a0604086015280518060a087015260005b8181101562000f025782810184015187820160c00152830162000ee4565b50600060c08288010152606085015160608701526080850151925062000f2c608087018415159052565b601f01601f19169490940160c001949350505050565b6000602080830181845280855180835260408601915060408160051b870101925083870160005b8281101562000f9b57603f1988860301845262000f8885835162000eb5565b9450928501929085019060010162000f69565b5092979650505050505050565b634e487b7160e01b600052604160045260246000fd5b600082601f83011262000fd057600080fd5b813567ffffffffffffffff8082111562000fee5762000fee62000fa8565b604051601f8301601f19908116603f0116810190828211818310171562001019576200101962000fa8565b816040528381528660208588010111156200103357600080fd5b836020870160208301376000602085830101528094505050505092915050565b6000806000606084860312156200106957600080fd5b833567ffffffffffffffff8111156200108157600080fd5b6200108f8682870162000fbe565b935050602084013560038110620010a557600080fd5b915060408401356001600160a01b0381168114620010c257600080fd5b809150509250925092565b600060208284031215620010e057600080fd5b5035919050565b602081526000620010fc602083018462000eb5565b9392505050565b6000806000606084860312156200111957600080fd5b83359250602084013567ffffffffffffffff8111156200113857600080fd5b620011468682870162000fbe565b925050604084013590509250925092565b634e487b7160e01b600052603260045260246000fd5b634e487b7160e01b600052601160045260246000fd5b6000600182016200119857620011986200116d565b5060010190565b600181811c90821680620011b457607f821691505b602082108103620011d557634e487b7160e01b600052602260045260246000fd5b50919050565b634e487b7160e01b600052602160045260246000fd5b601f8211156200123f57600081815260208120601f850160051c810160208610156200121a5750805b601f850160051c820191505b818110156200123b5782815560010162001226565b5050505b505050565b815167ffffffffffffffff81111562001261576200126162000fa8565b62001279816200127284546200119f565b84620011f1565b602080601f831160018114620012b15760008415620012985750858301515b600019600386901b1c1916600185901b1785556200123b565b600085815260208120601f198616915b82811015620012e257888601518255948401946001909101908401620012c1565b5085821015620013015787850151600019600388901b60f8161c191681555b5050505050600190811b01905550565b80820182811260008312801582168215821617156200133457620013346200116d565b505092915050565b60208082526017908201527f54686520676976656e20696420697320756e6b6e6f776e00000000000000000060408201526060019056fe60806040526000600c553480156200001657600080fd5b506040516200252b3803806200252b833981016040819052620000399162000148565b60008054336001600160a01b031991821617909155600180549091166001600160a01b0385161790556200006d8262000096565b600e80546001600160a01b0319166001600160a01b039290921691909117905550620001929050565b6000546001600160a01b03163314620000f55760405162461bcd60e51b815260206004820181905260248201527f4f776e61626c653a2063616c6c6572206973206e6f7420746865206f776e6572604482015260640160405180910390fd5b6001600160a01b0381166200010957600080fd5b600080546001600160a01b0319166001600160a01b0392909216919091179055565b80516001600160a01b03811681146200014357600080fd5b919050565b6000806000606084860312156200015e57600080fd5b62000169846200012b565b925062000179602085016200012b565b915062000189604085016200012b565b90509250925092565b61238980620001a26000396000f3fe608060405234801561001057600080fd5b50600436106101585760003560e01c8063baf5e78b116100c3578063d9576e6b1161007c578063d9576e6b146102be578063e79ef91d146102d1578063f2fde38b146102d9578063f3523995146102ec578063f4c1094d146102ff578063f6ddceaf1461031257600080fd5b8063baf5e78b14610262578063bb96f2ec14610275578063bbeff41714610288578063c4f3c0f01461029b578063d2cb224e146102a3578063d7d42659146102b657600080fd5b806363d6afe21161011557806363d6afe2146101e95780638a6d51b9146101f15780638da5cb5b146102045780639c91214614610229578063a8a2a71f1461023c578063b87d94fe1461024f57600080fd5b80630b18f5091461015d578063236238871461017257806331ad8897146101855780633b5adb381461019857806342bd3885146101c1578063530ab840146101e1575b600080fd5b61017061016b366004611c76565b610348565b005b610170610180366004611c98565b6103b1565b610170610193366004611c98565b6103ed565b6101ab6101a6366004611cb1565b61052b565b6040516101b89190611ce9565b60405180910390f35b6101706101cf366004611c98565b6004805460ff19166001179055600355565b6101ab6107d1565b6101706108b7565b6101706101ff366004611e33565b6108f2565b6000546001600160a01b03165b6040516001600160a01b0390911681526020016101b8565b6101ab610237366004611cb1565b610933565b6101ab61024a366004611ed9565b610b7a565b61017061025d366004611c98565b610e55565b600e54610211906001600160a01b031681565b610170610283366004611c98565b61102e565b6101ab610296366004611cb1565b61116c565b610170611434565b6101706102b1366004611c98565b61146f565b6101706115ad565b6101706102cc366004611c98565b6115e4565b61017061166a565b6101706102e7366004611f05565b6116a5565b6101ab6102fa366004611c98565b611704565b61017061030d366004611c98565b6119be565b610338610320366004611c98565b6000908152600b602052604090206008015460ff1690565b60405190151581526020016101b8565b6000546001600160a01b0316331461037b5760405162461bcd60e51b815260040161037290611f22565b60405180910390fd5b6009805461010061ff001982168117835583929161ffff19161760018360038111156103a9576103a9611cd3565b021790555050565b6000546001600160a01b031633146103db5760405162461bcd60e51b815260040161037290611f22565b6006805460ff19166001179055600555565b6001546040516347cd639b60e01b81526004810183905282916000916001600160a01b03909116906347cd639b90602401600060405180830381865afa15801561043b573d6000803e3d6000fd5b505050506040513d6000823e601f3d908101601f191682016040526104639190810190611f8b565b90506104776000546001600160a01b031690565b6001600160a01b031681602001516001600160a01b0316146104ab5760405162461bcd60e51b815260040161037290612068565b6000546001600160a01b031633146104d55760405162461bcd60e51b815260040161037290611f22565b6000838152600b6020526040902060080154839060ff166105085760405162461bcd60e51b8152600401610372906120b4565b5050506000908152600b6020526040812060048101805460ff1916905560030155565b610533611af8565b6001546040516347cd639b60e01b81526004810185905284916000916001600160a01b03909116906347cd639b90602401600060405180830381865afa158015610581573d6000803e3d6000fd5b505050506040513d6000823e601f3d908101601f191682016040526105a99190810190611f8b565b90506105bd6000546001600160a01b031690565b6001600160a01b031681602001516001600160a01b0316146105f15760405162461bcd60e51b815260040161037290612068565b6000546001600160a01b0316331461061b5760405162461bcd60e51b815260040161037290611f22565b6000858152600b602052604090206008015460ff1615610679576040805180820182528581526001602080830182815260008a8152600b90925293902091519082015590516002909101805460ff19169115159190911790556106d8565b6000858152600b60208181526040808420600881018054600160ff1991821681179092558b835583518085019094528a8452838501828152968c9052949093529051918101919091559151600290920180549091169115159190911790555b6000858152600b6020908152604091829020825160c081018452815481528351808501855260018301548152600283015460ff908116151582860152828501919091528451808601865260038085015482526004850154831615158287015283870191909152855180870187526005850154815260068501548316151595810195909552606083019490945284518086019095526007830180549295939460808701949391928492169081111561079157610791611cd3565b60038111156107a2576107a2611cd3565b81529054610100900460ff90811615156020928301529183526008939093015416151591015295945050505050565b6107d9611af8565b6040805160c0810182526002805482528251808401845260038054825260045460ff908116151560208481019190915280860193909352855180870187526005548152600654821615158185015285870152855180870187526007548152600854821615159381019390935260608501929092528451808601909552600980549495939460808701949391928492919091169081111561087b5761087b611cd3565b600381111561088c5761088c611cd3565b8152905460ff6101009091048116151560209283015291835260089390930154161515910152919050565b6000546001600160a01b031633146108e15760405162461bcd60e51b815260040161037290611f22565b6006805460ff191690556000600555565b7f0ed626d88012d28d3424f277f9768a0a2ca34f8073eec8c80c3c7c8eff656e4683858360405161092593929190612146565b60405180910390a150505050565b61093b611af8565b6000546001600160a01b031633146109655760405162461bcd60e51b815260040161037290611f22565b6001546040516347cd639b60e01b81526004810185905284916000916001600160a01b03909116906347cd639b90602401600060405180830381865afa1580156109b3573d6000803e3d6000fd5b505050506040513d6000823e601f3d908101601f191682016040526109db9190810190611f8b565b90506109ef6000546001600160a01b031690565b6001600160a01b031681602001516001600160a01b031614610a235760405162461bcd60e51b815260040161037290612068565b6000858152600b602052604090206008015460ff1615610a8357604080518082018252858152600160208083019182526000898152600b909152929092209051600382015590516004909101805460ff19169115159190911790556106d8565b6000858152600b60208181526040808420600881018054600160ff1991821681179092558b8355835180850185528b8152808601838152978d9052958552945160038084018290559651600484018054909716901515908117909655835160c0810185528c815284518086018652928401548352600284015460ff9081161515848801528187019390935284518086018652918252958216151581860152858401528251808401845260058301548152600683015482161515948101949094526060850193909352815180830190925260078101805494959194608087019491928492919091169081111561079157610791611cd3565b610b82611af8565b6000546001600160a01b03163314610bac5760405162461bcd60e51b815260040161037290611f22565b6001546040516347cd639b60e01b81526004810185905284916000916001600160a01b03909116906347cd639b90602401600060405180830381865afa158015610bfa573d6000803e3d6000fd5b505050506040513d6000823e601f3d908101601f19168201604052610c229190810190611f8b565b9050610c366000546001600160a01b031690565b6001600160a01b031681602001516001600160a01b031614610c6a5760405162461bcd60e51b815260040161037290612068565b6000858152600b602052604090206008015460ff1615610d04576040518060400160405280856003811115610ca157610ca1611cd3565b8152600160209182018190526000888152600b90925260409091208251600790910180549092839160ff191690836003811115610ce057610ce0611cd3565b02179055506020919091015181549015156101000261ff00199091161790556106d8565b6000858152600b60205260409081902060088101805460ff19166001179055869055805180820190915280856003811115610d4157610d41611cd3565b8152600160209182018190526000888152600b90925260409091208251600790910180549092839160ff191690836003811115610d8057610d80611cd3565b021790555060209182015181549015156101000261ff00199091161790556000868152600b8252604090819020815160c081018352815481528251808401845260018301548152600283015460ff90811615158287015282860191909152835180850185526003808501548252600485015483161515828801528386019190915284518086018652600585015481526006850154831615159681019690965260608301959095528351808501909452600783018054929593946080870194909391928492169081111561079157610791611cd3565b6001546040516347cd639b60e01b81526004810183905282916000916001600160a01b03909116906347cd639b90602401600060405180830381865afa158015610ea3573d6000803e3d6000fd5b505050506040513d6000823e601f3d908101601f19168201604052610ecb9190810190611f8b565b9050610edf6000546001600160a01b031690565b6001600160a01b031681602001516001600160a01b031614610f135760405162461bcd60e51b815260040161037290612068565b6040805180820190915283815260606020808301828152600d805460018101825560009190915284517fd7b6990105719101dabeb77144f2a3385c8033acd3af97e9423a695e81ad1eb56002909202918201908155915180519495948594610f9f937fd7b6990105719101dabeb77144f2a3385c8033acd3af97e9423a695e81ad1eb601920190611b8b565b5050600e54600c54604051630f75c05b60e41b81523060048201526024810191909152604481018890526001600160a01b03909116915063f75c05b090606401600060405180830381600087803b158015610ff957600080fd5b505af115801561100d573d6000803e3d6000fd5b5050600c80549250905060006110228361218f565b91905055505050505050565b6001546040516347cd639b60e01b81526004810183905282916000916001600160a01b03909116906347cd639b90602401600060405180830381865afa15801561107c573d6000803e3d6000fd5b505050506040513d6000823e601f3d908101601f191682016040526110a49190810190611f8b565b90506110b86000546001600160a01b031690565b6001600160a01b031681602001516001600160a01b0316146110ec5760405162461bcd60e51b815260040161037290612068565b6000546001600160a01b031633146111165760405162461bcd60e51b815260040161037290611f22565b6000838152600b6020526040902060080154839060ff166111495760405162461bcd60e51b8152600401610372906120b4565b5050506000908152600b6020526040812060068101805460ff1916905560050155565b611174611af8565b6000546001600160a01b0316331461119e5760405162461bcd60e51b815260040161037290611f22565b6001546040516347cd639b60e01b81526004810185905284916000916001600160a01b03909116906347cd639b90602401600060405180830381865afa1580156111ec573d6000803e3d6000fd5b505050506040513d6000823e601f3d908101601f191682016040526112149190810190611f8b565b90506112286000546001600160a01b031690565b6001600160a01b031681602001516001600160a01b03161461125c5760405162461bcd60e51b815260040161037290612068565b83620151808082116112805760405162461bcd60e51b8152600401610372906121bc565b6000878152600b602052604090206008015460ff16156112e0576040805180820182528781526001602080830191825260008b8152600b909152929092209051600582015590516006909101805460ff1916911515919091179055611339565b6000878152600b60208181526040808420600881018054600160ff1991821681179092558d835583518085019094528c8452838501918252958d9052939092525160058201559051600690910180549092169015151790555b6000878152600b6020908152604091829020825160c081018452815481528351808501855260018301548152600283015460ff90811615158286015282850191909152845180860186526003808501548252600485015483161515828701528387019190915285518087018752600585015481526006850154831615159581019590955260608301949094528451808601909552600783018054929593946080870194939192849216908111156113f2576113f2611cd3565b600381111561140357611403611cd3565b81529054610100900460ff908116151560209283015291835260089390930154161515910152979650505050505050565b6000546001600160a01b0316331461145e5760405162461bcd60e51b815260040161037290611f22565b6004805460ff191690556000600355565b6000546001600160a01b031633146114995760405162461bcd60e51b815260040161037290611f22565b6001546040516347cd639b60e01b81526004810183905282916000916001600160a01b03909116906347cd639b90602401600060405180830381865afa1580156114e7573d6000803e3d6000fd5b505050506040513d6000823e601f3d908101601f1916820160405261150f9190810190611f8b565b90506115236000546001600160a01b031690565b6001600160a01b031681602001516001600160a01b0316146115575760405162461bcd60e51b815260040161037290612068565b6000838152600b6020526040902060080154839060ff1661158a5760405162461bcd60e51b8152600401610372906120b4565b5050506000908152600b6020526040812060028101805460ff1916905560010155565b6000546001600160a01b031633146115d75760405162461bcd60e51b815260040161037290611f22565b6009805461ffff19169055565b80620151808082116116085760405162461bcd60e51b8152600401610372906121bc565b6000546001600160a01b031633146116325760405162461bcd60e51b815260040161037290611f22565b620151808084116116555760405162461bcd60e51b8152600401610372906121bc565b50506008805460ff1916600117905550600755565b6000546001600160a01b031633146116945760405162461bcd60e51b815260040161037290611f22565b6008805460ff191690556000600755565b6000546001600160a01b031633146116cf5760405162461bcd60e51b815260040161037290611f22565b6001600160a01b0381166116e257600080fd5b600080546001600160a01b0319166001600160a01b0392909216919091179055565b61170c611af8565b6001546040516347cd639b60e01b81526004810184905283916000916001600160a01b03909116906347cd639b90602401600060405180830381865afa15801561175a573d6000803e3d6000fd5b505050506040513d6000823e601f3d908101601f191682016040526117829190810190611f8b565b90506117966000546001600160a01b031690565b6001600160a01b031681602001516001600160a01b0316146117ca5760405162461bcd60e51b815260040161037290612068565b6000848152600b602052604090206008015460ff16156118db576000848152600b6020908152604091829020825160c081018452815481528351808501855260018301548152600283015460ff908116151582860152828501919091528451808601865260038085015482526004850154831615158287015283870191909152855180870187526005850154815260068501548316151595810195909552606083019490945284518086019095526007830180549295939460808701949391928492169081111561189d5761189d611cd3565b60038111156118ae576118ae611cd3565b8152905460ff610100909104811615156020928301529183526008939093015416151591015292506119b7565b6040805160c0810182526002805482528251808401845260038054825260045460ff908116151560208481019190915280860193909352855180870187526005548152600654821615158185015285870152855180870187526007548152600854821615159381019390935260608501929092528451808601909552600980549495939460808701949391928492919091169081111561197d5761197d611cd3565b600381111561198e5761198e611cd3565b8152905460ff610100909104811615156020928301529183526008939093015416151591015292505b5050919050565b6001546040516347cd639b60e01b81526004810183905282916000916001600160a01b03909116906347cd639b90602401600060405180830381865afa158015611a0c573d6000803e3d6000fd5b505050506040513d6000823e601f3d908101601f19168201604052611a349190810190611f8b565b9050611a486000546001600160a01b031690565b6001600160a01b031681602001516001600160a01b031614611a7c5760405162461bcd60e51b815260040161037290612068565b6000546001600160a01b03163314611aa65760405162461bcd60e51b815260040161037290611f22565b6000838152600b6020526040902060080154839060ff16611ad95760405162461bcd60e51b8152600401610372906120b4565b5050506000908152600b60205260409020600701805461ffff19169055565b6040518060c0016040528060008152602001611b296040518060400160405280600081526020016000151581525090565b8152602001611b4d6040518060400160405280600081526020016000151581525090565b8152602001611b716040518060400160405280600081526020016000151581525090565b8152602001611b7e611be1565b8152600060209091015290565b828054828255906000526020600020908101928215611bd1579160200282015b82811115611bd15782518290611bc19082612293565b5091602001919060010190611bab565b50611bdd929150611bf3565b5090565b60408051808201909152806000611b7e565b80821115611bdd576000611c078282611c10565b50600101611bf3565b508054611c1c9061220a565b6000825580601f10611c2c575050565b601f016020900490600052602060002090810190611c4a9190611c4d565b50565b5b80821115611bdd5760008155600101611c4e565b803560048110611c7157600080fd5b919050565b600060208284031215611c8857600080fd5b611c9182611c62565b9392505050565b600060208284031215611caa57600080fd5b5035919050565b60008060408385031215611cc457600080fd5b50508035926020909101359150565b634e487b7160e01b600052602160045260246000fd5b81518152602080830151805182840152908101511515604083015261014082019050604083015180516060840152602081015115156080840152506060830151805160a08401526020810151151560c0840152506080830151805160048110611d6257634e487b7160e01b600052602160045260246000fd5b60e084015260200151151561010083015260a0929092015115156101209091015290565b6001600160a01b0381168114611c4a57600080fd5b634e487b7160e01b600052604160045260246000fd5b60405160a0810167ffffffffffffffff81118282101715611dd457611dd4611d9b565b60405290565b604051601f8201601f1916810167ffffffffffffffff81118282101715611e0357611e03611d9b565b604052919050565b600067ffffffffffffffff821115611e2557611e25611d9b565b50601f01601f191660200190565b60008060008060808587031215611e4957600080fd5b8435611e5481611d86565b93506020850135925060408501359150606085013567ffffffffffffffff811115611e7e57600080fd5b8501601f81018713611e8f57600080fd5b8035611ea2611e9d82611e0b565b611dda565b818152886020838501011115611eb757600080fd5b8160208401602083013760006020838301015280935050505092959194509250565b60008060408385031215611eec57600080fd5b82359150611efc60208401611c62565b90509250929050565b600060208284031215611f1757600080fd5b8135611c9181611d86565b6020808252818101527f4f776e61626c653a2063616c6c6572206973206e6f7420746865206f776e6572604082015260600190565b60005b83811015611f72578181015183820152602001611f5a565b50506000910152565b80518015158114611c7157600080fd5b60006020808385031215611f9e57600080fd5b825167ffffffffffffffff80821115611fb657600080fd5b9084019060a08287031215611fca57600080fd5b611fd2611db1565b8251815283830151611fe381611d86565b81850152604083015182811115611ff957600080fd5b83019150601f8201871361200c57600080fd5b815161201a611e9d82611e0b565b818152888683860101111561202e57600080fd5b61203d82878301888701611f57565b6040830152506060838101519082015261205960808401611f7b565b60808201529695505050505050565b6020808252602c908201527f546865207265736f75726365206973206e6f7420636f7665726564206279207460408201526b1a1a5cc818dbdb9d1c9858dd60a21b606082015260800190565b60208082526066908201527f546865207265736f7572636520686173206e6f74207370656369666963206f6260408201527f6c69676169746f6e732072756c65732e2041646420737065636966696320727560608201527f6c65732c206f72206368616e676865207468652064656661756c7420706f6420608082015265393ab632b99760d11b60a082015260c00190565b83815260018060a01b03831660208201526060604082015260008251806060840152612179816080850160208701611f57565b601f01601f191691909101608001949350505050565b60006001600160ff1b0182016121b557634e487b7160e01b600052601160045260246000fd5b5060010190565b6020808252602e908201527f5468652074656d706f72616c206f626c69676174696f6e206d7573742062652060408201526d6174206c6561737420312064617960901b606082015260800190565b600181811c9082168061221e57607f821691505b60208210810361223e57634e487b7160e01b600052602260045260246000fd5b50919050565b601f82111561228e57600081815260208120601f850160051c8101602086101561226b5750805b601f850160051c820191505b8181101561228a57828155600101612277565b5050505b505050565b815167ffffffffffffffff8111156122ad576122ad611d9b565b6122c1816122bb845461220a565b84612244565b602080601f8311600181146122f657600084156122de5750858301515b600019600386901b1c1916600185901b17855561228a565b600085815260208120601f198616915b8281101561232557888601518255948401946001909101908401612306565b50858210156123435787850151600019600388901b60f8161c191681555b5050505050600190811b0190555056fea264697066735822122093a3d91771e98fd315e91a823932703527baa3dfb7aa8a11be302ece607551c564736f6c63430008120033a2646970667358221220493a309b144493c36c4d436ca6b03feb5a6867bbb57e41bb6391b653d16506df64736f6c63430008120033",
			"opcodes": "PUSH1 0x80 PUSH1 0x40 MSTORE PUSH1 0x0 DUP1 SSTORE PUSH1 0x0 PUSH1 0x1 SSTORE CALLVALUE DUP1 ISZERO PUSH2 0x19 JUMPI PUSH1 0x0 DUP1 REVERT JUMPDEST POP PUSH1 0x40 MLOAD PUSH2 0x39AA CODESIZE SUB DUP1 PUSH2 0x39AA DUP4 CODECOPY DUP2 ADD PUSH1 0x40 DUP2 SWAP1 MSTORE PUSH2 0x38 SWAP2 PUSH2 0x97 JUMP JUMPDEST PUSH1 0x4 DUP1 SLOAD PUSH1 0x1 PUSH1 0x1 PUSH1 0xA0 SHL SUB NOT AND PUSH1 0x1 PUSH1 0x1 PUSH1 0xA0 SHL SUB DUP4 AND SWAP1 DUP2 OR SWAP1 SWAP2 SSTORE PUSH1 0x0 DUP1 DUP1 SSTORE PUSH1 0x1 SSTORE PUSH1 0x40 MLOAD SWAP1 DUP2 MSTORE PUSH32 0xEBFB412DED3F9CDB15B75308503B279416E74D382F6CE86EEDEE0EF3130FA9E3 SWAP1 PUSH1 0x20 ADD PUSH1 0x40 MLOAD DUP1 SWAP2 SUB SWAP1 LOG1 POP PUSH2 0xC7 JUMP JUMPDEST PUSH1 0x0 PUSH1 0x20 DUP3 DUP5 SUB SLT ISZERO PUSH2 0xA9 JUMPI PUSH1 0x0 DUP1 REVERT JUMPDEST DUP2 MLOAD PUSH1 0x1 PUSH1 0x1 PUSH1 0xA0 SHL SUB DUP2 AND DUP2 EQ PUSH2 0xC0 JUMPI PUSH1 0x0 DUP1 REVERT JUMPDEST SWAP4 SWAP3 POP POP POP JUMP JUMPDEST PUSH2 0x38D4 DUP1 PUSH2 0xD6 PUSH1 0x0 CODECOPY PUSH1 0x0 RETURN INVALID PUSH1 0x80 PUSH1 0x40 MSTORE CALLVALUE DUP1 ISZERO PUSH3 0x11 JUMPI PUSH1 0x0 DUP1 REVERT JUMPDEST POP PUSH1 0x4 CALLDATASIZE LT PUSH3 0x6A JUMPI PUSH1 0x0 CALLDATALOAD PUSH1 0xE0 SHR DUP1 PUSH4 0x1406DDD8 EQ PUSH3 0x6F JUMPI DUP1 PUSH4 0x418D91EE EQ PUSH3 0x9E JUMPI DUP1 PUSH4 0x47CD639B EQ PUSH3 0xC4 JUMPI DUP1 PUSH4 0x8EC80369 EQ PUSH3 0xEA JUMPI DUP1 PUSH4 0xBAF5E78B EQ PUSH3 0x103 JUMPI DUP1 PUSH4 0xC28E99EB EQ PUSH3 0x130 JUMPI JUMPDEST PUSH1 0x0 DUP1 REVERT JUMPDEST PUSH3 0x86 PUSH3 0x80 CALLDATASIZE PUSH1 0x4 PUSH3 0xE92 JUMP JUMPDEST PUSH3 0x147 JUMP JUMPDEST PUSH1 0x40 MLOAD PUSH3 0x95 SWAP2 SWAP1 PUSH3 0xF42 JUMP JUMPDEST PUSH1 0x40 MLOAD DUP1 SWAP2 SUB SWAP1 RETURN JUMPDEST PUSH3 0xB5 PUSH3 0xAF CALLDATASIZE PUSH1 0x4 PUSH3 0x1053 JUMP JUMPDEST PUSH3 0x425 JUMP JUMPDEST PUSH1 0x40 MLOAD SWAP1 DUP2 MSTORE PUSH1 0x20 ADD PUSH3 0x95 JUMP JUMPDEST PUSH3 0xDB PUSH3 0xD5 CALLDATASIZE PUSH1 0x4 PUSH3 0x10CD JUMP JUMPDEST PUSH3 0x605 JUMP JUMPDEST PUSH1 0x40 MLOAD PUSH3 0x95 SWAP2 SWAP1 PUSH3 0x10E7 JUMP JUMPDEST PUSH3 0x101 PUSH3 0xFB CALLDATASIZE PUSH1 0x4 PUSH3 0x10CD JUMP JUMPDEST PUSH3 0x8DB JUMP JUMPDEST STOP JUMPDEST PUSH1 0x4 SLOAD PUSH3 0x117 SWAP1 PUSH1 0x1 PUSH1 0x1 PUSH1 0xA0 SHL SUB AND DUP2 JUMP JUMPDEST PUSH1 0x40 MLOAD PUSH1 0x1 PUSH1 0x1 PUSH1 0xA0 SHL SUB SWAP1 SWAP2 AND DUP2 MSTORE PUSH1 0x20 ADD PUSH3 0x95 JUMP JUMPDEST PUSH3 0xB5 PUSH3 0x141 CALLDATASIZE PUSH1 0x4 PUSH3 0x1103 JUMP JUMPDEST PUSH3 0xAB9 JUMP JUMPDEST PUSH1 0x60 PUSH1 0x0 DUP1 JUMPDEST PUSH1 0x3 SLOAD DUP2 LT ISZERO PUSH3 0x1E3 JUMPI DUP5 PUSH1 0x3 DUP3 DUP2 SLOAD DUP2 LT PUSH3 0x16F JUMPI PUSH3 0x16F PUSH3 0x1157 JUMP JUMPDEST SWAP1 PUSH1 0x0 MSTORE PUSH1 0x20 PUSH1 0x0 KECCAK256 SWAP1 PUSH1 0x5 MUL ADD PUSH1 0x3 ADD SLOAD EQ DUP1 ISZERO PUSH3 0x1B8 JUMPI POP PUSH1 0x3 DUP2 DUP2 SLOAD DUP2 LT PUSH3 0x1A0 JUMPI PUSH3 0x1A0 PUSH3 0x1157 JUMP JUMPDEST PUSH1 0x0 SWAP2 DUP3 MSTORE PUSH1 0x20 SWAP1 SWAP2 KECCAK256 PUSH1 0x4 PUSH1 0x5 SWAP1 SWAP3 MUL ADD ADD SLOAD PUSH1 0xFF AND JUMPDEST ISZERO PUSH3 0x1CE JUMPI DUP2 PUSH3 0x1CA DUP2 PUSH3 0x1183 JUMP JUMPDEST SWAP3 POP POP JUMPDEST DUP1 PUSH3 0x1DA DUP2 PUSH3 0x1183 JUMP JUMPDEST SWAP2 POP POP PUSH3 0x14D JUMP JUMPDEST POP PUSH1 0x0 DUP1 DUP3 PUSH8 0xFFFFFFFFFFFFFFFF DUP2 GT ISZERO PUSH3 0x203 JUMPI PUSH3 0x203 PUSH3 0xFA8 JUMP JUMPDEST PUSH1 0x40 MLOAD SWAP1 DUP1 DUP3 MSTORE DUP1 PUSH1 0x20 MUL PUSH1 0x20 ADD DUP3 ADD PUSH1 0x40 MSTORE DUP1 ISZERO PUSH3 0x240 JUMPI DUP2 PUSH1 0x20 ADD JUMPDEST PUSH3 0x22C PUSH3 0xE4A JUMP JUMPDEST DUP2 MSTORE PUSH1 0x20 ADD SWAP1 PUSH1 0x1 SWAP1 SUB SWAP1 DUP2 PUSH3 0x222 JUMPI SWAP1 POP JUMPDEST POP SWAP1 POP PUSH1 0x0 JUMPDEST PUSH1 0x3 SLOAD DUP2 LT ISZERO PUSH3 0x41B JUMPI DUP7 PUSH1 0x3 DUP3 DUP2 SLOAD DUP2 LT PUSH3 0x268 JUMPI PUSH3 0x268 PUSH3 0x1157 JUMP JUMPDEST SWAP1 PUSH1 0x0 MSTORE PUSH1 0x20 PUSH1 0x0 KECCAK256 SWAP1 PUSH1 0x5 MUL ADD PUSH1 0x3 ADD SLOAD EQ DUP1 ISZERO PUSH3 0x2B1 JUMPI POP PUSH1 0x3 DUP2 DUP2 SLOAD DUP2 LT PUSH3 0x299 JUMPI PUSH3 0x299 PUSH3 0x1157 JUMP JUMPDEST PUSH1 0x0 SWAP2 DUP3 MSTORE PUSH1 0x20 SWAP1 SWAP2 KECCAK256 PUSH1 0x4 PUSH1 0x5 SWAP1 SWAP3 MUL ADD ADD SLOAD PUSH1 0xFF AND JUMPDEST ISZERO PUSH3 0x406 JUMPI PUSH1 0x3 DUP2 DUP2 SLOAD DUP2 LT PUSH3 0x2CD JUMPI PUSH3 0x2CD PUSH3 0x1157 JUMP JUMPDEST SWAP1 PUSH1 0x0 MSTORE PUSH1 0x20 PUSH1 0x0 KECCAK256 SWAP1 PUSH1 0x5 MUL ADD PUSH1 0x40 MLOAD DUP1 PUSH1 0xA0 ADD PUSH1 0x40 MSTORE SWAP1 DUP2 PUSH1 0x0 DUP3 ADD SLOAD DUP2 MSTORE PUSH1 0x20 ADD PUSH1 0x1 DUP3 ADD PUSH1 0x0 SWAP1 SLOAD SWAP1 PUSH2 0x100 EXP SWAP1 DIV PUSH1 0x1 PUSH1 0x1 PUSH1 0xA0 SHL SUB AND PUSH1 0x1 PUSH1 0x1 PUSH1 0xA0 SHL SUB AND PUSH1 0x1 PUSH1 0x1 PUSH1 0xA0 SHL SUB AND DUP2 MSTORE PUSH1 0x20 ADD PUSH1 0x2 DUP3 ADD DUP1 SLOAD PUSH3 0x331 SWAP1 PUSH3 0x119F JUMP JUMPDEST DUP1 PUSH1 0x1F ADD PUSH1 0x20 DUP1 SWAP2 DIV MUL PUSH1 0x20 ADD PUSH1 0x40 MLOAD SWAP1 DUP2 ADD PUSH1 0x40 MSTORE DUP1 SWAP3 SWAP2 SWAP1 DUP2 DUP2 MSTORE PUSH1 0x20 ADD DUP3 DUP1 SLOAD PUSH3 0x35F SWAP1 PUSH3 0x119F JUMP JUMPDEST DUP1 ISZERO PUSH3 0x3B0 JUMPI DUP1 PUSH1 0x1F LT PUSH3 0x384 JUMPI PUSH2 0x100 DUP1 DUP4 SLOAD DIV MUL DUP4 MSTORE SWAP2 PUSH1 0x20 ADD SWAP2 PUSH3 0x3B0 JUMP JUMPDEST DUP3 ADD SWAP2 SWAP1 PUSH1 0x0 MSTORE PUSH1 0x20 PUSH1 0x0 KECCAK256 SWAP1 JUMPDEST DUP2 SLOAD DUP2 MSTORE SWAP1 PUSH1 0x1 ADD SWAP1 PUSH1 0x20 ADD DUP1 DUP4 GT PUSH3 0x392 JUMPI DUP3 SWAP1 SUB PUSH1 0x1F AND DUP3 ADD SWAP2 JUMPDEST POP POP POP SWAP2 DUP4 MSTORE POP POP PUSH1 0x3 DUP3 ADD SLOAD PUSH1 0x20 DUP3 ADD MSTORE PUSH1 0x4 SWAP1 SWAP2 ADD SLOAD PUSH1 0xFF AND ISZERO ISZERO PUSH1 0x40 SWAP1 SWAP2 ADD MSTORE DUP3 MLOAD DUP4 SWAP1 DUP6 SWAP1 DUP2 LT PUSH3 0x3EA JUMPI PUSH3 0x3EA PUSH3 0x1157 JUMP JUMPDEST PUSH1 0x20 MUL PUSH1 0x20 ADD ADD DUP2 SWAP1 MSTORE POP DUP3 DUP1 PUSH3 0x402 SWAP1 PUSH3 0x1183 JUMP JUMPDEST SWAP4 POP POP JUMPDEST DUP1 PUSH3 0x412 DUP2 PUSH3 0x1183 JUMP JUMPDEST SWAP2 POP POP PUSH3 0x246 JUMP JUMPDEST POP SWAP6 SWAP5 POP POP POP POP POP JUMP JUMPDEST PUSH1 0x0 DUP1 SLOAD PUSH1 0x40 DUP1 MLOAD PUSH1 0xC0 DUP2 ADD SWAP1 SWAP2 MSTORE DUP2 DUP2 MSTORE PUSH1 0x2 SWAP1 PUSH1 0x20 DUP2 ADD DUP7 DUP4 DUP2 GT ISZERO PUSH3 0x452 JUMPI PUSH3 0x452 PUSH3 0x11DB JUMP JUMPDEST DUP2 MSTORE CALLER PUSH1 0x20 DUP1 DUP4 ADD SWAP2 SWAP1 SWAP2 MSTORE PUSH1 0x1 PUSH1 0x1 PUSH1 0xA0 SHL SUB DUP8 AND PUSH1 0x40 DUP4 ADD MSTORE PUSH1 0x60 DUP3 ADD DUP10 SWAP1 MSTORE PUSH1 0x1 PUSH1 0x80 SWAP1 SWAP3 ADD DUP3 SWAP1 MSTORE DUP4 SLOAD DUP1 DUP4 ADD DUP6 SSTORE PUSH1 0x0 SWAP5 DUP6 MSTORE SWAP4 DUP2 SWAP1 KECCAK256 DUP4 MLOAD PUSH1 0x5 SWAP1 SWAP6 MUL ADD SWAP4 DUP5 SSTORE DUP3 ADD MLOAD DUP4 DUP3 ADD DUP1 SLOAD SWAP4 SWAP5 SWAP4 SWAP2 SWAP3 SWAP1 SWAP2 PUSH1 0xFF NOT AND SWAP1 DUP4 PUSH1 0x2 DUP2 GT ISZERO PUSH3 0x4C2 JUMPI PUSH3 0x4C2 PUSH3 0x11DB JUMP JUMPDEST MUL OR SWAP1 SSTORE POP PUSH1 0x40 DUP3 ADD MLOAD PUSH1 0x1 DUP3 ADD DUP1 SLOAD PUSH2 0x100 PUSH1 0x1 PUSH1 0xA8 SHL SUB NOT AND PUSH2 0x100 PUSH1 0x1 PUSH1 0x1 PUSH1 0xA0 SHL SUB SWAP4 DUP5 AND MUL OR SWAP1 SSTORE PUSH1 0x60 DUP4 ADD MLOAD PUSH1 0x2 DUP4 ADD DUP1 SLOAD PUSH1 0x1 PUSH1 0x1 PUSH1 0xA0 SHL SUB NOT AND SWAP2 SWAP1 SWAP3 AND OR SWAP1 SSTORE PUSH1 0x80 DUP3 ADD MLOAD PUSH1 0x3 DUP3 ADD SWAP1 PUSH3 0x521 SWAP1 DUP3 PUSH3 0x1244 JUMP JUMPDEST POP PUSH1 0xA0 SWAP2 SWAP1 SWAP2 ADD MLOAD PUSH1 0x4 SWAP2 DUP3 ADD DUP1 SLOAD PUSH1 0xFF NOT AND SWAP2 ISZERO ISZERO SWAP2 SWAP1 SWAP2 OR SWAP1 SSTORE SLOAD PUSH1 0x40 MLOAD PUSH1 0x0 SWAP2 ADDRESS SWAP2 DUP7 SWAP2 PUSH1 0x1 PUSH1 0x1 PUSH1 0xA0 SHL SUB AND SWAP1 PUSH3 0x55D SWAP1 PUSH3 0xE84 JUMP JUMPDEST PUSH1 0x1 PUSH1 0x1 PUSH1 0xA0 SHL SUB SWAP4 DUP5 AND DUP2 MSTORE SWAP2 DUP4 AND PUSH1 0x20 DUP4 ADD MSTORE SWAP1 SWAP2 AND PUSH1 0x40 DUP3 ADD MSTORE PUSH1 0x60 ADD PUSH1 0x40 MLOAD DUP1 SWAP2 SUB SWAP1 PUSH1 0x0 CREATE DUP1 ISZERO DUP1 ISZERO PUSH3 0x59A JUMPI RETURNDATASIZE PUSH1 0x0 DUP1 RETURNDATACOPY RETURNDATASIZE PUSH1 0x0 REVERT JUMPDEST POP PUSH1 0x0 SLOAD PUSH1 0x40 DUP1 MLOAD SWAP2 DUP3 MSTORE PUSH1 0x1 PUSH1 0x1 PUSH1 0xA0 SHL SUB DUP4 AND PUSH1 0x20 DUP4 ADD MSTORE SWAP2 SWAP3 POP PUSH32 0xF64ED8C0E4C69923A4C505B41F76AC3F79CBA844DC300239843F8F690A116BFD SWAP2 ADD PUSH1 0x40 MLOAD DUP1 SWAP2 SUB SWAP1 LOG1 PUSH1 0x1 PUSH1 0x0 DUP1 DUP3 DUP3 SLOAD PUSH3 0x5F6 SWAP2 SWAP1 PUSH3 0x1311 JUMP JUMPDEST SWAP1 SWAP2 SSTORE POP SWAP2 SWAP7 SWAP6 POP POP POP POP POP POP JUMP JUMPDEST PUSH3 0x60F PUSH3 0xE4A JUMP JUMPDEST PUSH1 0x3 SLOAD DUP3 SWAP1 DUP2 LT PUSH3 0x63E JUMPI PUSH1 0x40 MLOAD PUSH3 0x461BCD PUSH1 0xE5 SHL DUP2 MSTORE PUSH1 0x4 ADD PUSH3 0x635 SWAP1 PUSH3 0x133C JUMP JUMPDEST PUSH1 0x40 MLOAD DUP1 SWAP2 SUB SWAP1 REVERT JUMPDEST PUSH1 0x0 PUSH1 0x3 DUP3 DUP2 SLOAD DUP2 LT PUSH3 0x656 JUMPI PUSH3 0x656 PUSH3 0x1157 JUMP JUMPDEST SWAP1 PUSH1 0x0 MSTORE PUSH1 0x20 PUSH1 0x0 KECCAK256 SWAP1 PUSH1 0x5 MUL ADD PUSH1 0x40 MLOAD DUP1 PUSH1 0xA0 ADD PUSH1 0x40 MSTORE SWAP1 DUP2 PUSH1 0x0 DUP3 ADD SLOAD DUP2 MSTORE PUSH1 0x20 ADD PUSH1 0x1 DUP3 ADD PUSH1 0x0 SWAP1 SLOAD SWAP1 PUSH2 0x100 EXP SWAP1 DIV PUSH1 0x1 PUSH1 0x1 PUSH1 0xA0 SHL SUB AND PUSH1 0x1 PUSH1 0x1 PUSH1 0xA0 SHL SUB AND PUSH1 0x1 PUSH1 0x1 PUSH1 0xA0 SHL SUB AND DUP2 MSTORE PUSH1 0x20 ADD PUSH1 0x2 DUP3 ADD DUP1 SLOAD PUSH3 0x6BA SWAP1 PUSH3 0x119F JUMP JUMPDEST DUP1 PUSH1 0x1F ADD PUSH1 0x20 DUP1 SWAP2 DIV MUL PUSH1 0x20 ADD PUSH1 0x40 MLOAD SWAP1 DUP2 ADD PUSH1 0x40 MSTORE DUP1 SWAP3 SWAP2 SWAP1 DUP2 DUP2 MSTORE PUSH1 0x20 ADD DUP3 DUP1 SLOAD PUSH3 0x6E8 SWAP1 PUSH3 0x119F JUMP JUMPDEST DUP1 ISZERO PUSH3 0x739 JUMPI DUP1 PUSH1 0x1F LT PUSH3 0x70D JUMPI PUSH2 0x100 DUP1 DUP4 SLOAD DIV MUL DUP4 MSTORE SWAP2 PUSH1 0x20 ADD SWAP2 PUSH3 0x739 JUMP JUMPDEST DUP3 ADD SWAP2 SWAP1 PUSH1 0x0 MSTORE PUSH1 0x20 PUSH1 0x0 KECCAK256 SWAP1 JUMPDEST DUP2 SLOAD DUP2 MSTORE SWAP1 PUSH1 0x1 ADD SWAP1 PUSH1 0x20 ADD DUP1 DUP4 GT PUSH3 0x71B JUMPI DUP3 SWAP1 SUB PUSH1 0x1F AND DUP3 ADD SWAP2 JUMPDEST POP POP POP SWAP2 DUP4 MSTORE POP POP PUSH1 0x3 DUP3 ADD SLOAD PUSH1 0x20 DUP3 ADD MSTORE PUSH1 0x4 SWAP1 SWAP2 ADD SLOAD PUSH1 0xFF AND ISZERO ISZERO PUSH1 0x40 SWAP1 SWAP2 ADD MSTORE PUSH1 0x80 DUP2 ADD MLOAD SWAP1 SWAP2 POP ISZERO ISZERO PUSH1 0x1 EQ PUSH3 0x7B7 JUMPI PUSH1 0x40 MLOAD PUSH3 0x461BCD PUSH1 0xE5 SHL DUP2 MSTORE PUSH1 0x20 PUSH1 0x4 DUP3 ADD MSTORE PUSH1 0x1A PUSH1 0x24 DUP3 ADD MSTORE PUSH32 0x546865207265736F75726365206973206E6F7420616374697665000000000000 PUSH1 0x44 DUP3 ADD MSTORE PUSH1 0x64 ADD PUSH3 0x635 JUMP JUMPDEST PUSH1 0x3 DUP5 DUP2 SLOAD DUP2 LT PUSH3 0x7CD JUMPI PUSH3 0x7CD PUSH3 0x1157 JUMP JUMPDEST SWAP1 PUSH1 0x0 MSTORE PUSH1 0x20 PUSH1 0x0 KECCAK256 SWAP1 PUSH1 0x5 MUL ADD PUSH1 0x40 MLOAD DUP1 PUSH1 0xA0 ADD PUSH1 0x40 MSTORE SWAP1 DUP2 PUSH1 0x0 DUP3 ADD SLOAD DUP2 MSTORE PUSH1 0x20 ADD PUSH1 0x1 DUP3 ADD PUSH1 0x0 SWAP1 SLOAD SWAP1 PUSH2 0x100 EXP SWAP1 DIV PUSH1 0x1 PUSH1 0x1 PUSH1 0xA0 SHL SUB AND PUSH1 0x1 PUSH1 0x1 PUSH1 0xA0 SHL SUB AND PUSH1 0x1 PUSH1 0x1 PUSH1 0xA0 SHL SUB AND DUP2 MSTORE PUSH1 0x20 ADD PUSH1 0x2 DUP3 ADD DUP1 SLOAD PUSH3 0x831 SWAP1 PUSH3 0x119F JUMP JUMPDEST DUP1 PUSH1 0x1F ADD PUSH1 0x20 DUP1 SWAP2 DIV MUL PUSH1 0x20 ADD PUSH1 0x40 MLOAD SWAP1 DUP2 ADD PUSH1 0x40 MSTORE DUP1 SWAP3 SWAP2 SWAP1 DUP2 DUP2 MSTORE PUSH1 0x20 ADD DUP3 DUP1 SLOAD PUSH3 0x85F SWAP1 PUSH3 0x119F JUMP JUMPDEST DUP1 ISZERO PUSH3 0x8B0 JUMPI DUP1 PUSH1 0x1F LT PUSH3 0x884 JUMPI PUSH2 0x100 DUP1 DUP4 SLOAD DIV MUL DUP4 MSTORE SWAP2 PUSH1 0x20 ADD SWAP2 PUSH3 0x8B0 JUMP JUMPDEST DUP3 ADD SWAP2 SWAP1 PUSH1 0x0 MSTORE PUSH1 0x20 PUSH1 0x0 KECCAK256 SWAP1 JUMPDEST DUP2 SLOAD DUP2 MSTORE SWAP1 PUSH1 0x1 ADD SWAP1 PUSH1 0x20 ADD DUP1 DUP4 GT PUSH3 0x892 JUMPI DUP3 SWAP1 SUB PUSH1 0x1F AND DUP3 ADD SWAP2 JUMPDEST POP POP POP SWAP2 DUP4 MSTORE POP POP PUSH1 0x3 DUP3 ADD SLOAD PUSH1 0x20 DUP3 ADD MSTORE PUSH1 0x4 SWAP1 SWAP2 ADD SLOAD PUSH1 0xFF AND ISZERO ISZERO PUSH1 0x40 SWAP1 SWAP2 ADD MSTORE SWAP5 SWAP4 POP POP POP POP JUMP JUMPDEST PUSH1 0x3 SLOAD DUP2 SWAP1 DUP2 LT PUSH3 0x901 JUMPI PUSH1 0x40 MLOAD PUSH3 0x461BCD PUSH1 0xE5 SHL DUP2 MSTORE PUSH1 0x4 ADD PUSH3 0x635 SWAP1 PUSH3 0x133C JUMP JUMPDEST PUSH1 0x0 PUSH1 0x3 DUP3 DUP2 SLOAD DUP2 LT PUSH3 0x919 JUMPI PUSH3 0x919 PUSH3 0x1157 JUMP JUMPDEST SWAP1 PUSH1 0x0 MSTORE PUSH1 0x20 PUSH1 0x0 KECCAK256 SWAP1 PUSH1 0x5 MUL ADD PUSH1 0x40 MLOAD DUP1 PUSH1 0xA0 ADD PUSH1 0x40 MSTORE SWAP1 DUP2 PUSH1 0x0 DUP3 ADD SLOAD DUP2 MSTORE PUSH1 0x20 ADD PUSH1 0x1 DUP3 ADD PUSH1 0x0 SWAP1 SLOAD SWAP1 PUSH2 0x100 EXP SWAP1 DIV PUSH1 0x1 PUSH1 0x1 PUSH1 0xA0 SHL SUB AND PUSH1 0x1 PUSH1 0x1 PUSH1 0xA0 SHL SUB AND PUSH1 0x1 PUSH1 0x1 PUSH1 0xA0 SHL SUB AND DUP2 MSTORE PUSH1 0x20 ADD PUSH1 0x2 DUP3 ADD DUP1 SLOAD PUSH3 0x97D SWAP1 PUSH3 0x119F JUMP JUMPDEST DUP1 PUSH1 0x1F ADD PUSH1 0x20 DUP1 SWAP2 DIV MUL PUSH1 0x20 ADD PUSH1 0x40 MLOAD SWAP1 DUP2 ADD PUSH1 0x40 MSTORE DUP1 SWAP3 SWAP2 SWAP1 DUP2 DUP2 MSTORE PUSH1 0x20 ADD DUP3 DUP1 SLOAD PUSH3 0x9AB SWAP1 PUSH3 0x119F JUMP JUMPDEST DUP1 ISZERO PUSH3 0x9FC JUMPI DUP1 PUSH1 0x1F LT PUSH3 0x9D0 JUMPI PUSH2 0x100 DUP1 DUP4 SLOAD DIV MUL DUP4 MSTORE SWAP2 PUSH1 0x20 ADD SWAP2 PUSH3 0x9FC JUMP JUMPDEST DUP3 ADD SWAP2 SWAP1 PUSH1 0x0 MSTORE PUSH1 0x20 PUSH1 0x0 KECCAK256 SWAP1 JUMPDEST DUP2 SLOAD DUP2 MSTORE SWAP1 PUSH1 0x1 ADD SWAP1 PUSH1 0x20 ADD DUP1 DUP4 GT PUSH3 0x9DE JUMPI DUP3 SWAP1 SUB PUSH1 0x1F AND DUP3 ADD SWAP2 JUMPDEST POP POP POP SWAP2 DUP4 MSTORE POP POP PUSH1 0x3 DUP3 ADD SLOAD PUSH1 0x20 DUP3 ADD MSTORE PUSH1 0x4 SWAP1 SWAP2 ADD SLOAD PUSH1 0xFF AND ISZERO ISZERO PUSH1 0x40 SWAP1 SWAP2 ADD MSTORE PUSH1 0x80 DUP2 ADD MLOAD SWAP1 SWAP2 POP ISZERO ISZERO PUSH1 0x1 EQ PUSH3 0xA7A JUMPI PUSH1 0x40 MLOAD PUSH3 0x461BCD PUSH1 0xE5 SHL DUP2 MSTORE PUSH1 0x20 PUSH1 0x4 DUP3 ADD MSTORE PUSH1 0x1A PUSH1 0x24 DUP3 ADD MSTORE PUSH32 0x546865207265736F75726365206973206E6F7420616374697665000000000000 PUSH1 0x44 DUP3 ADD MSTORE PUSH1 0x64 ADD PUSH3 0x635 JUMP JUMPDEST PUSH1 0x0 PUSH1 0x3 DUP5 DUP2 SLOAD DUP2 LT PUSH3 0xA92 JUMPI PUSH3 0xA92 PUSH3 0x1157 JUMP JUMPDEST PUSH1 0x0 SWAP2 DUP3 MSTORE PUSH1 0x20 SWAP1 SWAP2 KECCAK256 PUSH1 0x5 SWAP1 SWAP2 MUL ADD PUSH1 0x4 ADD DUP1 SLOAD PUSH1 0xFF NOT AND SWAP2 ISZERO ISZERO SWAP2 SWAP1 SWAP2 OR SWAP1 SSTORE POP POP POP JUMP JUMPDEST PUSH1 0x0 DUP4 CALLER PUSH1 0x2 DUP1 SLOAD SWAP1 POP DUP3 LT PUSH3 0xAE4 JUMPI PUSH1 0x40 MLOAD PUSH3 0x461BCD PUSH1 0xE5 SHL DUP2 MSTORE PUSH1 0x4 ADD PUSH3 0x635 SWAP1 PUSH3 0x133C JUMP JUMPDEST PUSH1 0x0 PUSH1 0x2 DUP4 DUP2 SLOAD DUP2 LT PUSH3 0xAFC JUMPI PUSH3 0xAFC PUSH3 0x1157 JUMP JUMPDEST SWAP1 PUSH1 0x0 MSTORE PUSH1 0x20 PUSH1 0x0 KECCAK256 SWAP1 PUSH1 0x5 MUL ADD PUSH1 0x40 MLOAD DUP1 PUSH1 0xC0 ADD PUSH1 0x40 MSTORE SWAP1 DUP2 PUSH1 0x0 DUP3 ADD SLOAD DUP2 MSTORE PUSH1 0x20 ADD PUSH1 0x1 DUP3 ADD PUSH1 0x0 SWAP1 SLOAD SWAP1 PUSH2 0x100 EXP SWAP1 DIV PUSH1 0xFF AND PUSH1 0x2 DUP2 GT ISZERO PUSH3 0xB46 JUMPI PUSH3 0xB46 PUSH3 0x11DB JUMP JUMPDEST PUSH1 0x2 DUP2 GT ISZERO PUSH3 0xB5A JUMPI PUSH3 0xB5A PUSH3 0x11DB JUMP JUMPDEST DUP2 MSTORE PUSH1 0x1 DUP3 ADD SLOAD PUSH1 0x1 PUSH1 0x1 PUSH1 0xA0 SHL SUB PUSH2 0x100 SWAP1 SWAP2 DIV DUP2 AND PUSH1 0x20 DUP4 ADD MSTORE PUSH1 0x2 DUP4 ADD SLOAD AND PUSH1 0x40 DUP3 ADD MSTORE PUSH1 0x3 DUP3 ADD DUP1 SLOAD PUSH1 0x60 SWAP1 SWAP3 ADD SWAP2 PUSH3 0xB98 SWAP1 PUSH3 0x119F JUMP JUMPDEST DUP1 PUSH1 0x1F ADD PUSH1 0x20 DUP1 SWAP2 DIV MUL PUSH1 0x20 ADD PUSH1 0x40 MLOAD SWAP1 DUP2 ADD PUSH1 0x40 MSTORE DUP1 SWAP3 SWAP2 SWAP1 DUP2 DUP2 MSTORE PUSH1 0x20 ADD DUP3 DUP1 SLOAD PUSH3 0xBC6 SWAP1 PUSH3 0x119F JUMP JUMPDEST DUP1 ISZERO PUSH3 0xC17 JUMPI DUP1 PUSH1 0x1F LT PUSH3 0xBEB JUMPI PUSH2 0x100 DUP1 DUP4 SLOAD DIV MUL DUP4 MSTORE SWAP2 PUSH1 0x20 ADD SWAP2 PUSH3 0xC17 JUMP JUMPDEST DUP3 ADD SWAP2 SWAP1 PUSH1 0x0 MSTORE PUSH1 0x20 PUSH1 0x0 KECCAK256 SWAP1 JUMPDEST DUP2 SLOAD DUP2 MSTORE SWAP1 PUSH1 0x1 ADD SWAP1 PUSH1 0x20 ADD DUP1 DUP4 GT PUSH3 0xBF9 JUMPI DUP3 SWAP1 SUB PUSH1 0x1F AND DUP3 ADD SWAP2 JUMPDEST POP POP POP SWAP2 DUP4 MSTORE POP POP PUSH1 0x4 SWAP2 SWAP1 SWAP2 ADD SLOAD PUSH1 0xFF AND ISZERO ISZERO PUSH1 0x20 SWAP1 SWAP2 ADD MSTORE PUSH1 0xA0 DUP2 ADD MLOAD SWAP1 SWAP2 POP ISZERO ISZERO PUSH1 0x1 EQ PUSH3 0xC84 JUMPI PUSH1 0x40 MLOAD PUSH3 0x461BCD PUSH1 0xE5 SHL DUP2 MSTORE PUSH1 0x20 PUSH1 0x4 DUP3 ADD MSTORE PUSH1 0x15 PUSH1 0x24 DUP3 ADD MSTORE PUSH21 0x54686520706F64206973206E6F7420616374697665 PUSH1 0x58 SHL PUSH1 0x44 DUP3 ADD MSTORE PUSH1 0x64 ADD PUSH3 0x635 JUMP JUMPDEST DUP2 PUSH1 0x1 PUSH1 0x1 PUSH1 0xA0 SHL SUB AND DUP2 PUSH1 0x60 ADD MLOAD PUSH1 0x1 PUSH1 0x1 PUSH1 0xA0 SHL SUB AND EQ PUSH3 0xCEB JUMPI PUSH1 0x40 MLOAD PUSH3 0x461BCD PUSH1 0xE5 SHL DUP2 MSTORE PUSH1 0x20 PUSH1 0x4 DUP3 ADD MSTORE PUSH1 0x19 PUSH1 0x24 DUP3 ADD MSTORE PUSH32 0x5468652073656E646572206973206E6F742074686520706F6400000000000000 PUSH1 0x44 DUP3 ADD MSTORE PUSH1 0x64 ADD PUSH3 0x635 JUMP JUMPDEST PUSH1 0x1 DUP1 SLOAD PUSH1 0x40 DUP1 MLOAD PUSH1 0xA0 DUP2 ADD DUP3 MSTORE DUP3 DUP2 MSTORE CALLER PUSH1 0x20 DUP3 ADD SWAP1 DUP2 MSTORE SWAP2 DUP2 ADD DUP11 DUP2 MSTORE PUSH1 0x60 DUP3 ADD DUP13 SWAP1 MSTORE PUSH1 0x80 DUP3 ADD DUP6 SWAP1 MSTORE PUSH1 0x3 DUP1 SLOAD SWAP6 DUP7 ADD DUP2 SSTORE PUSH1 0x0 MSTORE DUP2 MLOAD PUSH32 0xC2575A0E9E593C00F959F8C92F12DB2869C3395A3B0502D05E2516446F71F85B PUSH1 0x5 SWAP1 SWAP7 MUL SWAP6 DUP7 ADD SWAP1 DUP2 SSTORE SWAP3 MLOAD PUSH32 0xC2575A0E9E593C00F959F8C92F12DB2869C3395A3B0502D05E2516446F71F85C DUP7 ADD DUP1 SLOAD PUSH1 0x1 PUSH1 0x1 PUSH1 0xA0 SHL SUB NOT AND PUSH1 0x1 PUSH1 0x1 PUSH1 0xA0 SHL SUB SWAP1 SWAP3 AND SWAP2 SWAP1 SWAP2 OR SWAP1 SSTORE MLOAD SWAP3 SWAP4 SWAP1 SWAP3 PUSH32 0xC2575A0E9E593C00F959F8C92F12DB2869C3395A3B0502D05E2516446F71F85D SWAP1 SWAP2 ADD SWAP1 PUSH3 0xDCA SWAP1 DUP3 PUSH3 0x1244 JUMP JUMPDEST POP PUSH1 0x60 DUP3 ADD MLOAD PUSH1 0x3 DUP3 ADD SSTORE PUSH1 0x80 SWAP1 SWAP2 ADD MLOAD PUSH1 0x4 SWAP1 SWAP2 ADD DUP1 SLOAD PUSH1 0xFF NOT AND SWAP2 ISZERO ISZERO SWAP2 SWAP1 SWAP2 OR SWAP1 SSTORE PUSH1 0x1 SLOAD PUSH1 0x40 MLOAD SWAP1 DUP2 MSTORE PUSH32 0x2A681115D6FEF2F6907F98C99CFE2FE0C5937CA43DC0CF7263BFC96B5A710250 SWAP1 PUSH1 0x20 ADD PUSH1 0x40 MLOAD DUP1 SWAP2 SUB SWAP1 LOG1 PUSH1 0x1 DUP1 PUSH1 0x0 DUP3 DUP3 SLOAD PUSH3 0xE39 SWAP2 SWAP1 PUSH3 0x1311 JUMP JUMPDEST SWAP1 SWAP2 SSTORE POP SWAP1 SWAP9 SWAP8 POP POP POP POP POP POP POP POP JUMP JUMPDEST PUSH1 0x40 MLOAD DUP1 PUSH1 0xA0 ADD PUSH1 0x40 MSTORE DUP1 PUSH1 0x0 DUP2 MSTORE PUSH1 0x20 ADD PUSH1 0x0 PUSH1 0x1 PUSH1 0x1 PUSH1 0xA0 SHL SUB AND DUP2 MSTORE PUSH1 0x20 ADD PUSH1 0x60 DUP2 MSTORE PUSH1 0x20 ADD PUSH1 0x0 DUP2 MSTORE PUSH1 0x20 ADD PUSH1 0x0 ISZERO ISZERO DUP2 MSTORE POP SWAP1 JUMP JUMPDEST PUSH2 0x252B DUP1 PUSH3 0x1374 DUP4 CODECOPY ADD SWAP1 JUMP JUMPDEST PUSH1 0x0 DUP1 PUSH1 0x40 DUP4 DUP6 SUB SLT ISZERO PUSH3 0xEA6 JUMPI PUSH1 0x0 DUP1 REVERT JUMPDEST POP POP DUP1 CALLDATALOAD SWAP3 PUSH1 0x20 SWAP1 SWAP2 ADD CALLDATALOAD SWAP2 POP JUMP JUMPDEST DUP1 MLOAD DUP3 MSTORE PUSH1 0x0 PUSH1 0x20 PUSH1 0x1 DUP1 PUSH1 0xA0 SHL SUB DUP2 DUP5 ADD MLOAD AND DUP2 DUP6 ADD MSTORE PUSH1 0x40 DUP4 ADD MLOAD PUSH1 0xA0 PUSH1 0x40 DUP7 ADD MSTORE DUP1 MLOAD DUP1 PUSH1 0xA0 DUP8 ADD MSTORE PUSH1 0x0 JUMPDEST DUP2 DUP2 LT ISZERO PUSH3 0xF02 JUMPI DUP3 DUP2 ADD DUP5 ADD MLOAD DUP8 DUP3 ADD PUSH1 0xC0 ADD MSTORE DUP4 ADD PUSH3 0xEE4 JUMP JUMPDEST POP PUSH1 0x0 PUSH1 0xC0 DUP3 DUP9 ADD ADD MSTORE PUSH1 0x60 DUP6 ADD MLOAD PUSH1 0x60 DUP8 ADD MSTORE PUSH1 0x80 DUP6 ADD MLOAD SWAP3 POP PUSH3 0xF2C PUSH1 0x80 DUP8 ADD DUP5 ISZERO ISZERO SWAP1 MSTORE JUMP JUMPDEST PUSH1 0x1F ADD PUSH1 0x1F NOT AND SWAP5 SWAP1 SWAP5 ADD PUSH1 0xC0 ADD SWAP5 SWAP4 POP POP POP POP JUMP JUMPDEST PUSH1 0x0 PUSH1 0x20 DUP1 DUP4 ADD DUP2 DUP5 MSTORE DUP1 DUP6 MLOAD DUP1 DUP4 MSTORE PUSH1 0x40 DUP7 ADD SWAP2 POP PUSH1 0x40 DUP2 PUSH1 0x5 SHL DUP8 ADD ADD SWAP3 POP DUP4 DUP8 ADD PUSH1 0x0 JUMPDEST DUP3 DUP2 LT ISZERO PUSH3 0xF9B JUMPI PUSH1 0x3F NOT DUP9 DUP7 SUB ADD DUP5 MSTORE PUSH3 0xF88 DUP6 DUP4 MLOAD PUSH3 0xEB5 JUMP JUMPDEST SWAP5 POP SWAP3 DUP6 ADD SWAP3 SWAP1 DUP6 ADD SWAP1 PUSH1 0x1 ADD PUSH3 0xF69 JUMP JUMPDEST POP SWAP3 SWAP8 SWAP7 POP POP POP POP POP POP POP JUMP JUMPDEST PUSH4 0x4E487B71 PUSH1 0xE0 SHL PUSH1 0x0 MSTORE PUSH1 0x41 PUSH1 0x4 MSTORE PUSH1 0x24 PUSH1 0x0 REVERT JUMPDEST PUSH1 0x0 DUP3 PUSH1 0x1F DUP4 ADD SLT PUSH3 0xFD0 JUMPI PUSH1 0x0 DUP1 REVERT JUMPDEST DUP2 CALLDATALOAD PUSH8 0xFFFFFFFFFFFFFFFF DUP1 DUP3 GT ISZERO PUSH3 0xFEE JUMPI PUSH3 0xFEE PUSH3 0xFA8 JUMP JUMPDEST PUSH1 0x40 MLOAD PUSH1 0x1F DUP4 ADD PUSH1 0x1F NOT SWAP1 DUP2 AND PUSH1 0x3F ADD AND DUP2 ADD SWAP1 DUP3 DUP3 GT DUP2 DUP4 LT OR ISZERO PUSH3 0x1019 JUMPI PUSH3 0x1019 PUSH3 0xFA8 JUMP JUMPDEST DUP2 PUSH1 0x40 MSTORE DUP4 DUP2 MSTORE DUP7 PUSH1 0x20 DUP6 DUP9 ADD ADD GT ISZERO PUSH3 0x1033 JUMPI PUSH1 0x0 DUP1 REVERT JUMPDEST DUP4 PUSH1 0x20 DUP8 ADD PUSH1 0x20 DUP4 ADD CALLDATACOPY PUSH1 0x0 PUSH1 0x20 DUP6 DUP4 ADD ADD MSTORE DUP1 SWAP5 POP POP POP POP POP SWAP3 SWAP2 POP POP JUMP JUMPDEST PUSH1 0x0 DUP1 PUSH1 0x0 PUSH1 0x60 DUP5 DUP7 SUB SLT ISZERO PUSH3 0x1069 JUMPI PUSH1 0x0 DUP1 REVERT JUMPDEST DUP4 CALLDATALOAD PUSH8 0xFFFFFFFFFFFFFFFF DUP2 GT ISZERO PUSH3 0x1081 JUMPI PUSH1 0x0 DUP1 REVERT JUMPDEST PUSH3 0x108F DUP7 DUP3 DUP8 ADD PUSH3 0xFBE JUMP JUMPDEST SWAP4 POP POP PUSH1 0x20 DUP5 ADD CALLDATALOAD PUSH1 0x3 DUP2 LT PUSH3 0x10A5 JUMPI PUSH1 0x0 DUP1 REVERT JUMPDEST SWAP2 POP PUSH1 0x40 DUP5 ADD CALLDATALOAD PUSH1 0x1 PUSH1 0x1 PUSH1 0xA0 SHL SUB DUP2 AND DUP2 EQ PUSH3 0x10C2 JUMPI PUSH1 0x0 DUP1 REVERT JUMPDEST DUP1 SWAP2 POP POP SWAP3 POP SWAP3 POP SWAP3 JUMP JUMPDEST PUSH1 0x0 PUSH1 0x20 DUP3 DUP5 SUB SLT ISZERO PUSH3 0x10E0 JUMPI PUSH1 0x0 DUP1 REVERT JUMPDEST POP CALLDATALOAD SWAP2 SWAP1 POP JUMP JUMPDEST PUSH1 0x20 DUP2 MSTORE PUSH1 0x0 PUSH3 0x10FC PUSH1 0x20 DUP4 ADD DUP5 PUSH3 0xEB5 JUMP JUMPDEST SWAP4 SWAP3 POP POP POP JUMP JUMPDEST PUSH1 0x0 DUP1 PUSH1 0x0 PUSH1 0x60 DUP5 DUP7 SUB SLT ISZERO PUSH3 0x1119 JUMPI PUSH1 0x0 DUP1 REVERT JUMPDEST DUP4 CALLDATALOAD SWAP3 POP PUSH1 0x20 DUP5 ADD CALLDATALOAD PUSH8 0xFFFFFFFFFFFFFFFF DUP2 GT ISZERO PUSH3 0x1138 JUMPI PUSH1 0x0 DUP1 REVERT JUMPDEST PUSH3 0x1146 DUP7 DUP3 DUP8 ADD PUSH3 0xFBE JUMP JUMPDEST SWAP3 POP POP PUSH1 0x40 DUP5 ADD CALLDATALOAD SWAP1 POP SWAP3 POP SWAP3 POP SWAP3 JUMP JUMPDEST PUSH4 0x4E487B71 PUSH1 0xE0 SHL PUSH1 0x0 MSTORE PUSH1 0x32 PUSH1 0x4 MSTORE PUSH1 0x24 PUSH1 0x0 REVERT JUMPDEST PUSH4 0x4E487B71 PUSH1 0xE0 SHL PUSH1 0x0 MSTORE PUSH1 0x11 PUSH1 0x4 MSTORE PUSH1 0x24 PUSH1 0x0 REVERT JUMPDEST PUSH1 0x0 PUSH1 0x1 DUP3 ADD PUSH3 0x1198 JUMPI PUSH3 0x1198 PUSH3 0x116D JUMP JUMPDEST POP PUSH1 0x1 ADD SWAP1 JUMP JUMPDEST PUSH1 0x1 DUP2 DUP2 SHR SWAP1 DUP3 AND DUP1 PUSH3 0x11B4 JUMPI PUSH1 0x7F DUP3 AND SWAP2 POP JUMPDEST PUSH1 0x20 DUP3 LT DUP2 SUB PUSH3 0x11D5 JUMPI PUSH4 0x4E487B71 PUSH1 0xE0 SHL PUSH1 0x0 MSTORE PUSH1 0x22 PUSH1 0x4 MSTORE PUSH1 0x24 PUSH1 0x0 REVERT JUMPDEST POP SWAP2 SWAP1 POP JUMP JUMPDEST PUSH4 0x4E487B71 PUSH1 0xE0 SHL PUSH1 0x0 MSTORE PUSH1 0x21 PUSH1 0x4 MSTORE PUSH1 0x24 PUSH1 0x0 REVERT JUMPDEST PUSH1 0x1F DUP3 GT ISZERO PUSH3 0x123F JUMPI PUSH1 0x0 DUP2 DUP2 MSTORE PUSH1 0x20 DUP2 KECCAK256 PUSH1 0x1F DUP6 ADD PUSH1 0x5 SHR DUP2 ADD PUSH1 0x20 DUP7 LT ISZERO PUSH3 0x121A JUMPI POP DUP1 JUMPDEST PUSH1 0x1F DUP6 ADD PUSH1 0x5 SHR DUP3 ADD SWAP2 POP JUMPDEST DUP2 DUP2 LT ISZERO PUSH3 0x123B JUMPI DUP3 DUP2 SSTORE PUSH1 0x1 ADD PUSH3 0x1226 JUMP JUMPDEST POP POP POP JUMPDEST POP POP POP JUMP JUMPDEST DUP2 MLOAD PUSH8 0xFFFFFFFFFFFFFFFF DUP2 GT ISZERO PUSH3 0x1261 JUMPI PUSH3 0x1261 PUSH3 0xFA8 JUMP JUMPDEST PUSH3 0x1279 DUP2 PUSH3 0x1272 DUP5 SLOAD PUSH3 0x119F JUMP JUMPDEST DUP5 PUSH3 0x11F1 JUMP JUMPDEST PUSH1 0x20 DUP1 PUSH1 0x1F DUP4 GT PUSH1 0x1 DUP2 EQ PUSH3 0x12B1 JUMPI PUSH1 0x0 DUP5 ISZERO PUSH3 0x1298 JUMPI POP DUP6 DUP4 ADD MLOAD JUMPDEST PUSH1 0x0 NOT PUSH1 0x3 DUP7 SWAP1 SHL SHR NOT AND PUSH1 0x1 DUP6 SWAP1 SHL OR DUP6 SSTORE PUSH3 0x123B JUMP JUMPDEST PUSH1 0x0 DUP6 DUP2 MSTORE PUSH1 0x20 DUP2 KECCAK256 PUSH1 0x1F NOT DUP7 AND SWAP2 JUMPDEST DUP3 DUP2 LT ISZERO PUSH3 0x12E2 JUMPI DUP9 DUP7 ADD MLOAD DUP3 SSTORE SWAP5 DUP5 ADD SWAP5 PUSH1 0x1 SWAP1 SWAP2 ADD SWAP1 DUP5 ADD PUSH3 0x12C1 JUMP JUMPDEST POP DUP6 DUP3 LT ISZERO PUSH3 0x1301 JUMPI DUP8 DUP6 ADD MLOAD PUSH1 0x0 NOT PUSH1 0x3 DUP9 SWAP1 SHL PUSH1 0xF8 AND SHR NOT AND DUP2 SSTORE JUMPDEST POP POP POP POP POP PUSH1 0x1 SWAP1 DUP2 SHL ADD SWAP1 SSTORE POP JUMP JUMPDEST DUP1 DUP3 ADD DUP3 DUP2 SLT PUSH1 0x0 DUP4 SLT DUP1 ISZERO DUP3 AND DUP3 ISZERO DUP3 AND OR ISZERO PUSH3 0x1334 JUMPI PUSH3 0x1334 PUSH3 0x116D JUMP JUMPDEST POP POP SWAP3 SWAP2 POP POP JUMP JUMPDEST PUSH1 0x20 DUP1 DUP3 MSTORE PUSH1 0x17 SWAP1 DUP3 ADD MSTORE PUSH32 0x54686520676976656E20696420697320756E6B6E6F776E000000000000000000 PUSH1 0x40 DUP3 ADD MSTORE PUSH1 0x60 ADD SWAP1 JUMP INVALID PUSH1 0x80 PUSH1 0x40 MSTORE PUSH1 0x0 PUSH1 0xC SSTORE CALLVALUE DUP1 ISZERO PUSH3 0x16 JUMPI PUSH1 0x0 DUP1 REVERT JUMPDEST POP PUSH1 0x40 MLOAD PUSH3 0x252B CODESIZE SUB DUP1 PUSH3 0x252B DUP4 CODECOPY DUP2 ADD PUSH1 0x40 DUP2 SWAP1 MSTORE PUSH3 0x39 SWAP2 PUSH3 0x148 JUMP JUMPDEST PUSH1 0x0 DUP1 SLOAD CALLER PUSH1 0x1 PUSH1 0x1 PUSH1 0xA0 SHL SUB NOT SWAP2 DUP3 AND OR SWAP1 SWAP2 SSTORE PUSH1 0x1 DUP1 SLOAD SWAP1 SWAP2 AND PUSH1 0x1 PUSH1 0x1 PUSH1 0xA0 SHL SUB DUP6 AND OR SWAP1 SSTORE PUSH3 0x6D DUP3 PUSH3 0x96 JUMP JUMPDEST PUSH1 0xE DUP1 SLOAD PUSH1 0x1 PUSH1 0x1 PUSH1 0xA0 SHL SUB NOT AND PUSH1 0x1 PUSH1 0x1 PUSH1 0xA0 SHL SUB SWAP3 SWAP1 SWAP3 AND SWAP2 SWAP1 SWAP2 OR SWAP1 SSTORE POP PUSH3 0x192 SWAP1 POP JUMP JUMPDEST PUSH1 0x0 SLOAD PUSH1 0x1 PUSH1 0x1 PUSH1 0xA0 SHL SUB AND CALLER EQ PUSH3 0xF5 JUMPI PUSH1 0x40 MLOAD PUSH3 0x461BCD PUSH1 0xE5 SHL DUP2 MSTORE PUSH1 0x20 PUSH1 0x4 DUP3 ADD DUP2 SWAP1 MSTORE PUSH1 0x24 DUP3 ADD MSTORE PUSH32 0x4F776E61626C653A2063616C6C6572206973206E6F7420746865206F776E6572 PUSH1 0x44 DUP3 ADD MSTORE PUSH1 0x64 ADD PUSH1 0x40 MLOAD DUP1 SWAP2 SUB SWAP1 REVERT JUMPDEST PUSH1 0x1 PUSH1 0x1 PUSH1 0xA0 SHL SUB DUP2 AND PUSH3 0x109 JUMPI PUSH1 0x0 DUP1 REVERT JUMPDEST PUSH1 0x0 DUP1 SLOAD PUSH1 0x1 PUSH1 0x1 PUSH1 0xA0 SHL SUB NOT AND PUSH1 0x1 PUSH1 0x1 PUSH1 0xA0 SHL SUB SWAP3 SWAP1 SWAP3 AND SWAP2 SWAP1 SWAP2 OR SWAP1 SSTORE JUMP JUMPDEST DUP1 MLOAD PUSH1 0x1 PUSH1 0x1 PUSH1 0xA0 SHL SUB DUP2 AND DUP2 EQ PUSH3 0x143 JUMPI PUSH1 0x0 DUP1 REVERT JUMPDEST SWAP2 SWAP1 POP JUMP JUMPDEST PUSH1 0x0 DUP1 PUSH1 0x0 PUSH1 0x60 DUP5 DUP7 SUB SLT ISZERO PUSH3 0x15E JUMPI PUSH1 0x0 DUP1 REVERT JUMPDEST PUSH3 0x169 DUP5 PUSH3 0x12B JUMP JUMPDEST SWAP3 POP PUSH3 0x179 PUSH1 0x20 DUP6 ADD PUSH3 0x12B JUMP JUMPDEST SWAP2 POP PUSH3 0x189 PUSH1 0x40 DUP6 ADD PUSH3 0x12B JUMP JUMPDEST SWAP1 POP SWAP3 POP SWAP3 POP SWAP3 JUMP JUMPDEST PUSH2 0x2389 DUP1 PUSH3 0x1A2 PUSH1 0x0 CODECOPY PUSH1 0x0 RETURN INVALID PUSH1 0x80 PUSH1 0x40 MSTORE CALLVALUE DUP1 ISZERO PUSH2 0x10 JUMPI PUSH1 0x0 DUP1 REVERT JUMPDEST POP PUSH1 0x4 CALLDATASIZE LT PUSH2 0x158 JUMPI PUSH1 0x0 CALLDATALOAD PUSH1 0xE0 SHR DUP1 PUSH4 0xBAF5E78B GT PUSH2 0xC3 JUMPI DUP1 PUSH4 0xD9576E6B GT PUSH2 0x7C JUMPI DUP1 PUSH4 0xD9576E6B EQ PUSH2 0x2BE JUMPI DUP1 PUSH4 0xE79EF91D EQ PUSH2 0x2D1 JUMPI DUP1 PUSH4 0xF2FDE38B EQ PUSH2 0x2D9 JUMPI DUP1 PUSH4 0xF3523995 EQ PUSH2 0x2EC JUMPI DUP1 PUSH4 0xF4C1094D EQ PUSH2 0x2FF JUMPI DUP1 PUSH4 0xF6DDCEAF EQ PUSH2 0x312 JUMPI PUSH1 0x0 DUP1 REVERT JUMPDEST DUP1 PUSH4 0xBAF5E78B EQ PUSH2 0x262 JUMPI DUP1 PUSH4 0xBB96F2EC EQ PUSH2 0x275 JUMPI DUP1 PUSH4 0xBBEFF417 EQ PUSH2 0x288 JUMPI DUP1 PUSH4 0xC4F3C0F0 EQ PUSH2 0x29B JUMPI DUP1 PUSH4 0xD2CB224E EQ PUSH2 0x2A3 JUMPI DUP1 PUSH4 0xD7D42659 EQ PUSH2 0x2B6 JUMPI PUSH1 0x0 DUP1 REVERT JUMPDEST DUP1 PUSH4 0x63D6AFE2 GT PUSH2 0x115 JUMPI DUP1 PUSH4 0x63D6AFE2 EQ PUSH2 0x1E9 JUMPI DUP1 PUSH4 0x8A6D51B9 EQ PUSH2 0x1F1 JUMPI DUP1 PUSH4 0x8DA5CB5B EQ PUSH2 0x204 JUMPI DUP1 PUSH4 0x9C912146 EQ PUSH2 0x229 JUMPI DUP1 PUSH4 0xA8A2A71F EQ PUSH2 0x23C JUMPI DUP1 PUSH4 0xB87D94FE EQ PUSH2 0x24F JUMPI PUSH1 0x0 DUP1 REVERT JUMPDEST DUP1 PUSH4 0xB18F509 EQ PUSH2 0x15D JUMPI DUP1 PUSH4 0x23623887 EQ PUSH2 0x172 JUMPI DUP1 PUSH4 0x31AD8897 EQ PUSH2 0x185 JUMPI DUP1 PUSH4 0x3B5ADB38 EQ PUSH2 0x198 JUMPI DUP1 PUSH4 0x42BD3885 EQ PUSH2 0x1C1 JUMPI DUP1 PUSH4 0x530AB840 EQ PUSH2 0x1E1 JUMPI JUMPDEST PUSH1 0x0 DUP1 REVERT JUMPDEST PUSH2 0x170 PUSH2 0x16B CALLDATASIZE PUSH1 0x4 PUSH2 0x1C76 JUMP JUMPDEST PUSH2 0x348 JUMP JUMPDEST STOP JUMPDEST PUSH2 0x170 PUSH2 0x180 CALLDATASIZE PUSH1 0x4 PUSH2 0x1C98 JUMP JUMPDEST PUSH2 0x3B1 JUMP JUMPDEST PUSH2 0x170 PUSH2 0x193 CALLDATASIZE PUSH1 0x4 PUSH2 0x1C98 JUMP JUMPDEST PUSH2 0x3ED JUMP JUMPDEST PUSH2 0x1AB PUSH2 0x1A6 CALLDATASIZE PUSH1 0x4 PUSH2 0x1CB1 JUMP JUMPDEST PUSH2 0x52B JUMP JUMPDEST PUSH1 0x40 MLOAD PUSH2 0x1B8 SWAP2 SWAP1 PUSH2 0x1CE9 JUMP JUMPDEST PUSH1 0x40 MLOAD DUP1 SWAP2 SUB SWAP1 RETURN JUMPDEST PUSH2 0x170 PUSH2 0x1CF CALLDATASIZE PUSH1 0x4 PUSH2 0x1C98 JUMP JUMPDEST PUSH1 0x4 DUP1 SLOAD PUSH1 0xFF NOT AND PUSH1 0x1 OR SWAP1 SSTORE PUSH1 0x3 SSTORE JUMP JUMPDEST PUSH2 0x1AB PUSH2 0x7D1 JUMP JUMPDEST PUSH2 0x170 PUSH2 0x8B7 JUMP JUMPDEST PUSH2 0x170 PUSH2 0x1FF CALLDATASIZE PUSH1 0x4 PUSH2 0x1E33 JUMP JUMPDEST PUSH2 0x8F2 JUMP JUMPDEST PUSH1 0x0 SLOAD PUSH1 0x1 PUSH1 0x1 PUSH1 0xA0 SHL SUB AND JUMPDEST PUSH1 0x40 MLOAD PUSH1 0x1 PUSH1 0x1 PUSH1 0xA0 SHL SUB SWAP1 SWAP2 AND DUP2 MSTORE PUSH1 0x20 ADD PUSH2 0x1B8 JUMP JUMPDEST PUSH2 0x1AB PUSH2 0x237 CALLDATASIZE PUSH1 0x4 PUSH2 0x1CB1 JUMP JUMPDEST PUSH2 0x933 JUMP JUMPDEST PUSH2 0x1AB PUSH2 0x24A CALLDATASIZE PUSH1 0x4 PUSH2 0x1ED9 JUMP JUMPDEST PUSH2 0xB7A JUMP JUMPDEST PUSH2 0x170 PUSH2 0x25D CALLDATASIZE PUSH1 0x4 PUSH2 0x1C98 JUMP JUMPDEST PUSH2 0xE55 JUMP JUMPDEST PUSH1 0xE SLOAD PUSH2 0x211 SWAP1 PUSH1 0x1 PUSH1 0x1 PUSH1 0xA0 SHL SUB AND DUP2 JUMP JUMPDEST PUSH2 0x170 PUSH2 0x283 CALLDATASIZE PUSH1 0x4 PUSH2 0x1C98 JUMP JUMPDEST PUSH2 0x102E JUMP JUMPDEST PUSH2 0x1AB PUSH2 0x296 CALLDATASIZE PUSH1 0x4 PUSH2 0x1CB1 JUMP JUMPDEST PUSH2 0x116C JUMP JUMPDEST PUSH2 0x170 PUSH2 0x1434 JUMP JUMPDEST PUSH2 0x170 PUSH2 0x2B1 CALLDATASIZE PUSH1 0x4 PUSH2 0x1C98 JUMP JUMPDEST PUSH2 0x146F JUMP JUMPDEST PUSH2 0x170 PUSH2 0x15AD JUMP JUMPDEST PUSH2 0x170 PUSH2 0x2CC CALLDATASIZE PUSH1 0x4 PUSH2 0x1C98 JUMP JUMPDEST PUSH2 0x15E4 JUMP JUMPDEST PUSH2 0x170 PUSH2 0x166A JUMP JUMPDEST PUSH2 0x170 PUSH2 0x2E7 CALLDATASIZE PUSH1 0x4 PUSH2 0x1F05 JUMP JUMPDEST PUSH2 0x16A5 JUMP JUMPDEST PUSH2 0x1AB PUSH2 0x2FA CALLDATASIZE PUSH1 0x4 PUSH2 0x1C98 JUMP JUMPDEST PUSH2 0x1704 JUMP JUMPDEST PUSH2 0x170 PUSH2 0x30D CALLDATASIZE PUSH1 0x4 PUSH2 0x1C98 JUMP JUMPDEST PUSH2 0x19BE JUMP JUMPDEST PUSH2 0x338 PUSH2 0x320 CALLDATASIZE PUSH1 0x4 PUSH2 0x1C98 JUMP JUMPDEST PUSH1 0x0 SWAP1 DUP2 MSTORE PUSH1 0xB PUSH1 0x20 MSTORE PUSH1 0x40 SWAP1 KECCAK256 PUSH1 0x8 ADD SLOAD PUSH1 0xFF AND SWAP1 JUMP JUMPDEST PUSH1 0x40 MLOAD SWAP1 ISZERO ISZERO DUP2 MSTORE PUSH1 0x20 ADD PUSH2 0x1B8 JUMP JUMPDEST PUSH1 0x0 SLOAD PUSH1 0x1 PUSH1 0x1 PUSH1 0xA0 SHL SUB AND CALLER EQ PUSH2 0x37B JUMPI PUSH1 0x40 MLOAD PUSH3 0x461BCD PUSH1 0xE5 SHL DUP2 MSTORE PUSH1 0x4 ADD PUSH2 0x372 SWAP1 PUSH2 0x1F22 JUMP JUMPDEST PUSH1 0x40 MLOAD DUP1 SWAP2 SUB SWAP1 REVERT JUMPDEST PUSH1 0x9 DUP1 SLOAD PUSH2 0x100 PUSH2 0xFF00 NOT DUP3 AND DUP2 OR DUP4 SSTORE DUP4 SWAP3 SWAP2 PUSH2 0xFFFF NOT AND OR PUSH1 0x1 DUP4 PUSH1 0x3 DUP2 GT ISZERO PUSH2 0x3A9 JUMPI PUSH2 0x3A9 PUSH2 0x1CD3 JUMP JUMPDEST MUL OR SWAP1 SSTORE POP POP JUMP JUMPDEST PUSH1 0x0 SLOAD PUSH1 0x1 PUSH1 0x1 PUSH1 0xA0 SHL SUB AND CALLER EQ PUSH2 0x3DB JUMPI PUSH1 0x40 MLOAD PUSH3 0x461BCD PUSH1 0xE5 SHL DUP2 MSTORE PUSH1 0x4 ADD PUSH2 0x372 SWAP1 PUSH2 0x1F22 JUMP JUMPDEST PUSH1 0x6 DUP1 SLOAD PUSH1 0xFF NOT AND PUSH1 0x1 OR SWAP1 SSTORE PUSH1 0x5 SSTORE JUMP JUMPDEST PUSH1 0x1 SLOAD PUSH1 0x40 MLOAD PUSH4 0x47CD639B PUSH1 0xE0 SHL DUP2 MSTORE PUSH1 0x4 DUP2 ADD DUP4 SWAP1 MSTORE DUP3 SWAP2 PUSH1 0x0 SWAP2 PUSH1 0x1 PUSH1 0x1 PUSH1 0xA0 SHL SUB SWAP1 SWAP2 AND SWAP1 PUSH4 0x47CD639B SWAP1 PUSH1 0x24 ADD PUSH1 0x0 PUSH1 0x40 MLOAD DUP1 DUP4 SUB DUP2 DUP7 GAS STATICCALL ISZERO DUP1 ISZERO PUSH2 0x43B JUMPI RETURNDATASIZE PUSH1 0x0 DUP1 RETURNDATACOPY RETURNDATASIZE PUSH1 0x0 REVERT JUMPDEST POP POP POP POP PUSH1 0x40 MLOAD RETURNDATASIZE PUSH1 0x0 DUP3 RETURNDATACOPY PUSH1 0x1F RETURNDATASIZE SWAP1 DUP2 ADD PUSH1 0x1F NOT AND DUP3 ADD PUSH1 0x40 MSTORE PUSH2 0x463 SWAP2 SWAP1 DUP2 ADD SWAP1 PUSH2 0x1F8B JUMP JUMPDEST SWAP1 POP PUSH2 0x477 PUSH1 0x0 SLOAD PUSH1 0x1 PUSH1 0x1 PUSH1 0xA0 SHL SUB AND SWAP1 JUMP JUMPDEST PUSH1 0x1 PUSH1 0x1 PUSH1 0xA0 SHL SUB AND DUP2 PUSH1 0x20 ADD MLOAD PUSH1 0x1 PUSH1 0x1 PUSH1 0xA0 SHL SUB AND EQ PUSH2 0x4AB JUMPI PUSH1 0x40 MLOAD PUSH3 0x461BCD PUSH1 0xE5 SHL DUP2 MSTORE PUSH1 0x4 ADD PUSH2 0x372 SWAP1 PUSH2 0x2068 JUMP JUMPDEST PUSH1 0x0 SLOAD PUSH1 0x1 PUSH1 0x1 PUSH1 0xA0 SHL SUB AND CALLER EQ PUSH2 0x4D5 JUMPI PUSH1 0x40 MLOAD PUSH3 0x461BCD PUSH1 0xE5 SHL DUP2 MSTORE PUSH1 0x4 ADD PUSH2 0x372 SWAP1 PUSH2 0x1F22 JUMP JUMPDEST PUSH1 0x0 DUP4 DUP2 MSTORE PUSH1 0xB PUSH1 0x20 MSTORE PUSH1 0x40 SWAP1 KECCAK256 PUSH1 0x8 ADD SLOAD DUP4 SWAP1 PUSH1 0xFF AND PUSH2 0x508 JUMPI PUSH1 0x40 MLOAD PUSH3 0x461BCD PUSH1 0xE5 SHL DUP2 MSTORE PUSH1 0x4 ADD PUSH2 0x372 SWAP1 PUSH2 0x20B4 JUMP JUMPDEST POP POP POP PUSH1 0x0 SWAP1 DUP2 MSTORE PUSH1 0xB PUSH1 0x20 MSTORE PUSH1 0x40 DUP2 KECCAK256 PUSH1 0x4 DUP2 ADD DUP1 SLOAD PUSH1 0xFF NOT AND SWAP1 SSTORE PUSH1 0x3 ADD SSTORE JUMP JUMPDEST PUSH2 0x533 PUSH2 0x1AF8 JUMP JUMPDEST PUSH1 0x1 SLOAD PUSH1 0x40 MLOAD PUSH4 0x47CD639B PUSH1 0xE0 SHL DUP2 MSTORE PUSH1 0x4 DUP2 ADD DUP6 SWAP1 MSTORE DUP5 SWAP2 PUSH1 0x0 SWAP2 PUSH1 0x1 PUSH1 0x1 PUSH1 0xA0 SHL SUB SWAP1 SWAP2 AND SWAP1 PUSH4 0x47CD639B SWAP1 PUSH1 0x24 ADD PUSH1 0x0 PUSH1 0x40 MLOAD DUP1 DUP4 SUB DUP2 DUP7 GAS STATICCALL ISZERO DUP1 ISZERO PUSH2 0x581 JUMPI RETURNDATASIZE PUSH1 0x0 DUP1 RETURNDATACOPY RETURNDATASIZE PUSH1 0x0 REVERT JUMPDEST POP POP POP POP PUSH1 0x40 MLOAD RETURNDATASIZE PUSH1 0x0 DUP3 RETURNDATACOPY PUSH1 0x1F RETURNDATASIZE SWAP1 DUP2 ADD PUSH1 0x1F NOT AND DUP3 ADD PUSH1 0x40 MSTORE PUSH2 0x5A9 SWAP2 SWAP1 DUP2 ADD SWAP1 PUSH2 0x1F8B JUMP JUMPDEST SWAP1 POP PUSH2 0x5BD PUSH1 0x0 SLOAD PUSH1 0x1 PUSH1 0x1 PUSH1 0xA0 SHL SUB AND SWAP1 JUMP JUMPDEST PUSH1 0x1 PUSH1 0x1 PUSH1 0xA0 SHL SUB AND DUP2 PUSH1 0x20 ADD MLOAD PUSH1 0x1 PUSH1 0x1 PUSH1 0xA0 SHL SUB AND EQ PUSH2 0x5F1 JUMPI PUSH1 0x40 MLOAD PUSH3 0x461BCD PUSH1 0xE5 SHL DUP2 MSTORE PUSH1 0x4 ADD PUSH2 0x372 SWAP1 PUSH2 0x2068 JUMP JUMPDEST PUSH1 0x0 SLOAD PUSH1 0x1 PUSH1 0x1 PUSH1 0xA0 SHL SUB AND CALLER EQ PUSH2 0x61B JUMPI PUSH1 0x40 MLOAD PUSH3 0x461BCD PUSH1 0xE5 SHL DUP2 MSTORE PUSH1 0x4 ADD PUSH2 0x372 SWAP1 PUSH2 0x1F22 JUMP JUMPDEST PUSH1 0x0 DUP6 DUP2 MSTORE PUSH1 0xB PUSH1 0x20 MSTORE PUSH1 0x40 SWAP1 KECCAK256 PUSH1 0x8 ADD SLOAD PUSH1 0xFF AND ISZERO PUSH2 0x679 JUMPI PUSH1 0x40 DUP1 MLOAD DUP1 DUP3 ADD DUP3 MSTORE DUP6 DUP2 MSTORE PUSH1 0x1 PUSH1 0x20 DUP1 DUP4 ADD DUP3 DUP2 MSTORE PUSH1 0x0 DUP11 DUP2 MSTORE PUSH1 0xB SWAP1 SWAP3 MSTORE SWAP4 SWAP1 KECCAK256 SWAP2 MLOAD SWAP1 DUP3 ADD SSTORE SWAP1 MLOAD PUSH1 0x2 SWAP1 SWAP2 ADD DUP1 SLOAD PUSH1 0xFF NOT AND SWAP2 ISZERO ISZERO SWAP2 SWAP1 SWAP2 OR SWAP1 SSTORE PUSH2 0x6D8 JUMP JUMPDEST PUSH1 0x0 DUP6 DUP2 MSTORE PUSH1 0xB PUSH1 0x20 DUP2 DUP2 MSTORE PUSH1 0x40 DUP1 DUP5 KECCAK256 PUSH1 0x8 DUP2 ADD DUP1 SLOAD PUSH1 0x1 PUSH1 0xFF NOT SWAP2 DUP3 AND DUP2 OR SWAP1 SWAP3 SSTORE DUP12 DUP4 SSTORE DUP4 MLOAD DUP1 DUP6 ADD SWAP1 SWAP5 MSTORE DUP11 DUP5 MSTORE DUP4 DUP6 ADD DUP3 DUP2 MSTORE SWAP7 DUP13 SWAP1 MSTORE SWAP5 SWAP1 SWAP4 MSTORE SWAP1 MLOAD SWAP2 DUP2 ADD SWAP2 SWAP1 SWAP2 SSTORE SWAP2 MLOAD PUSH1 0x2 SWAP1 SWAP3 ADD DUP1 SLOAD SWAP1 SWAP2 AND SWAP2 ISZERO ISZERO SWAP2 SWAP1 SWAP2 OR SWAP1 SSTORE JUMPDEST PUSH1 0x0 DUP6 DUP2 MSTORE PUSH1 0xB PUSH1 0x20 SWAP1 DUP2 MSTORE PUSH1 0x40 SWAP2 DUP3 SWAP1 KECCAK256 DUP3 MLOAD PUSH1 0xC0 DUP2 ADD DUP5 MSTORE DUP2 SLOAD DUP2 MSTORE DUP4 MLOAD DUP1 DUP6 ADD DUP6 MSTORE PUSH1 0x1 DUP4 ADD SLOAD DUP2 MSTORE PUSH1 0x2 DUP4 ADD SLOAD PUSH1 0xFF SWAP1 DUP2 AND ISZERO ISZERO DUP3 DUP7 ADD MSTORE DUP3 DUP6 ADD SWAP2 SWAP1 SWAP2 MSTORE DUP5 MLOAD DUP1 DUP7 ADD DUP7 MSTORE PUSH1 0x3 DUP1 DUP6 ADD SLOAD DUP3 MSTORE PUSH1 0x4 DUP6 ADD SLOAD DUP4 AND ISZERO ISZERO DUP3 DUP8 ADD MSTORE DUP4 DUP8 ADD SWAP2 SWAP1 SWAP2 MSTORE DUP6 MLOAD DUP1 DUP8 ADD DUP8 MSTORE PUSH1 0x5 DUP6 ADD SLOAD DUP2 MSTORE PUSH1 0x6 DUP6 ADD SLOAD DUP4 AND ISZERO ISZERO SWAP6 DUP2 ADD SWAP6 SWAP1 SWAP6 MSTORE PUSH1 0x60 DUP4 ADD SWAP5 SWAP1 SWAP5 MSTORE DUP5 MLOAD DUP1 DUP7 ADD SWAP1 SWAP6 MSTORE PUSH1 0x7 DUP4 ADD DUP1 SLOAD SWAP3 SWAP6 SWAP4 SWAP5 PUSH1 0x80 DUP8 ADD SWAP5 SWAP4 SWAP2 SWAP3 DUP5 SWAP3 AND SWAP1 DUP2 GT ISZERO PUSH2 0x791 JUMPI PUSH2 0x791 PUSH2 0x1CD3 JUMP JUMPDEST PUSH1 0x3 DUP2 GT ISZERO PUSH2 0x7A2 JUMPI PUSH2 0x7A2 PUSH2 0x1CD3 JUMP JUMPDEST DUP2 MSTORE SWAP1 SLOAD PUSH2 0x100 SWAP1 DIV PUSH1 0xFF SWAP1 DUP2 AND ISZERO ISZERO PUSH1 0x20 SWAP3 DUP4 ADD MSTORE SWAP2 DUP4 MSTORE PUSH1 0x8 SWAP4 SWAP1 SWAP4 ADD SLOAD AND ISZERO ISZERO SWAP2 ADD MSTORE SWAP6 SWAP5 POP POP POP POP POP JUMP JUMPDEST PUSH2 0x7D9 PUSH2 0x1AF8 JUMP JUMPDEST PUSH1 0x40 DUP1 MLOAD PUSH1 0xC0 DUP2 ADD DUP3 MSTORE PUSH1 0x2 DUP1 SLOAD DUP3 MSTORE DUP3 MLOAD DUP1 DUP5 ADD DUP5 MSTORE PUSH1 0x3 DUP1 SLOAD DUP3 MSTORE PUSH1 0x4 SLOAD PUSH1 0xFF SWAP1 DUP2 AND ISZERO ISZERO PUSH1 0x20 DUP5 DUP2 ADD SWAP2 SWAP1 SWAP2 MSTORE DUP1 DUP7 ADD SWAP4 SWAP1 SWAP4 MSTORE DUP6 MLOAD DUP1 DUP8 ADD DUP8 MSTORE PUSH1 0x5 SLOAD DUP2 MSTORE PUSH1 0x6 SLOAD DUP3 AND ISZERO ISZERO DUP2 DUP6 ADD MSTORE DUP6 DUP8 ADD MSTORE DUP6 MLOAD DUP1 DUP8 ADD DUP8 MSTORE PUSH1 0x7 SLOAD DUP2 MSTORE PUSH1 0x8 SLOAD DUP3 AND ISZERO ISZERO SWAP4 DUP2 ADD SWAP4 SWAP1 SWAP4 MSTORE PUSH1 0x60 DUP6 ADD SWAP3 SWAP1 SWAP3 MSTORE DUP5 MLOAD DUP1 DUP7 ADD SWAP1 SWAP6 MSTORE PUSH1 0x9 DUP1 SLOAD SWAP5 SWAP6 SWAP4 SWAP5 PUSH1 0x80 DUP8 ADD SWAP5 SWAP4 SWAP2 SWAP3 DUP5 SWAP3 SWAP2 SWAP1 SWAP2 AND SWAP1 DUP2 GT ISZERO PUSH2 0x87B JUMPI PUSH2 0x87B PUSH2 0x1CD3 JUMP JUMPDEST PUSH1 0x3 DUP2 GT ISZERO PUSH2 0x88C JUMPI PUSH2 0x88C PUSH2 0x1CD3 JUMP JUMPDEST DUP2 MSTORE SWAP1 SLOAD PUSH1 0xFF PUSH2 0x100 SWAP1 SWAP2 DIV DUP2 AND ISZERO ISZERO PUSH1 0x20 SWAP3 DUP4 ADD MSTORE SWAP2 DUP4 MSTORE PUSH1 0x8 SWAP4 SWAP1 SWAP4 ADD SLOAD AND ISZERO ISZERO SWAP2 ADD MSTORE SWAP2 SWAP1 POP JUMP JUMPDEST PUSH1 0x0 SLOAD PUSH1 0x1 PUSH1 0x1 PUSH1 0xA0 SHL SUB AND CALLER EQ PUSH2 0x8E1 JUMPI PUSH1 0x40 MLOAD PUSH3 0x461BCD PUSH1 0xE5 SHL DUP2 MSTORE PUSH1 0x4 ADD PUSH2 0x372 SWAP1 PUSH2 0x1F22 JUMP JUMPDEST PUSH1 0x6 DUP1 SLOAD PUSH1 0xFF NOT AND SWAP1 SSTORE PUSH1 0x0 PUSH1 0x5 SSTORE JUMP JUMPDEST PUSH32 0xED626D88012D28D3424F277F9768A0A2CA34F8073EEC8C80C3C7C8EFF656E46 DUP4 DUP6 DUP4 PUSH1 0x40 MLOAD PUSH2 0x925 SWAP4 SWAP3 SWAP2 SWAP1 PUSH2 0x2146 JUMP JUMPDEST PUSH1 0x40 MLOAD DUP1 SWAP2 SUB SWAP1 LOG1 POP POP POP POP JUMP JUMPDEST PUSH2 0x93B PUSH2 0x1AF8 JUMP JUMPDEST PUSH1 0x0 SLOAD PUSH1 0x1 PUSH1 0x1 PUSH1 0xA0 SHL SUB AND CALLER EQ PUSH2 0x965 JUMPI PUSH1 0x40 MLOAD PUSH3 0x461BCD PUSH1 0xE5 SHL DUP2 MSTORE PUSH1 0x4 ADD PUSH2 0x372 SWAP1 PUSH2 0x1F22 JUMP JUMPDEST PUSH1 0x1 SLOAD PUSH1 0x40 MLOAD PUSH4 0x47CD639B PUSH1 0xE0 SHL DUP2 MSTORE PUSH1 0x4 DUP2 ADD DUP6 SWAP1 MSTORE DUP5 SWAP2 PUSH1 0x0 SWAP2 PUSH1 0x1 PUSH1 0x1 PUSH1 0xA0 SHL SUB SWAP1 SWAP2 AND SWAP1 PUSH4 0x47CD639B SWAP1 PUSH1 0x24 ADD PUSH1 0x0 PUSH1 0x40 MLOAD DUP1 DUP4 SUB DUP2 DUP7 GAS STATICCALL ISZERO DUP1 ISZERO PUSH2 0x9B3 JUMPI RETURNDATASIZE PUSH1 0x0 DUP1 RETURNDATACOPY RETURNDATASIZE PUSH1 0x0 REVERT JUMPDEST POP POP POP POP PUSH1 0x40 MLOAD RETURNDATASIZE PUSH1 0x0 DUP3 RETURNDATACOPY PUSH1 0x1F RETURNDATASIZE SWAP1 DUP2 ADD PUSH1 0x1F NOT AND DUP3 ADD PUSH1 0x40 MSTORE PUSH2 0x9DB SWAP2 SWAP1 DUP2 ADD SWAP1 PUSH2 0x1F8B JUMP JUMPDEST SWAP1 POP PUSH2 0x9EF PUSH1 0x0 SLOAD PUSH1 0x1 PUSH1 0x1 PUSH1 0xA0 SHL SUB AND SWAP1 JUMP JUMPDEST PUSH1 0x1 PUSH1 0x1 PUSH1 0xA0 SHL SUB AND DUP2 PUSH1 0x20 ADD MLOAD PUSH1 0x1 PUSH1 0x1 PUSH1 0xA0 SHL SUB AND EQ PUSH2 0xA23 JUMPI PUSH1 0x40 MLOAD PUSH3 0x461BCD PUSH1 0xE5 SHL DUP2 MSTORE PUSH1 0x4 ADD PUSH2 0x372 SWAP1 PUSH2 0x2068 JUMP JUMPDEST PUSH1 0x0 DUP6 DUP2 MSTORE PUSH1 0xB PUSH1 0x20 MSTORE PUSH1 0x40 SWAP1 KECCAK256 PUSH1 0x8 ADD SLOAD PUSH1 0xFF AND ISZERO PUSH2 0xA83 JUMPI PUSH1 0x40 DUP1 MLOAD DUP1 DUP3 ADD DUP3 MSTORE DUP6 DUP2 MSTORE PUSH1 0x1 PUSH1 0x20 DUP1 DUP4 ADD SWAP2 DUP3 MSTORE PUSH1 0x0 DUP10 DUP2 MSTORE PUSH1 0xB SWAP1 SWAP2 MSTORE SWAP3 SWAP1 SWAP3 KECCAK256 SWAP1 MLOAD PUSH1 0x3 DUP3 ADD SSTORE SWAP1 MLOAD PUSH1 0x4 SWAP1 SWAP2 ADD DUP1 SLOAD PUSH1 0xFF NOT AND SWAP2 ISZERO ISZERO SWAP2 SWAP1 SWAP2 OR SWAP1 SSTORE PUSH2 0x6D8 JUMP JUMPDEST PUSH1 0x0 DUP6 DUP2 MSTORE PUSH1 0xB PUSH1 0x20 DUP2 DUP2 MSTORE PUSH1 0x40 DUP1 DUP5 KECCAK256 PUSH1 0x8 DUP2 ADD DUP1 SLOAD PUSH1 0x1 PUSH1 0xFF NOT SWAP2 DUP3 AND DUP2 OR SWAP1 SWAP3 SSTORE DUP12 DUP4 SSTORE DUP4 MLOAD DUP1 DUP6 ADD DUP6 MSTORE DUP12 DUP2 MSTORE DUP1 DUP7 ADD DUP4 DUP2 MSTORE SWAP8 DUP14 SWAP1 MSTORE SWAP6 DUP6 MSTORE SWAP5 MLOAD PUSH1 0x3 DUP1 DUP5 ADD DUP3 SWAP1 SSTORE SWAP7 MLOAD PUSH1 0x4 DUP5 ADD DUP1 SLOAD SWAP1 SWAP8 AND SWAP1 ISZERO ISZERO SWAP1 DUP2 OR SWAP1 SWAP7 SSTORE DUP4 MLOAD PUSH1 0xC0 DUP2 ADD DUP6 MSTORE DUP13 DUP2 MSTORE DUP5 MLOAD DUP1 DUP7 ADD DUP7 MSTORE SWAP3 DUP5 ADD SLOAD DUP4 MSTORE PUSH1 0x2 DUP5 ADD SLOAD PUSH1 0xFF SWAP1 DUP2 AND ISZERO ISZERO DUP5 DUP9 ADD MSTORE DUP2 DUP8 ADD SWAP4 SWAP1 SWAP4 MSTORE DUP5 MLOAD DUP1 DUP7 ADD DUP7 MSTORE SWAP2 DUP3 MSTORE SWAP6 DUP3 AND ISZERO ISZERO DUP2 DUP7 ADD MSTORE DUP6 DUP5 ADD MSTORE DUP3 MLOAD DUP1 DUP5 ADD DUP5 MSTORE PUSH1 0x5 DUP4 ADD SLOAD DUP2 MSTORE PUSH1 0x6 DUP4 ADD SLOAD DUP3 AND ISZERO ISZERO SWAP5 DUP2 ADD SWAP5 SWAP1 SWAP5 MSTORE PUSH1 0x60 DUP6 ADD SWAP4 SWAP1 SWAP4 MSTORE DUP2 MLOAD DUP1 DUP4 ADD SWAP1 SWAP3 MSTORE PUSH1 0x7 DUP2 ADD DUP1 SLOAD SWAP5 SWAP6 SWAP2 SWAP5 PUSH1 0x80 DUP8 ADD SWAP5 SWAP2 SWAP3 DUP5 SWAP3 SWAP2 SWAP1 SWAP2 AND SWAP1 DUP2 GT ISZERO PUSH2 0x791 JUMPI PUSH2 0x791 PUSH2 0x1CD3 JUMP JUMPDEST PUSH2 0xB82 PUSH2 0x1AF8 JUMP JUMPDEST PUSH1 0x0 SLOAD PUSH1 0x1 PUSH1 0x1 PUSH1 0xA0 SHL SUB AND CALLER EQ PUSH2 0xBAC JUMPI PUSH1 0x40 MLOAD PUSH3 0x461BCD PUSH1 0xE5 SHL DUP2 MSTORE PUSH1 0x4 ADD PUSH2 0x372 SWAP1 PUSH2 0x1F22 JUMP JUMPDEST PUSH1 0x1 SLOAD PUSH1 0x40 MLOAD PUSH4 0x47CD639B PUSH1 0xE0 SHL DUP2 MSTORE PUSH1 0x4 DUP2 ADD DUP6 SWAP1 MSTORE DUP5 SWAP2 PUSH1 0x0 SWAP2 PUSH1 0x1 PUSH1 0x1 PUSH1 0xA0 SHL SUB SWAP1 SWAP2 AND SWAP1 PUSH4 0x47CD639B SWAP1 PUSH1 0x24 ADD PUSH1 0x0 PUSH1 0x40 MLOAD DUP1 DUP4 SUB DUP2 DUP7 GAS STATICCALL ISZERO DUP1 ISZERO PUSH2 0xBFA JUMPI RETURNDATASIZE PUSH1 0x0 DUP1 RETURNDATACOPY RETURNDATASIZE PUSH1 0x0 REVERT JUMPDEST POP POP POP POP PUSH1 0x40 MLOAD RETURNDATASIZE PUSH1 0x0 DUP3 RETURNDATACOPY PUSH1 0x1F RETURNDATASIZE SWAP1 DUP2 ADD PUSH1 0x1F NOT AND DUP3 ADD PUSH1 0x40 MSTORE PUSH2 0xC22 SWAP2 SWAP1 DUP2 ADD SWAP1 PUSH2 0x1F8B JUMP JUMPDEST SWAP1 POP PUSH2 0xC36 PUSH1 0x0 SLOAD PUSH1 0x1 PUSH1 0x1 PUSH1 0xA0 SHL SUB AND SWAP1 JUMP JUMPDEST PUSH1 0x1 PUSH1 0x1 PUSH1 0xA0 SHL SUB AND DUP2 PUSH1 0x20 ADD MLOAD PUSH1 0x1 PUSH1 0x1 PUSH1 0xA0 SHL SUB AND EQ PUSH2 0xC6A JUMPI PUSH1 0x40 MLOAD PUSH3 0x461BCD PUSH1 0xE5 SHL DUP2 MSTORE PUSH1 0x4 ADD PUSH2 0x372 SWAP1 PUSH2 0x2068 JUMP JUMPDEST PUSH1 0x0 DUP6 DUP2 MSTORE PUSH1 0xB PUSH1 0x20 MSTORE PUSH1 0x40 SWAP1 KECCAK256 PUSH1 0x8 ADD SLOAD PUSH1 0xFF AND ISZERO PUSH2 0xD04 JUMPI PUSH1 0x40 MLOAD DUP1 PUSH1 0x40 ADD PUSH1 0x40 MSTORE DUP1 DUP6 PUSH1 0x3 DUP2 GT ISZERO PUSH2 0xCA1 JUMPI PUSH2 0xCA1 PUSH2 0x1CD3 JUMP JUMPDEST DUP2 MSTORE PUSH1 0x1 PUSH1 0x20 SWAP2 DUP3 ADD DUP2 SWAP1 MSTORE PUSH1 0x0 DUP9 DUP2 MSTORE PUSH1 0xB SWAP1 SWAP3 MSTORE PUSH1 0x40 SWAP1 SWAP2 KECCAK256 DUP3 MLOAD PUSH1 0x7 SWAP1 SWAP2 ADD DUP1 SLOAD SWAP1 SWAP3 DUP4 SWAP2 PUSH1 0xFF NOT AND SWAP1 DUP4 PUSH1 0x3 DUP2 GT ISZERO PUSH2 0xCE0 JUMPI PUSH2 0xCE0 PUSH2 0x1CD3 JUMP JUMPDEST MUL OR SWAP1 SSTORE POP PUSH1 0x20 SWAP2 SWAP1 SWAP2 ADD MLOAD DUP2 SLOAD SWAP1 ISZERO ISZERO PUSH2 0x100 MUL PUSH2 0xFF00 NOT SWAP1 SWAP2 AND OR SWAP1 SSTORE PUSH2 0x6D8 JUMP JUMPDEST PUSH1 0x0 DUP6 DUP2 MSTORE PUSH1 0xB PUSH1 0x20 MSTORE PUSH1 0x40 SWAP1 DUP2 SWAP1 KECCAK256 PUSH1 0x8 DUP2 ADD DUP1 SLOAD PUSH1 0xFF NOT AND PUSH1 0x1 OR SWAP1 SSTORE DUP7 SWAP1 SSTORE DUP1 MLOAD DUP1 DUP3 ADD SWAP1 SWAP2 MSTORE DUP1 DUP6 PUSH1 0x3 DUP2 GT ISZERO PUSH2 0xD41 JUMPI PUSH2 0xD41 PUSH2 0x1CD3 JUMP JUMPDEST DUP2 MSTORE PUSH1 0x1 PUSH1 0x20 SWAP2 DUP3 ADD DUP2 SWAP1 MSTORE PUSH1 0x0 DUP9 DUP2 MSTORE PUSH1 0xB SWAP1 SWAP3 MSTORE PUSH1 0x40 SWAP1 SWAP2 KECCAK256 DUP3 MLOAD PUSH1 0x7 SWAP1 SWAP2 ADD DUP1 SLOAD SWAP1 SWAP3 DUP4 SWAP2 PUSH1 0xFF NOT AND SWAP1 DUP4 PUSH1 0x3 DUP2 GT ISZERO PUSH2 0xD80 JUMPI PUSH2 0xD80 PUSH2 0x1CD3 JUMP JUMPDEST MUL OR SWAP1 SSTORE POP PUSH1 0x20 SWAP2 DUP3 ADD MLOAD DUP2 SLOAD SWAP1 ISZERO ISZERO PUSH2 0x100 MUL PUSH2 0xFF00 NOT SWAP1 SWAP2 AND OR SWAP1 SSTORE PUSH1 0x0 DUP7 DUP2 MSTORE PUSH1 0xB DUP3 MSTORE PUSH1 0x40 SWAP1 DUP2 SWAP1 KECCAK256 DUP2 MLOAD PUSH1 0xC0 DUP2 ADD DUP4 MSTORE DUP2 SLOAD DUP2 MSTORE DUP3 MLOAD DUP1 DUP5 ADD DUP5 MSTORE PUSH1 0x1 DUP4 ADD SLOAD DUP2 MSTORE PUSH1 0x2 DUP4 ADD SLOAD PUSH1 0xFF SWAP1 DUP2 AND ISZERO ISZERO DUP3 DUP8 ADD MSTORE DUP3 DUP7 ADD SWAP2 SWAP1 SWAP2 MSTORE DUP4 MLOAD DUP1 DUP6 ADD DUP6 MSTORE PUSH1 0x3 DUP1 DUP6 ADD SLOAD DUP3 MSTORE PUSH1 0x4 DUP6 ADD SLOAD DUP4 AND ISZERO ISZERO DUP3 DUP9 ADD MSTORE DUP4 DUP7 ADD SWAP2 SWAP1 SWAP2 MSTORE DUP5 MLOAD DUP1 DUP7 ADD DUP7 MSTORE PUSH1 0x5 DUP6 ADD SLOAD DUP2 MSTORE PUSH1 0x6 DUP6 ADD SLOAD DUP4 AND ISZERO ISZERO SWAP7 DUP2 ADD SWAP7 SWAP1 SWAP7 MSTORE PUSH1 0x60 DUP4 ADD SWAP6 SWAP1 SWAP6 MSTORE DUP4 MLOAD DUP1 DUP6 ADD SWAP1 SWAP5 MSTORE PUSH1 0x7 DUP4 ADD DUP1 SLOAD SWAP3 SWAP6 SWAP4 SWAP5 PUSH1 0x80 DUP8 ADD SWAP5 SWAP1 SWAP4 SWAP2 SWAP3 DUP5 SWAP3 AND SWAP1 DUP2 GT ISZERO PUSH2 0x791 JUMPI PUSH2 0x791 PUSH2 0x1CD3 JUMP JUMPDEST PUSH1 0x1 SLOAD PUSH1 0x40 MLOAD PUSH4 0x47CD639B PUSH1 0xE0 SHL DUP2 MSTORE PUSH1 0x4 DUP2 ADD DUP4 SWAP1 MSTORE DUP3 SWAP2 PUSH1 0x0 SWAP2 PUSH1 0x1 PUSH1 0x1 PUSH1 0xA0 SHL SUB SWAP1 SWAP2 AND SWAP1 PUSH4 0x47CD639B SWAP1 PUSH1 0x24 ADD PUSH1 0x0 PUSH1 0x40 MLOAD DUP1 DUP4 SUB DUP2 DUP7 GAS STATICCALL ISZERO DUP1 ISZERO PUSH2 0xEA3 JUMPI RETURNDATASIZE PUSH1 0x0 DUP1 RETURNDATACOPY RETURNDATASIZE PUSH1 0x0 REVERT JUMPDEST POP POP POP POP PUSH1 0x40 MLOAD RETURNDATASIZE PUSH1 0x0 DUP3 RETURNDATACOPY PUSH1 0x1F RETURNDATASIZE SWAP1 DUP2 ADD PUSH1 0x1F NOT AND DUP3 ADD PUSH1 0x40 MSTORE PUSH2 0xECB SWAP2 SWAP1 DUP2 ADD SWAP1 PUSH2 0x1F8B JUMP JUMPDEST SWAP1 POP PUSH2 0xEDF PUSH1 0x0 SLOAD PUSH1 0x1 PUSH1 0x1 PUSH1 0xA0 SHL SUB AND SWAP1 JUMP JUMPDEST PUSH1 0x1 PUSH1 0x1 PUSH1 0xA0 SHL SUB AND DUP2 PUSH1 0x20 ADD MLOAD PUSH1 0x1 PUSH1 0x1 PUSH1 0xA0 SHL SUB AND EQ PUSH2 0xF13 JUMPI PUSH1 0x40 MLOAD PUSH3 0x461BCD PUSH1 0xE5 SHL DUP2 MSTORE PUSH1 0x4 ADD PUSH2 0x372 SWAP1 PUSH2 0x2068 JUMP JUMPDEST PUSH1 0x40 DUP1 MLOAD DUP1 DUP3 ADD SWAP1 SWAP2 MSTORE DUP4 DUP2 MSTORE PUSH1 0x60 PUSH1 0x20 DUP1 DUP4 ADD DUP3 DUP2 MSTORE PUSH1 0xD DUP1 SLOAD PUSH1 0x1 DUP2 ADD DUP3 SSTORE PUSH1 0x0 SWAP2 SWAP1 SWAP2 MSTORE DUP5 MLOAD PUSH32 0xD7B6990105719101DABEB77144F2A3385C8033ACD3AF97E9423A695E81AD1EB5 PUSH1 0x2 SWAP1 SWAP3 MUL SWAP2 DUP3 ADD SWAP1 DUP2 SSTORE SWAP2 MLOAD DUP1 MLOAD SWAP5 SWAP6 SWAP5 DUP6 SWAP5 PUSH2 0xF9F SWAP4 PUSH32 0xD7B6990105719101DABEB77144F2A3385C8033ACD3AF97E9423A695E81AD1EB6 ADD SWAP3 ADD SWAP1 PUSH2 0x1B8B JUMP JUMPDEST POP POP PUSH1 0xE SLOAD PUSH1 0xC SLOAD PUSH1 0x40 MLOAD PUSH4 0xF75C05B PUSH1 0xE4 SHL DUP2 MSTORE ADDRESS PUSH1 0x4 DUP3 ADD MSTORE PUSH1 0x24 DUP2 ADD SWAP2 SWAP1 SWAP2 MSTORE PUSH1 0x44 DUP2 ADD DUP9 SWAP1 MSTORE PUSH1 0x1 PUSH1 0x1 PUSH1 0xA0 SHL SUB SWAP1 SWAP2 AND SWAP2 POP PUSH4 0xF75C05B0 SWAP1 PUSH1 0x64 ADD PUSH1 0x0 PUSH1 0x40 MLOAD DUP1 DUP4 SUB DUP2 PUSH1 0x0 DUP8 DUP1 EXTCODESIZE ISZERO DUP1 ISZERO PUSH2 0xFF9 JUMPI PUSH1 0x0 DUP1 REVERT JUMPDEST POP GAS CALL ISZERO DUP1 ISZERO PUSH2 0x100D JUMPI RETURNDATASIZE PUSH1 0x0 DUP1 RETURNDATACOPY RETURNDATASIZE PUSH1 0x0 REVERT JUMPDEST POP POP PUSH1 0xC DUP1 SLOAD SWAP3 POP SWAP1 POP PUSH1 0x0 PUSH2 0x1022 DUP4 PUSH2 0x218F JUMP JUMPDEST SWAP2 SWAP1 POP SSTORE POP POP POP POP POP POP JUMP JUMPDEST PUSH1 0x1 SLOAD PUSH1 0x40 MLOAD PUSH4 0x47CD639B PUSH1 0xE0 SHL DUP2 MSTORE PUSH1 0x4 DUP2 ADD DUP4 SWAP1 MSTORE DUP3 SWAP2 PUSH1 0x0 SWAP2 PUSH1 0x1 PUSH1 0x1 PUSH1 0xA0 SHL SUB SWAP1 SWAP2 AND SWAP1 PUSH4 0x47CD639B SWAP1 PUSH1 0x24 ADD PUSH1 0x0 PUSH1 0x40 MLOAD DUP1 DUP4 SUB DUP2 DUP7 GAS STATICCALL ISZERO DUP1 ISZERO PUSH2 0x107C JUMPI RETURNDATASIZE PUSH1 0x0 DUP1 RETURNDATACOPY RETURNDATASIZE PUSH1 0x0 REVERT JUMPDEST POP POP POP POP PUSH1 0x40 MLOAD RETURNDATASIZE PUSH1 0x0 DUP3 RETURNDATACOPY PUSH1 0x1F RETURNDATASIZE SWAP1 DUP2 ADD PUSH1 0x1F NOT AND DUP3 ADD PUSH1 0x40 MSTORE PUSH2 0x10A4 SWAP2 SWAP1 DUP2 ADD SWAP1 PUSH2 0x1F8B JUMP JUMPDEST SWAP1 POP PUSH2 0x10B8 PUSH1 0x0 SLOAD PUSH1 0x1 PUSH1 0x1 PUSH1 0xA0 SHL SUB AND SWAP1 JUMP JUMPDEST PUSH1 0x1 PUSH1 0x1 PUSH1 0xA0 SHL SUB AND DUP2 PUSH1 0x20 ADD MLOAD PUSH1 0x1 PUSH1 0x1 PUSH1 0xA0 SHL SUB AND EQ PUSH2 0x10EC JUMPI PUSH1 0x40 MLOAD PUSH3 0x461BCD PUSH1 0xE5 SHL DUP2 MSTORE PUSH1 0x4 ADD PUSH2 0x372 SWAP1 PUSH2 0x2068 JUMP JUMPDEST PUSH1 0x0 SLOAD PUSH1 0x1 PUSH1 0x1 PUSH1 0xA0 SHL SUB AND CALLER EQ PUSH2 0x1116 JUMPI PUSH1 0x40 MLOAD PUSH3 0x461BCD PUSH1 0xE5 SHL DUP2 MSTORE PUSH1 0x4 ADD PUSH2 0x372 SWAP1 PUSH2 0x1F22 JUMP JUMPDEST PUSH1 0x0 DUP4 DUP2 MSTORE PUSH1 0xB PUSH1 0x20 MSTORE PUSH1 0x40 SWAP1 KECCAK256 PUSH1 0x8 ADD SLOAD DUP4 SWAP1 PUSH1 0xFF AND PUSH2 0x1149 JUMPI PUSH1 0x40 MLOAD PUSH3 0x461BCD PUSH1 0xE5 SHL DUP2 MSTORE PUSH1 0x4 ADD PUSH2 0x372 SWAP1 PUSH2 0x20B4 JUMP JUMPDEST POP POP POP PUSH1 0x0 SWAP1 DUP2 MSTORE PUSH1 0xB PUSH1 0x20 MSTORE PUSH1 0x40 DUP2 KECCAK256 PUSH1 0x6 DUP2 ADD DUP1 SLOAD PUSH1 0xFF NOT AND SWAP1 SSTORE PUSH1 0x5 ADD SSTORE JUMP JUMPDEST PUSH2 0x1174 PUSH2 0x1AF8 JUMP JUMPDEST PUSH1 0x0 SLOAD PUSH1 0x1 PUSH1 0x1 PUSH1 0xA0 SHL SUB AND CALLER EQ PUSH2 0x119E JUMPI PUSH1 0x40 MLOAD PUSH3 0x461BCD PUSH1 0xE5 SHL DUP2 MSTORE PUSH1 0x4 ADD PUSH2 0x372 SWAP1 PUSH2 0x1F22 JUMP JUMPDEST PUSH1 0x1 SLOAD PUSH1 0x40 MLOAD PUSH4 0x47CD639B PUSH1 0xE0 SHL DUP2 MSTORE PUSH1 0x4 DUP2 ADD DUP6 SWAP1 MSTORE DUP5 SWAP2 PUSH1 0x0 SWAP2 PUSH1 0x1 PUSH1 0x1 PUSH1 0xA0 SHL SUB SWAP1 SWAP2 AND SWAP1 PUSH4 0x47CD639B SWAP1 PUSH1 0x24 ADD PUSH1 0x0 PUSH1 0x40 MLOAD DUP1 DUP4 SUB DUP2 DUP7 GAS STATICCALL ISZERO DUP1 ISZERO PUSH2 0x11EC JUMPI RETURNDATASIZE PUSH1 0x0 DUP1 RETURNDATACOPY RETURNDATASIZE PUSH1 0x0 REVERT JUMPDEST POP POP POP POP PUSH1 0x40 MLOAD RETURNDATASIZE PUSH1 0x0 DUP3 RETURNDATACOPY PUSH1 0x1F RETURNDATASIZE SWAP1 DUP2 ADD PUSH1 0x1F NOT AND DUP3 ADD PUSH1 0x40 MSTORE PUSH2 0x1214 SWAP2 SWAP1 DUP2 ADD SWAP1 PUSH2 0x1F8B JUMP JUMPDEST SWAP1 POP PUSH2 0x1228 PUSH1 0x0 SLOAD PUSH1 0x1 PUSH1 0x1 PUSH1 0xA0 SHL SUB AND SWAP1 JUMP JUMPDEST PUSH1 0x1 PUSH1 0x1 PUSH1 0xA0 SHL SUB AND DUP2 PUSH1 0x20 ADD MLOAD PUSH1 0x1 PUSH1 0x1 PUSH1 0xA0 SHL SUB AND EQ PUSH2 0x125C JUMPI PUSH1 0x40 MLOAD PUSH3 0x461BCD PUSH1 0xE5 SHL DUP2 MSTORE PUSH1 0x4 ADD PUSH2 0x372 SWAP1 PUSH2 0x2068 JUMP JUMPDEST DUP4 PUSH3 0x15180 DUP1 DUP3 GT PUSH2 0x1280 JUMPI PUSH1 0x40 MLOAD PUSH3 0x461BCD PUSH1 0xE5 SHL DUP2 MSTORE PUSH1 0x4 ADD PUSH2 0x372 SWAP1 PUSH2 0x21BC JUMP JUMPDEST PUSH1 0x0 DUP8 DUP2 MSTORE PUSH1 0xB PUSH1 0x20 MSTORE PUSH1 0x40 SWAP1 KECCAK256 PUSH1 0x8 ADD SLOAD PUSH1 0xFF AND ISZERO PUSH2 0x12E0 JUMPI PUSH1 0x40 DUP1 MLOAD DUP1 DUP3 ADD DUP3 MSTORE DUP8 DUP2 MSTORE PUSH1 0x1 PUSH1 0x20 DUP1 DUP4 ADD SWAP2 DUP3 MSTORE PUSH1 0x0 DUP12 DUP2 MSTORE PUSH1 0xB SWAP1 SWAP2 MSTORE SWAP3 SWAP1 SWAP3 KECCAK256 SWAP1 MLOAD PUSH1 0x5 DUP3 ADD SSTORE SWAP1 MLOAD PUSH1 0x6 SWAP1 SWAP2 ADD DUP1 SLOAD PUSH1 0xFF NOT AND SWAP2 ISZERO ISZERO SWAP2 SWAP1 SWAP2 OR SWAP1 SSTORE PUSH2 0x1339 JUMP JUMPDEST PUSH1 0x0 DUP8 DUP2 MSTORE PUSH1 0xB PUSH1 0x20 DUP2 DUP2 MSTORE PUSH1 0x40 DUP1 DUP5 KECCAK256 PUSH1 0x8 DUP2 ADD DUP1 SLOAD PUSH1 0x1 PUSH1 0xFF NOT SWAP2 DUP3 AND DUP2 OR SWAP1 SWAP3 SSTORE DUP14 DUP4 SSTORE DUP4 MLOAD DUP1 DUP6 ADD SWAP1 SWAP5 MSTORE DUP13 DUP5 MSTORE DUP4 DUP6 ADD SWAP2 DUP3 MSTORE SWAP6 DUP14 SWAP1 MSTORE SWAP4 SWAP1 SWAP3 MSTORE MLOAD PUSH1 0x5 DUP3 ADD SSTORE SWAP1 MLOAD PUSH1 0x6 SWAP1 SWAP2 ADD DUP1 SLOAD SWAP1 SWAP3 AND SWAP1 ISZERO ISZERO OR SWAP1 SSTORE JUMPDEST PUSH1 0x0 DUP8 DUP2 MSTORE PUSH1 0xB PUSH1 0x20 SWAP1 DUP2 MSTORE PUSH1 0x40 SWAP2 DUP3 SWAP1 KECCAK256 DUP3 MLOAD PUSH1 0xC0 DUP2 ADD DUP5 MSTORE DUP2 SLOAD DUP2 MSTORE DUP4 MLOAD DUP1 DUP6 ADD DUP6 MSTORE PUSH1 0x1 DUP4 ADD SLOAD DUP2 MSTORE PUSH1 0x2 DUP4 ADD SLOAD PUSH1 0xFF SWAP1 DUP2 AND ISZERO ISZERO DUP3 DUP7 ADD MSTORE DUP3 DUP6 ADD SWAP2 SWAP1 SWAP2 MSTORE DUP5 MLOAD DUP1 DUP7 ADD DUP7 MSTORE PUSH1 0x3 DUP1 DUP6 ADD SLOAD DUP3 MSTORE PUSH1 0x4 DUP6 ADD SLOAD DUP4 AND ISZERO ISZERO DUP3 DUP8 ADD MSTORE DUP4 DUP8 ADD SWAP2 SWAP1 SWAP2 MSTORE DUP6 MLOAD DUP1 DUP8 ADD DUP8 MSTORE PUSH1 0x5 DUP6 ADD SLOAD DUP2 MSTORE PUSH1 0x6 DUP6 ADD SLOAD DUP4 AND ISZERO ISZERO SWAP6 DUP2 ADD SWAP6 SWAP1 SWAP6 MSTORE PUSH1 0x60 DUP4 ADD SWAP5 SWAP1 SWAP5 MSTORE DUP5 MLOAD DUP1 DUP7 ADD SWAP1 SWAP6 MSTORE PUSH1 0x7 DUP4 ADD DUP1 SLOAD SWAP3 SWAP6 SWAP4 SWAP5 PUSH1 0x80 DUP8 ADD SWAP5 SWAP4 SWAP2 SWAP3 DUP5 SWAP3 AND SWAP1 DUP2 GT ISZERO PUSH2 0x13F2 JUMPI PUSH2 0x13F2 PUSH2 0x1CD3 JUMP JUMPDEST PUSH1 0x3 DUP2 GT ISZERO PUSH2 0x1403 JUMPI PUSH2 0x1403 PUSH2 0x1CD3 JUMP JUMPDEST DUP2 MSTORE SWAP1 SLOAD PUSH2 0x100 SWAP1 DIV PUSH1 0xFF SWAP1 DUP2 AND ISZERO ISZERO PUSH1 0x20 SWAP3 DUP4 ADD MSTORE SWAP2 DUP4 MSTORE PUSH1 0x8 SWAP4 SWAP1 SWAP4 ADD SLOAD AND ISZERO ISZERO SWAP2 ADD MSTORE SWAP8 SWAP7 POP POP POP POP POP POP POP JUMP JUMPDEST PUSH1 0x0 SLOAD PUSH1 0x1 PUSH1 0x1 PUSH1 0xA0 SHL SUB AND CALLER EQ PUSH2 0x145E JUMPI PUSH1 0x40 MLOAD PUSH3 0x461BCD PUSH1 0xE5 SHL DUP2 MSTORE PUSH1 0x4 ADD PUSH2 0x372 SWAP1 PUSH2 0x1F22 JUMP JUMPDEST PUSH1 0x4 DUP1 SLOAD PUSH1 0xFF NOT AND SWAP1 SSTORE PUSH1 0x0 PUSH1 0x3 SSTORE JUMP JUMPDEST PUSH1 0x0 SLOAD PUSH1 0x1 PUSH1 0x1 PUSH1 0xA0 SHL SUB AND CALLER EQ PUSH2 0x1499 JUMPI PUSH1 0x40 MLOAD PUSH3 0x461BCD PUSH1 0xE5 SHL DUP2 MSTORE PUSH1 0x4 ADD PUSH2 0x372 SWAP1 PUSH2 0x1F22 JUMP JUMPDEST PUSH1 0x1 SLOAD PUSH1 0x40 MLOAD PUSH4 0x47CD639B PUSH1 0xE0 SHL DUP2 MSTORE PUSH1 0x4 DUP2 ADD DUP4 SWAP1 MSTORE DUP3 SWAP2 PUSH1 0x0 SWAP2 PUSH1 0x1 PUSH1 0x1 PUSH1 0xA0 SHL SUB SWAP1 SWAP2 AND SWAP1 PUSH4 0x47CD639B SWAP1 PUSH1 0x24 ADD PUSH1 0x0 PUSH1 0x40 MLOAD DUP1 DUP4 SUB DUP2 DUP7 GAS STATICCALL ISZERO DUP1 ISZERO PUSH2 0x14E7 JUMPI RETURNDATASIZE PUSH1 0x0 DUP1 RETURNDATACOPY RETURNDATASIZE PUSH1 0x0 REVERT JUMPDEST POP POP POP POP PUSH1 0x40 MLOAD RETURNDATASIZE PUSH1 0x0 DUP3 RETURNDATACOPY PUSH1 0x1F RETURNDATASIZE SWAP1 DUP2 ADD PUSH1 0x1F NOT AND DUP3 ADD PUSH1 0x40 MSTORE PUSH2 0x150F SWAP2 SWAP1 DUP2 ADD SWAP1 PUSH2 0x1F8B JUMP JUMPDEST SWAP1 POP PUSH2 0x1523 PUSH1 0x0 SLOAD PUSH1 0x1 PUSH1 0x1 PUSH1 0xA0 SHL SUB AND SWAP1 JUMP JUMPDEST PUSH1 0x1 PUSH1 0x1 PUSH1 0xA0 SHL SUB AND DUP2 PUSH1 0x20 ADD MLOAD PUSH1 0x1 PUSH1 0x1 PUSH1 0xA0 SHL SUB AND EQ PUSH2 0x1557 JUMPI PUSH1 0x40 MLOAD PUSH3 0x461BCD PUSH1 0xE5 SHL DUP2 MSTORE PUSH1 0x4 ADD PUSH2 0x372 SWAP1 PUSH2 0x2068 JUMP JUMPDEST PUSH1 0x0 DUP4 DUP2 MSTORE PUSH1 0xB PUSH1 0x20 MSTORE PUSH1 0x40 SWAP1 KECCAK256 PUSH1 0x8 ADD SLOAD DUP4 SWAP1 PUSH1 0xFF AND PUSH2 0x158A JUMPI PUSH1 0x40 MLOAD PUSH3 0x461BCD PUSH1 0xE5 SHL DUP2 MSTORE PUSH1 0x4 ADD PUSH2 0x372 SWAP1 PUSH2 0x20B4 JUMP JUMPDEST POP POP POP PUSH1 0x0 SWAP1 DUP2 MSTORE PUSH1 0xB PUSH1 0x20 MSTORE PUSH1 0x40 DUP2 KECCAK256 PUSH1 0x2 DUP2 ADD DUP1 SLOAD PUSH1 0xFF NOT AND SWAP1 SSTORE PUSH1 0x1 ADD SSTORE JUMP JUMPDEST PUSH1 0x0 SLOAD PUSH1 0x1 PUSH1 0x1 PUSH1 0xA0 SHL SUB AND CALLER EQ PUSH2 0x15D7 JUMPI PUSH1 0x40 MLOAD PUSH3 0x461BCD PUSH1 0xE5 SHL DUP2 MSTORE PUSH1 0x4 ADD PUSH2 0x372 SWAP1 PUSH2 0x1F22 JUMP JUMPDEST PUSH1 0x9 DUP1 SLOAD PUSH2 0xFFFF NOT AND SWAP1 SSTORE JUMP JUMPDEST DUP1 PUSH3 0x15180 DUP1 DUP3 GT PUSH2 0x1608 JUMPI PUSH1 0x40 MLOAD PUSH3 0x461BCD PUSH1 0xE5 SHL DUP2 MSTORE PUSH1 0x4 ADD PUSH2 0x372 SWAP1 PUSH2 0x21BC JUMP JUMPDEST PUSH1 0x0 SLOAD PUSH1 0x1 PUSH1 0x1 PUSH1 0xA0 SHL SUB AND CALLER EQ PUSH2 0x1632 JUMPI PUSH1 0x40 MLOAD PUSH3 0x461BCD PUSH1 0xE5 SHL DUP2 MSTORE PUSH1 0x4 ADD PUSH2 0x372 SWAP1 PUSH2 0x1F22 JUMP JUMPDEST PUSH3 0x15180 DUP1 DUP5 GT PUSH2 0x1655 JUMPI PUSH1 0x40 MLOAD PUSH3 0x461BCD PUSH1 0xE5 SHL DUP2 MSTORE PUSH1 0x4 ADD PUSH2 0x372 SWAP1 PUSH2 0x21BC JUMP JUMPDEST POP POP PUSH1 0x8 DUP1 SLOAD PUSH1 0xFF NOT AND PUSH1 0x1 OR SWAP1 SSTORE POP PUSH1 0x7 SSTORE JUMP JUMPDEST PUSH1 0x0 SLOAD PUSH1 0x1 PUSH1 0x1 PUSH1 0xA0 SHL SUB AND CALLER EQ PUSH2 0x1694 JUMPI PUSH1 0x40 MLOAD PUSH3 0x461BCD PUSH1 0xE5 SHL DUP2 MSTORE PUSH1 0x4 ADD PUSH2 0x372 SWAP1 PUSH2 0x1F22 JUMP JUMPDEST PUSH1 0x8 DUP1 SLOAD PUSH1 0xFF NOT AND SWAP1 SSTORE PUSH1 0x0 PUSH1 0x7 SSTORE JUMP JUMPDEST PUSH1 0x0 SLOAD PUSH1 0x1 PUSH1 0x1 PUSH1 0xA0 SHL SUB AND CALLER EQ PUSH2 0x16CF JUMPI PUSH1 0x40 MLOAD PUSH3 0x461BCD PUSH1 0xE5 SHL DUP2 MSTORE PUSH1 0x4 ADD PUSH2 0x372 SWAP1 PUSH2 0x1F22 JUMP JUMPDEST PUSH1 0x1 PUSH1 0x1 PUSH1 0xA0 SHL SUB DUP2 AND PUSH2 0x16E2 JUMPI PUSH1 0x0 DUP1 REVERT JUMPDEST PUSH1 0x0 DUP1 SLOAD PUSH1 0x1 PUSH1 0x1 PUSH1 0xA0 SHL SUB NOT AND PUSH1 0x1 PUSH1 0x1 PUSH1 0xA0 SHL SUB SWAP3 SWAP1 SWAP3 AND SWAP2 SWAP1 SWAP2 OR SWAP1 SSTORE JUMP JUMPDEST PUSH2 0x170C PUSH2 0x1AF8 JUMP JUMPDEST PUSH1 0x1 SLOAD PUSH1 0x40 MLOAD PUSH4 0x47CD639B PUSH1 0xE0 SHL DUP2 MSTORE PUSH1 0x4 DUP2 ADD DUP5 SWAP1 MSTORE DUP4 SWAP2 PUSH1 0x0 SWAP2 PUSH1 0x1 PUSH1 0x1 PUSH1 0xA0 SHL SUB SWAP1 SWAP2 AND SWAP1 PUSH4 0x47CD639B SWAP1 PUSH1 0x24 ADD PUSH1 0x0 PUSH1 0x40 MLOAD DUP1 DUP4 SUB DUP2 DUP7 GAS STATICCALL ISZERO DUP1 ISZERO PUSH2 0x175A JUMPI RETURNDATASIZE PUSH1 0x0 DUP1 RETURNDATACOPY RETURNDATASIZE PUSH1 0x0 REVERT JUMPDEST POP POP POP POP PUSH1 0x40 MLOAD RETURNDATASIZE PUSH1 0x0 DUP3 RETURNDATACOPY PUSH1 0x1F RETURNDATASIZE SWAP1 DUP2 ADD PUSH1 0x1F NOT AND DUP3 ADD PUSH1 0x40 MSTORE PUSH2 0x1782 SWAP2 SWAP1 DUP2 ADD SWAP1 PUSH2 0x1F8B JUMP JUMPDEST SWAP1 POP PUSH2 0x1796 PUSH1 0x0 SLOAD PUSH1 0x1 PUSH1 0x1 PUSH1 0xA0 SHL SUB AND SWAP1 JUMP JUMPDEST PUSH1 0x1 PUSH1 0x1 PUSH1 0xA0 SHL SUB AND DUP2 PUSH1 0x20 ADD MLOAD PUSH1 0x1 PUSH1 0x1 PUSH1 0xA0 SHL SUB AND EQ PUSH2 0x17CA JUMPI PUSH1 0x40 MLOAD PUSH3 0x461BCD PUSH1 0xE5 SHL DUP2 MSTORE PUSH1 0x4 ADD PUSH2 0x372 SWAP1 PUSH2 0x2068 JUMP JUMPDEST PUSH1 0x0 DUP5 DUP2 MSTORE PUSH1 0xB PUSH1 0x20 MSTORE PUSH1 0x40 SWAP1 KECCAK256 PUSH1 0x8 ADD SLOAD PUSH1 0xFF AND ISZERO PUSH2 0x18DB JUMPI PUSH1 0x0 DUP5 DUP2 MSTORE PUSH1 0xB PUSH1 0x20 SWAP1 DUP2 MSTORE PUSH1 0x40 SWAP2 DUP3 SWAP1 KECCAK256 DUP3 MLOAD PUSH1 0xC0 DUP2 ADD DUP5 MSTORE DUP2 SLOAD DUP2 MSTORE DUP4 MLOAD DUP1 DUP6 ADD DUP6 MSTORE PUSH1 0x1 DUP4 ADD SLOAD DUP2 MSTORE PUSH1 0x2 DUP4 ADD SLOAD PUSH1 0xFF SWAP1 DUP2 AND ISZERO ISZERO DUP3 DUP7 ADD MSTORE DUP3 DUP6 ADD SWAP2 SWAP1 SWAP2 MSTORE DUP5 MLOAD DUP1 DUP7 ADD DUP7 MSTORE PUSH1 0x3 DUP1 DUP6 ADD SLOAD DUP3 MSTORE PUSH1 0x4 DUP6 ADD SLOAD DUP4 AND ISZERO ISZERO DUP3 DUP8 ADD MSTORE DUP4 DUP8 ADD SWAP2 SWAP1 SWAP2 MSTORE DUP6 MLOAD DUP1 DUP8 ADD DUP8 MSTORE PUSH1 0x5 DUP6 ADD SLOAD DUP2 MSTORE PUSH1 0x6 DUP6 ADD SLOAD DUP4 AND ISZERO ISZERO SWAP6 DUP2 ADD SWAP6 SWAP1 SWAP6 MSTORE PUSH1 0x60 DUP4 ADD SWAP5 SWAP1 SWAP5 MSTORE DUP5 MLOAD DUP1 DUP7 ADD SWAP1 SWAP6 MSTORE PUSH1 0x7 DUP4 ADD DUP1 SLOAD SWAP3 SWAP6 SWAP4 SWAP5 PUSH1 0x80 DUP8 ADD SWAP5 SWAP4 SWAP2 SWAP3 DUP5 SWAP3 AND SWAP1 DUP2 GT ISZERO PUSH2 0x189D JUMPI PUSH2 0x189D PUSH2 0x1CD3 JUMP JUMPDEST PUSH1 0x3 DUP2 GT ISZERO PUSH2 0x18AE JUMPI PUSH2 0x18AE PUSH2 0x1CD3 JUMP JUMPDEST DUP2 MSTORE SWAP1 SLOAD PUSH1 0xFF PUSH2 0x100 SWAP1 SWAP2 DIV DUP2 AND ISZERO ISZERO PUSH1 0x20 SWAP3 DUP4 ADD MSTORE SWAP2 DUP4 MSTORE PUSH1 0x8 SWAP4 SWAP1 SWAP4 ADD SLOAD AND ISZERO ISZERO SWAP2 ADD MSTORE SWAP3 POP PUSH2 0x19B7 JUMP JUMPDEST PUSH1 0x40 DUP1 MLOAD PUSH1 0xC0 DUP2 ADD DUP3 MSTORE PUSH1 0x2 DUP1 SLOAD DUP3 MSTORE DUP3 MLOAD DUP1 DUP5 ADD DUP5 MSTORE PUSH1 0x3 DUP1 SLOAD DUP3 MSTORE PUSH1 0x4 SLOAD PUSH1 0xFF SWAP1 DUP2 AND ISZERO ISZERO PUSH1 0x20 DUP5 DUP2 ADD SWAP2 SWAP1 SWAP2 MSTORE DUP1 DUP7 ADD SWAP4 SWAP1 SWAP4 MSTORE DUP6 MLOAD DUP1 DUP8 ADD DUP8 MSTORE PUSH1 0x5 SLOAD DUP2 MSTORE PUSH1 0x6 SLOAD DUP3 AND ISZERO ISZERO DUP2 DUP6 ADD MSTORE DUP6 DUP8 ADD MSTORE DUP6 MLOAD DUP1 DUP8 ADD DUP8 MSTORE PUSH1 0x7 SLOAD DUP2 MSTORE PUSH1 0x8 SLOAD DUP3 AND ISZERO ISZERO SWAP4 DUP2 ADD SWAP4 SWAP1 SWAP4 MSTORE PUSH1 0x60 DUP6 ADD SWAP3 SWAP1 SWAP3 MSTORE DUP5 MLOAD DUP1 DUP7 ADD SWAP1 SWAP6 MSTORE PUSH1 0x9 DUP1 SLOAD SWAP5 SWAP6 SWAP4 SWAP5 PUSH1 0x80 DUP8 ADD SWAP5 SWAP4 SWAP2 SWAP3 DUP5 SWAP3 SWAP2 SWAP1 SWAP2 AND SWAP1 DUP2 GT ISZERO PUSH2 0x197D JUMPI PUSH2 0x197D PUSH2 0x1CD3 JUMP JUMPDEST PUSH1 0x3 DUP2 GT ISZERO PUSH2 0x198E JUMPI PUSH2 0x198E PUSH2 0x1CD3 JUMP JUMPDEST DUP2 MSTORE SWAP1 SLOAD PUSH1 0xFF PUSH2 0x100 SWAP1 SWAP2 DIV DUP2 AND ISZERO ISZERO PUSH1 0x20 SWAP3 DUP4 ADD MSTORE SWAP2 DUP4 MSTORE PUSH1 0x8 SWAP4 SWAP1 SWAP4 ADD SLOAD AND ISZERO ISZERO SWAP2 ADD MSTORE SWAP3 POP JUMPDEST POP POP SWAP2 SWAP1 POP JUMP JUMPDEST PUSH1 0x1 SLOAD PUSH1 0x40 MLOAD PUSH4 0x47CD639B PUSH1 0xE0 SHL DUP2 MSTORE PUSH1 0x4 DUP2 ADD DUP4 SWAP1 MSTORE DUP3 SWAP2 PUSH1 0x0 SWAP2 PUSH1 0x1 PUSH1 0x1 PUSH1 0xA0 SHL SUB SWAP1 SWAP2 AND SWAP1 PUSH4 0x47CD639B SWAP1 PUSH1 0x24 ADD PUSH1 0x0 PUSH1 0x40 MLOAD DUP1 DUP4 SUB DUP2 DUP7 GAS STATICCALL ISZERO DUP1 ISZERO PUSH2 0x1A0C JUMPI RETURNDATASIZE PUSH1 0x0 DUP1 RETURNDATACOPY RETURNDATASIZE PUSH1 0x0 REVERT JUMPDEST POP POP POP POP PUSH1 0x40 MLOAD RETURNDATASIZE PUSH1 0x0 DUP3 RETURNDATACOPY PUSH1 0x1F RETURNDATASIZE SWAP1 DUP2 ADD PUSH1 0x1F NOT AND DUP3 ADD PUSH1 0x40 MSTORE PUSH2 0x1A34 SWAP2 SWAP1 DUP2 ADD SWAP1 PUSH2 0x1F8B JUMP JUMPDEST SWAP1 POP PUSH2 0x1A48 PUSH1 0x0 SLOAD PUSH1 0x1 PUSH1 0x1 PUSH1 0xA0 SHL SUB AND SWAP1 JUMP JUMPDEST PUSH1 0x1 PUSH1 0x1 PUSH1 0xA0 SHL SUB AND DUP2 PUSH1 0x20 ADD MLOAD PUSH1 0x1 PUSH1 0x1 PUSH1 0xA0 SHL SUB AND EQ PUSH2 0x1A7C JUMPI PUSH1 0x40 MLOAD PUSH3 0x461BCD PUSH1 0xE5 SHL DUP2 MSTORE PUSH1 0x4 ADD PUSH2 0x372 SWAP1 PUSH2 0x2068 JUMP JUMPDEST PUSH1 0x0 SLOAD PUSH1 0x1 PUSH1 0x1 PUSH1 0xA0 SHL SUB AND CALLER EQ PUSH2 0x1AA6 JUMPI PUSH1 0x40 MLOAD PUSH3 0x461BCD PUSH1 0xE5 SHL DUP2 MSTORE PUSH1 0x4 ADD PUSH2 0x372 SWAP1 PUSH2 0x1F22 JUMP JUMPDEST PUSH1 0x0 DUP4 DUP2 MSTORE PUSH1 0xB PUSH1 0x20 MSTORE PUSH1 0x40 SWAP1 KECCAK256 PUSH1 0x8 ADD SLOAD DUP4 SWAP1 PUSH1 0xFF AND PUSH2 0x1AD9 JUMPI PUSH1 0x40 MLOAD PUSH3 0x461BCD PUSH1 0xE5 SHL DUP2 MSTORE PUSH1 0x4 ADD PUSH2 0x372 SWAP1 PUSH2 0x20B4 JUMP JUMPDEST POP POP POP PUSH1 0x0 SWAP1 DUP2 MSTORE PUSH1 0xB PUSH1 0x20 MSTORE PUSH1 0x40 SWAP1 KECCAK256 PUSH1 0x7 ADD DUP1 SLOAD PUSH2 0xFFFF NOT AND SWAP1 SSTORE JUMP JUMPDEST PUSH1 0x40 MLOAD DUP1 PUSH1 0xC0 ADD PUSH1 0x40 MSTORE DUP1 PUSH1 0x0 DUP2 MSTORE PUSH1 0x20 ADD PUSH2 0x1B29 PUSH1 0x40 MLOAD DUP1 PUSH1 0x40 ADD PUSH1 0x40 MSTORE DUP1 PUSH1 0x0 DUP2 MSTORE PUSH1 0x20 ADD PUSH1 0x0 ISZERO ISZERO DUP2 MSTORE POP SWAP1 JUMP JUMPDEST DUP2 MSTORE PUSH1 0x20 ADD PUSH2 0x1B4D PUSH1 0x40 MLOAD DUP1 PUSH1 0x40 ADD PUSH1 0x40 MSTORE DUP1 PUSH1 0x0 DUP2 MSTORE PUSH1 0x20 ADD PUSH1 0x0 ISZERO ISZERO DUP2 MSTORE POP SWAP1 JUMP JUMPDEST DUP2 MSTORE PUSH1 0x20 ADD PUSH2 0x1B71 PUSH1 0x40 MLOAD DUP1 PUSH1 0x40 ADD PUSH1 0x40 MSTORE DUP1 PUSH1 0x0 DUP2 MSTORE PUSH1 0x20 ADD PUSH1 0x0 ISZERO ISZERO DUP2 MSTORE POP SWAP1 JUMP JUMPDEST DUP2 MSTORE PUSH1 0x20 ADD PUSH2 0x1B7E PUSH2 0x1BE1 JUMP JUMPDEST DUP2 MSTORE PUSH1 0x0 PUSH1 0x20 SWAP1 SWAP2 ADD MSTORE SWAP1 JUMP JUMPDEST DUP3 DUP1 SLOAD DUP3 DUP3 SSTORE SWAP1 PUSH1 0x0 MSTORE PUSH1 0x20 PUSH1 0x0 KECCAK256 SWAP1 DUP2 ADD SWAP3 DUP3 ISZERO PUSH2 0x1BD1 JUMPI SWAP2 PUSH1 0x20 MUL DUP3 ADD JUMPDEST DUP3 DUP2 GT ISZERO PUSH2 0x1BD1 JUMPI DUP3 MLOAD DUP3 SWAP1 PUSH2 0x1BC1 SWAP1 DUP3 PUSH2 0x2293 JUMP JUMPDEST POP SWAP2 PUSH1 0x20 ADD SWAP2 SWAP1 PUSH1 0x1 ADD SWAP1 PUSH2 0x1BAB JUMP JUMPDEST POP PUSH2 0x1BDD SWAP3 SWAP2 POP PUSH2 0x1BF3 JUMP JUMPDEST POP SWAP1 JUMP JUMPDEST PUSH1 0x40 DUP1 MLOAD DUP1 DUP3 ADD SWAP1 SWAP2 MSTORE DUP1 PUSH1 0x0 PUSH2 0x1B7E JUMP JUMPDEST DUP1 DUP3 GT ISZERO PUSH2 0x1BDD JUMPI PUSH1 0x0 PUSH2 0x1C07 DUP3 DUP3 PUSH2 0x1C10 JUMP JUMPDEST POP PUSH1 0x1 ADD PUSH2 0x1BF3 JUMP JUMPDEST POP DUP1 SLOAD PUSH2 0x1C1C SWAP1 PUSH2 0x220A JUMP JUMPDEST PUSH1 0x0 DUP3 SSTORE DUP1 PUSH1 0x1F LT PUSH2 0x1C2C JUMPI POP POP JUMP JUMPDEST PUSH1 0x1F ADD PUSH1 0x20 SWAP1 DIV SWAP1 PUSH1 0x0 MSTORE PUSH1 0x20 PUSH1 0x0 KECCAK256 SWAP1 DUP2 ADD SWAP1 PUSH2 0x1C4A SWAP2 SWAP1 PUSH2 0x1C4D JUMP JUMPDEST POP JUMP JUMPDEST JUMPDEST DUP1 DUP3 GT ISZERO PUSH2 0x1BDD JUMPI PUSH1 0x0 DUP2 SSTORE PUSH1 0x1 ADD PUSH2 0x1C4E JUMP JUMPDEST DUP1 CALLDATALOAD PUSH1 0x4 DUP2 LT PUSH2 0x1C71 JUMPI PUSH1 0x0 DUP1 REVERT JUMPDEST SWAP2 SWAP1 POP JUMP JUMPDEST PUSH1 0x0 PUSH1 0x20 DUP3 DUP5 SUB SLT ISZERO PUSH2 0x1C88 JUMPI PUSH1 0x0 DUP1 REVERT JUMPDEST PUSH2 0x1C91 DUP3 PUSH2 0x1C62 JUMP JUMPDEST SWAP4 SWAP3 POP POP POP JUMP JUMPDEST PUSH1 0x0 PUSH1 0x20 DUP3 DUP5 SUB SLT ISZERO PUSH2 0x1CAA JUMPI PUSH1 0x0 DUP1 REVERT JUMPDEST POP CALLDATALOAD SWAP2 SWAP1 POP JUMP JUMPDEST PUSH1 0x0 DUP1 PUSH1 0x40 DUP4 DUP6 SUB SLT ISZERO PUSH2 0x1CC4 JUMPI PUSH1 0x0 DUP1 REVERT JUMPDEST POP POP DUP1 CALLDATALOAD SWAP3 PUSH1 0x20 SWAP1 SWAP2 ADD CALLDATALOAD SWAP2 POP JUMP JUMPDEST PUSH4 0x4E487B71 PUSH1 0xE0 SHL PUSH1 0x0 MSTORE PUSH1 0x21 PUSH1 0x4 MSTORE PUSH1 0x24 PUSH1 0x0 REVERT JUMPDEST DUP2 MLOAD DUP2 MSTORE PUSH1 0x20 DUP1 DUP4 ADD MLOAD DUP1 MLOAD DUP3 DUP5 ADD MSTORE SWAP1 DUP2 ADD MLOAD ISZERO ISZERO PUSH1 0x40 DUP4 ADD MSTORE PUSH2 0x140 DUP3 ADD SWAP1 POP PUSH1 0x40 DUP4 ADD MLOAD DUP1 MLOAD PUSH1 0x60 DUP5 ADD MSTORE PUSH1 0x20 DUP2 ADD MLOAD ISZERO ISZERO PUSH1 0x80 DUP5 ADD MSTORE POP PUSH1 0x60 DUP4 ADD MLOAD DUP1 MLOAD PUSH1 0xA0 DUP5 ADD MSTORE PUSH1 0x20 DUP2 ADD MLOAD ISZERO ISZERO PUSH1 0xC0 DUP5 ADD MSTORE POP PUSH1 0x80 DUP4 ADD MLOAD DUP1 MLOAD PUSH1 0x4 DUP2 LT PUSH2 0x1D62 JUMPI PUSH4 0x4E487B71 PUSH1 0xE0 SHL PUSH1 0x0 MSTORE PUSH1 0x21 PUSH1 0x4 MSTORE PUSH1 0x24 PUSH1 0x0 REVERT JUMPDEST PUSH1 0xE0 DUP5 ADD MSTORE PUSH1 0x20 ADD MLOAD ISZERO ISZERO PUSH2 0x100 DUP4 ADD MSTORE PUSH1 0xA0 SWAP3 SWAP1 SWAP3 ADD MLOAD ISZERO ISZERO PUSH2 0x120 SWAP1 SWAP2 ADD MSTORE SWAP1 JUMP JUMPDEST PUSH1 0x1 PUSH1 0x1 PUSH1 0xA0 SHL SUB DUP2 AND DUP2 EQ PUSH2 0x1C4A JUMPI PUSH1 0x0 DUP1 REVERT JUMPDEST PUSH4 0x4E487B71 PUSH1 0xE0 SHL PUSH1 0x0 MSTORE PUSH1 0x41 PUSH1 0x4 MSTORE PUSH1 0x24 PUSH1 0x0 REVERT JUMPDEST PUSH1 0x40 MLOAD PUSH1 0xA0 DUP2 ADD PUSH8 0xFFFFFFFFFFFFFFFF DUP2 GT DUP3 DUP3 LT OR ISZERO PUSH2 0x1DD4 JUMPI PUSH2 0x1DD4 PUSH2 0x1D9B JUMP JUMPDEST PUSH1 0x40 MSTORE SWAP1 JUMP JUMPDEST PUSH1 0x40 MLOAD PUSH1 0x1F DUP3 ADD PUSH1 0x1F NOT AND DUP2 ADD PUSH8 0xFFFFFFFFFFFFFFFF DUP2 GT DUP3 DUP3 LT OR ISZERO PUSH2 0x1E03 JUMPI PUSH2 0x1E03 PUSH2 0x1D9B JUMP JUMPDEST PUSH1 0x40 MSTORE SWAP2 SWAP1 POP JUMP JUMPDEST PUSH1 0x0 PUSH8 0xFFFFFFFFFFFFFFFF DUP3 GT ISZERO PUSH2 0x1E25 JUMPI PUSH2 0x1E25 PUSH2 0x1D9B JUMP JUMPDEST POP PUSH1 0x1F ADD PUSH1 0x1F NOT AND PUSH1 0x20 ADD SWAP1 JUMP JUMPDEST PUSH1 0x0 DUP1 PUSH1 0x0 DUP1 PUSH1 0x80 DUP6 DUP8 SUB SLT ISZERO PUSH2 0x1E49 JUMPI PUSH1 0x0 DUP1 REVERT JUMPDEST DUP5 CALLDATALOAD PUSH2 0x1E54 DUP2 PUSH2 0x1D86 JUMP JUMPDEST SWAP4 POP PUSH1 0x20 DUP6 ADD CALLDATALOAD SWAP3 POP PUSH1 0x40 DUP6 ADD CALLDATALOAD SWAP2 POP PUSH1 0x60 DUP6 ADD CALLDATALOAD PUSH8 0xFFFFFFFFFFFFFFFF DUP2 GT ISZERO PUSH2 0x1E7E JUMPI PUSH1 0x0 DUP1 REVERT JUMPDEST DUP6 ADD PUSH1 0x1F DUP2 ADD DUP8 SGT PUSH2 0x1E8F JUMPI PUSH1 0x0 DUP1 REVERT JUMPDEST DUP1 CALLDATALOAD PUSH2 0x1EA2 PUSH2 0x1E9D DUP3 PUSH2 0x1E0B JUMP JUMPDEST PUSH2 0x1DDA JUMP JUMPDEST DUP2 DUP2 MSTORE DUP9 PUSH1 0x20 DUP4 DUP6 ADD ADD GT ISZERO PUSH2 0x1EB7 JUMPI PUSH1 0x0 DUP1 REVERT JUMPDEST DUP2 PUSH1 0x20 DUP5 ADD PUSH1 0x20 DUP4 ADD CALLDATACOPY PUSH1 0x0 PUSH1 0x20 DUP4 DUP4 ADD ADD MSTORE DUP1 SWAP4 POP POP POP POP SWAP3 SWAP6 SWAP2 SWAP5 POP SWAP3 POP JUMP JUMPDEST PUSH1 0x0 DUP1 PUSH1 0x40 DUP4 DUP6 SUB SLT ISZERO PUSH2 0x1EEC JUMPI PUSH1 0x0 DUP1 REVERT JUMPDEST DUP3 CALLDATALOAD SWAP2 POP PUSH2 0x1EFC PUSH1 0x20 DUP5 ADD PUSH2 0x1C62 JUMP JUMPDEST SWAP1 POP SWAP3 POP SWAP3 SWAP1 POP JUMP JUMPDEST PUSH1 0x0 PUSH1 0x20 DUP3 DUP5 SUB SLT ISZERO PUSH2 0x1F17 JUMPI PUSH1 0x0 DUP1 REVERT JUMPDEST DUP2 CALLDATALOAD PUSH2 0x1C91 DUP2 PUSH2 0x1D86 JUMP JUMPDEST PUSH1 0x20 DUP1 DUP3 MSTORE DUP2 DUP2 ADD MSTORE PUSH32 0x4F776E61626C653A2063616C6C6572206973206E6F7420746865206F776E6572 PUSH1 0x40 DUP3 ADD MSTORE PUSH1 0x60 ADD SWAP1 JUMP JUMPDEST PUSH1 0x0 JUMPDEST DUP4 DUP2 LT ISZERO PUSH2 0x1F72 JUMPI DUP2 DUP2 ADD MLOAD DUP4 DUP3 ADD MSTORE PUSH1 0x20 ADD PUSH2 0x1F5A JUMP JUMPDEST POP POP PUSH1 0x0 SWAP2 ADD MSTORE JUMP JUMPDEST DUP1 MLOAD DUP1 ISZERO ISZERO DUP2 EQ PUSH2 0x1C71 JUMPI PUSH1 0x0 DUP1 REVERT JUMPDEST PUSH1 0x0 PUSH1 0x20 DUP1 DUP4 DUP6 SUB SLT ISZERO PUSH2 0x1F9E JUMPI PUSH1 0x0 DUP1 REVERT JUMPDEST DUP3 MLOAD PUSH8 0xFFFFFFFFFFFFFFFF DUP1 DUP3 GT ISZERO PUSH2 0x1FB6 JUMPI PUSH1 0x0 DUP1 REVERT JUMPDEST SWAP1 DUP5 ADD SWAP1 PUSH1 0xA0 DUP3 DUP8 SUB SLT ISZERO PUSH2 0x1FCA JUMPI PUSH1 0x0 DUP1 REVERT JUMPDEST PUSH2 0x1FD2 PUSH2 0x1DB1 JUMP JUMPDEST DUP3 MLOAD DUP2 MSTORE DUP4 DUP4 ADD MLOAD PUSH2 0x1FE3 DUP2 PUSH2 0x1D86 JUMP JUMPDEST DUP2 DUP6 ADD MSTORE PUSH1 0x40 DUP4 ADD MLOAD DUP3 DUP2 GT ISZERO PUSH2 0x1FF9 JUMPI PUSH1 0x0 DUP1 REVERT JUMPDEST DUP4 ADD SWAP2 POP PUSH1 0x1F DUP3 ADD DUP8 SGT PUSH2 0x200C JUMPI PUSH1 0x0 DUP1 REVERT JUMPDEST DUP2 MLOAD PUSH2 0x201A PUSH2 0x1E9D DUP3 PUSH2 0x1E0B JUMP JUMPDEST DUP2 DUP2 MSTORE DUP9 DUP7 DUP4 DUP7 ADD ADD GT ISZERO PUSH2 0x202E JUMPI PUSH1 0x0 DUP1 REVERT JUMPDEST PUSH2 0x203D DUP3 DUP8 DUP4 ADD DUP9 DUP8 ADD PUSH2 0x1F57 JUMP JUMPDEST PUSH1 0x40 DUP4 ADD MSTORE POP PUSH1 0x60 DUP4 DUP2 ADD MLOAD SWAP1 DUP3 ADD MSTORE PUSH2 0x2059 PUSH1 0x80 DUP5 ADD PUSH2 0x1F7B JUMP JUMPDEST PUSH1 0x80 DUP3 ADD MSTORE SWAP7 SWAP6 POP POP POP POP POP POP JUMP JUMPDEST PUSH1 0x20 DUP1 DUP3 MSTORE PUSH1 0x2C SWAP1 DUP3 ADD MSTORE PUSH32 0x546865207265736F75726365206973206E6F7420636F76657265642062792074 PUSH1 0x40 DUP3 ADD MSTORE PUSH12 0x1A1A5CC818DBDB9D1C9858DD PUSH1 0xA2 SHL PUSH1 0x60 DUP3 ADD MSTORE PUSH1 0x80 ADD SWAP1 JUMP JUMPDEST PUSH1 0x20 DUP1 DUP3 MSTORE PUSH1 0x66 SWAP1 DUP3 ADD MSTORE PUSH32 0x546865207265736F7572636520686173206E6F74207370656369666963206F62 PUSH1 0x40 DUP3 ADD MSTORE PUSH32 0x6C69676169746F6E732072756C65732E20416464207370656369666963207275 PUSH1 0x60 DUP3 ADD MSTORE PUSH32 0x6C65732C206F72206368616E676865207468652064656661756C7420706F6420 PUSH1 0x80 DUP3 ADD MSTORE PUSH6 0x393AB632B997 PUSH1 0xD1 SHL PUSH1 0xA0 DUP3 ADD MSTORE PUSH1 0xC0 ADD SWAP1 JUMP JUMPDEST DUP4 DUP2 MSTORE PUSH1 0x1 DUP1 PUSH1 0xA0 SHL SUB DUP4 AND PUSH1 0x20 DUP3 ADD MSTORE PUSH1 0x60 PUSH1 0x40 DUP3 ADD MSTORE PUSH1 0x0 DUP3 MLOAD DUP1 PUSH1 0x60 DUP5 ADD MSTORE PUSH2 0x2179 DUP2 PUSH1 0x80 DUP6 ADD PUSH1 0x20 DUP8 ADD PUSH2 0x1F57 JUMP JUMPDEST PUSH1 0x1F ADD PUSH1 0x1F NOT AND SWAP2 SWAP1 SWAP2 ADD PUSH1 0x80 ADD SWAP5 SWAP4 POP POP POP POP JUMP JUMPDEST PUSH1 0x0 PUSH1 0x1 PUSH1 0x1 PUSH1 0xFF SHL ADD DUP3 ADD PUSH2 0x21B5 JUMPI PUSH4 0x4E487B71 PUSH1 0xE0 SHL PUSH1 0x0 MSTORE PUSH1 0x11 PUSH1 0x4 MSTORE PUSH1 0x24 PUSH1 0x0 REVERT JUMPDEST POP PUSH1 0x1 ADD SWAP1 JUMP JUMPDEST PUSH1 0x20 DUP1 DUP3 MSTORE PUSH1 0x2E SWAP1 DUP3 ADD MSTORE PUSH32 0x5468652074656D706F72616C206F626C69676174696F6E206D75737420626520 PUSH1 0x40 DUP3 ADD MSTORE PUSH14 0x6174206C65617374203120646179 PUSH1 0x90 SHL PUSH1 0x60 DUP3 ADD MSTORE PUSH1 0x80 ADD SWAP1 JUMP JUMPDEST PUSH1 0x1 DUP2 DUP2 SHR SWAP1 DUP3 AND DUP1 PUSH2 0x221E JUMPI PUSH1 0x7F DUP3 AND SWAP2 POP JUMPDEST PUSH1 0x20 DUP3 LT DUP2 SUB PUSH2 0x223E JUMPI PUSH4 0x4E487B71 PUSH1 0xE0 SHL PUSH1 0x0 MSTORE PUSH1 0x22 PUSH1 0x4 MSTORE PUSH1 0x24 PUSH1 0x0 REVERT JUMPDEST POP SWAP2 SWAP1 POP JUMP JUMPDEST PUSH1 0x1F DUP3 GT ISZERO PUSH2 0x228E JUMPI PUSH1 0x0 DUP2 DUP2 MSTORE PUSH1 0x20 DUP2 KECCAK256 PUSH1 0x1F DUP6 ADD PUSH1 0x5 SHR DUP2 ADD PUSH1 0x20 DUP7 LT ISZERO PUSH2 0x226B JUMPI POP DUP1 JUMPDEST PUSH1 0x1F DUP6 ADD PUSH1 0x5 SHR DUP3 ADD SWAP2 POP JUMPDEST DUP2 DUP2 LT ISZERO PUSH2 0x228A JUMPI DUP3 DUP2 SSTORE PUSH1 0x1 ADD PUSH2 0x2277 JUMP JUMPDEST POP POP POP JUMPDEST POP POP POP JUMP JUMPDEST DUP2 MLOAD PUSH8 0xFFFFFFFFFFFFFFFF DUP2 GT ISZERO PUSH2 0x22AD JUMPI PUSH2 0x22AD PUSH2 0x1D9B JUMP JUMPDEST PUSH2 0x22C1 DUP2 PUSH2 0x22BB DUP5 SLOAD PUSH2 0x220A JUMP JUMPDEST DUP5 PUSH2 0x2244 JUMP JUMPDEST PUSH1 0x20 DUP1 PUSH1 0x1F DUP4 GT PUSH1 0x1 DUP2 EQ PUSH2 0x22F6 JUMPI PUSH1 0x0 DUP5 ISZERO PUSH2 0x22DE JUMPI POP DUP6 DUP4 ADD MLOAD JUMPDEST PUSH1 0x0 NOT PUSH1 0x3 DUP7 SWAP1 SHL SHR NOT AND PUSH1 0x1 DUP6 SWAP1 SHL OR DUP6 SSTORE PUSH2 0x228A JUMP JUMPDEST PUSH1 0x0 DUP6 DUP2 MSTORE PUSH1 0x20 DUP2 KECCAK256 PUSH1 0x1F NOT DUP7 AND SWAP2 JUMPDEST DUP3 DUP2 LT ISZERO PUSH2 0x2325 JUMPI DUP9 DUP7 ADD MLOAD DUP3 SSTORE SWAP5 DUP5 ADD SWAP5 PUSH1 0x1 SWAP1 SWAP2 ADD SWAP1 DUP5 ADD PUSH2 0x2306 JUMP JUMPDEST POP DUP6 DUP3 LT ISZERO PUSH2 0x2343 JUMPI DUP8 DUP6 ADD MLOAD PUSH1 0x0 NOT PUSH1 0x3 DUP9 SWAP1 SHL PUSH1 0xF8 AND SHR NOT AND DUP2 SSTORE JUMPDEST POP POP POP POP POP PUSH1 0x1 SWAP1 DUP2 SHL ADD SWAP1 SSTORE POP JUMP INVALID LOG2 PUSH5 0x6970667358 0x22 SLT KECCAK256 SWAP4 LOG3 0xD9 OR PUSH18 0xE98FD315E91A823932703527BAA3DFB7AA8A GT 0xBE ADDRESS 0x2E 0xCE PUSH1 0x75 MLOAD 0xC5 PUSH5 0x736F6C6343 STOP ADDMOD SLT STOP CALLER LOG2 PUSH5 0x6970667358 0x22 SLT KECCAK256 0x49 GASPRICE ADDRESS SWAP12 EQ PREVRANDAO SWAP4 0xC3 PUSH13 0x4D436CA6B03FEB5A6867BBB57E COINBASE 0xBB PUSH4 0x91B653D1 PUSH6 0x6DF64736F6C PUSH4 0x43000812 STOP CALLER "
		},
		"gasEstimates": {
			"creation": {
				"codeDepositCost": "2909600",
				"executionCost": "infinite",
				"totalCost": "infinite"
			},
			"external": {
				"deactivateResource(int256)": "infinite",
				"getPodResources(int256,uint256)": "infinite",
				"getResource(int256)": "infinite",
				"monitoringOracle()": "2403",
				"registerPod(bytes,uint8,address)": "infinite",
				"registerResource(int256,bytes,uint256)": "infinite"
			}
		},
		"methodIdentifiers": {
			"deactivateResource(int256)": "8ec80369",
			"getPodResources(int256,uint256)": "1406ddd8",
			"getResource(int256)": "47cd639b",
			"monitoringOracle()": "baf5e78b",
			"registerPod(bytes,uint8,address)": "418d91ee",
			"registerResource(int256,bytes,uint256)": "c28e99eb"
		}
	},
	"abi": [
		{
			"inputs": [
				{
					"internalType": "address",
					"name": "oracleAddress",
					"type": "address"
				}
			],
			"stateMutability": "nonpayable",
			"type": "constructor"
		},
		{
			"anonymous": false,
			"inputs": [
				{
					"indexed": false,
					"internalType": "address",
					"name": "oracleAddress",
					"type": "address"
				}
			],
			"name": "Address",
			"type": "event"
		},
		{
			"anonymous": false,
			"inputs": [
				{
					"indexed": false,
					"internalType": "int256",
					"name": "idPod",
					"type": "int256"
				},
				{
					"indexed": false,
					"internalType": "address",
					"name": "obligationAddress",
					"type": "address"
				}
			],
			"name": "NewPod",
			"type": "event"
		},
		{
			"anonymous": false,
			"inputs": [
				{
					"indexed": false,
					"internalType": "int256",
					"name": "idResource",
					"type": "int256"
				}
			],
			"name": "NewResource",
			"type": "event"
		},
		{
			"inputs": [
				{
					"internalType": "int256",
					"name": "idResource",
					"type": "int256"
				}
			],
			"name": "deactivateResource",
			"outputs": [],
			"stateMutability": "nonpayable",
			"type": "function"
		},
		{
			"inputs": [
				{
					"internalType": "int256",
					"name": "pod_id",
					"type": "int256"
				},
				{
					"internalType": "uint256",
					"name": "idSubscription",
					"type": "uint256"
				}
			],
			"name": "getPodResources",
			"outputs": [
				{
					"components": [
						{
							"internalType": "int256",
							"name": "id",
							"type": "int256"
						},
						{
							"internalType": "address",
							"name": "owner",
							"type": "address"
						},
						{
							"internalType": "bytes",
							"name": "url",
							"type": "bytes"
						},
						{
							"internalType": "int256",
							"name": "podId",
							"type": "int256"
						},
						{
							"internalType": "bool",
							"name": "isActive",
							"type": "bool"
						}
					],
					"internalType": "struct DTindexing.Resource[]",
					"name": "",
					"type": "tuple[]"
				}
			],
			"stateMutability": "view",
			"type": "function"
		},
		{
			"inputs": [
				{
					"internalType": "int256",
					"name": "idResource",
					"type": "int256"
				}
			],
			"name": "getResource",
			"outputs": [
				{
					"components": [
						{
							"internalType": "int256",
							"name": "id",
							"type": "int256"
						},
						{
							"internalType": "address",
							"name": "owner",
							"type": "address"
						},
						{
							"internalType": "bytes",
							"name": "url",
							"type": "bytes"
						},
						{
							"internalType": "int256",
							"name": "podId",
							"type": "int256"
						},
						{
							"internalType": "bool",
							"name": "isActive",
							"type": "bool"
						}
					],
					"internalType": "struct DTindexing.Resource",
					"name": "",
					"type": "tuple"
				}
			],
			"stateMutability": "view",
			"type": "function"
		},
		{
			"inputs": [],
			"name": "monitoringOracle",
			"outputs": [
				{
					"internalType": "address",
					"name": "",
					"type": "address"
				}
			],
			"stateMutability": "view",
			"type": "function"
		},
		{
			"inputs": [
				{
					"internalType": "bytes",
					"name": "newReference",
					"type": "bytes"
				},
				{
					"internalType": "enum DTindexing.PodType",
					"name": "podType",
					"type": "uint8"
				},
				{
					"internalType": "address",
					"name": "podAddress",
					"type": "address"
				}
			],
			"name": "registerPod",
			"outputs": [
				{
					"internalType": "int256",
					"name": "",
					"type": "int256"
				}
			],
			"stateMutability": "nonpayable",
			"type": "function"
		},
		{
			"inputs": [
				{
					"internalType": "int256",
					"name": "podId",
					"type": "int256"
				},
				{
					"internalType": "bytes",
					"name": "newReference",
					"type": "bytes"
				},
				{
					"internalType": "uint256",
					"name": "idSubscription",
					"type": "uint256"
				}
			],
			"name": "registerResource",
			"outputs": [
				{
					"internalType": "int256",
					"name": "",
					"type": "int256"
				}
			],
			"stateMutability": "nonpayable",
			"type": "function"
		}
	]
}